S014000045464D33325A473232324633322E733337C1
S11300000010002065010000910100009101000032
S11300109101000091010000910100009101000094
S11300209101000091010000910100009101000084
S113003091010000910100009101000031170000BE
S11300406D0B00009101000091010000910100007E
S11300509101000091010000910100009101000054
S11300600118000091010000C51700009101000073
S11300709101000091010000910100009101000034
S113008091010000910100009101000010B5064C9F
S11300902378002B07D1054B002B02D0044800E045
S11300A000BF0123237010BDB40000200000000035
S11300B0C06F000008B5084B002B03D0074808495F
S11300C000E000BF07480368002B00D108BD064BC1
S11300D0002BFBD09847F9E700000000C06F000038
S11300E0B8000020B000002000000000164B002BD8
S11300F000D1144B9D46402292029A1A9246002146
S11301008B460F461348144A121A04F01FFA0F4B79
S1130110002B00D098470E4B002B00D098470020AE
S1130120002104000D000D48002802D00C4800E016
S113013000BF04F0E5F92000290001F039FE04F0C5
S1130140C9F9C046000008000010002000000000AB
S113015000000000B400002008020020000000009D
S113016000000000064880470649074A074B9B1ACF
S113017003DD043BC858D050FBDCFFF7B7FF000099
S1130180D5020000F46F000000000020B40000203D
S1130190FEE7C04680B582B000AF00F01FF8031C34
S11301A07B60084B5B680F2213401A1C7B68D340AA
S11301B07B60054B7A681A607B68181CBD4602B0E8
S11301C080BDC04600800C400800002080B500AF10
S11301D0014B181CBD4680BD00366E0180B582B04F
S11301E000AF294BDA6AF0239B01134080225201AD
S11301F093420CD080229201934204D080221201B7
S1130200934208D00BE0214B1B687B6036E08023CF
S11302101B027B6032E01E4B1B687B602EE01A4B96
S1130220DA68E023DB00134080229200934218D066
S113023080229200934206D8002B18D080225200CC
S1130240934211D016E0C0229200934206D080223D
S1130250D20093420ED10F4B7B600EE00E4B7B60BD
S11302600BE00E4B7B6008E00D4B7B6005E00D4B13
S11302707B6002E000237B60C046C0467B68181C9C
S1130280BD4602B080BDC04600800C400400002082
S113029000000020406F4001809FD500C0D8A70017
S11302A040B56400804F120080B582B000AF786022
S11302B0064B7A681A60064BDA6A80231B011340E6
S11302C001D0FFF767FFBD4602B080BD00000020EB
S11302D000800C4080B500AFBD4680BD80B500AF46
S11302E080231B02181CBD4680BDC04680B500AFEC
S11302F0FA239B00181CBD4680BDC04680B500AFE4
S1130300024B1B68181CBD4680BDC046040000207B
S113031080B586B000AFF860B9607A60FB681B688E
S11303207B61BB6801229A40131CDB431A1C7B6966
S11303301A407B6801211940BB6899400B1C1A4381
S1130340FB681A60BD4606B080BDC04680B582B069
S113035000AF786039607B681A683B68DA40131C28
S113036001221340181CBD4602B080BD80B500AF09
S1130370034BDB6C1B0EDBB2181CBD4680BDC046B4
S1130380B081E00F80B582B000AF224B5A69E02300
S1130390DB0013408022920093421ED08022920000
S11303A0934206D8002B26D08022520093421FD0BD
S11303B027E0C0229200934204D0E022D20093426C
S11303C01CD01EE0FFF7D2FF031E122B02D9124BE2
S11303D07B6019E0114B7B6016E0FFF7C7FF031E3B
S11303E0122B02D90E4B7B600EE00E4B7B600BE0B0
S11303F00D4B7B6008E00D4B7B6005E00C4B7B6094
S113040002E000237B60C0467B68181CBD4602B036
S113041080BDC04600800C40804F120040420F0057
S113042040B56400C0CF6A00C0D8A700809FD50043
S1130430406F400190B583B000AFFC1C0E4B181CFC
S113044000F0E0F9031C2370FB1C1B78072B06D07B
S1130450092B09D1FFF7C2FE031C7B6007E0FFF7FD
S113046091FF031C7B6002E000237B60C0467B6835
S1130470181CBD4603B090BD06000C0080B584B0C6
S113048000AF78603960184BDA6B0B23FB18511EF0
S11304908A411A70144B154ADA63134B5B680722BE
S11304A01340FB607B68124A934202D80023FB602E
S11304B005E07B680F4A934201D80123FB600A4B95
S11304C0094A526807218A43111CFA680A435A6090
S11304D00B23FB181B78002B02D0034B0022DA639A
S11304E0BD4604B080BDC04600000C40711B000036
S11304F00024F4000048E80180B500AFFFF766FE71
S1130500031C181C0021FFF7B9FFBD4680BDC0467F
S113051080B582B000AF786039607A683B68101C9F
S1130520191CFFF7ABFFBD4602B080BD80B584B097
S113053000AF78600023BB607B68304A934203D0ED
S11305402F4A934200D000E0C0467B68181C00F09C
S113055059F9031CFB607B68284A934203D0284A5C
S1130560934206D00CE0274B9B6A03221340FB60A6
S113057006E0244B9B6A0C2213409B08FB60C04698
S1130580FB68012B05D014D3022B07D0032B0AD010
S11305902BE0FFF7A3FE031CBB6029E0FFF7AEFED0
S11305A0031CBB6024E0FFF7F5FD031C5B08BB6084
S11305B01EE00023BB607B68104A934203D07B6833
S11305C00F4A934210D10F4B9A6A7B680B498B42B6
S11305D001D1102300E01423DA40131E04D0FFF7E6
S11305E085FE031CBB6003E002E00023BB60C04641
S11305F0BB68181CBD4604B080BDC04602001A008A
S113060003001C0000800C4080B582B000AF78600D
S1130610074B5B6D0122134000D005E0C046044B3C
S11306201B6D7A681340FAD1BD4602B080BDC04646
S113063000800C4080B586B000AF78600A1CFB1CBB
S11306401A7000233B617B681B0A0F2213400A2B9C
S113065030D89A00194BD3181B689F46184B7B61FE
S113066012E0184B7B610FE0174B7B610CE0174BDA
S11306707B6101233B6107E0154B7B6110233B61E8
S113068002E0144B7B61C0467B681B0B1F221340A6
S1130690FB603B69002B03D03B69181CFFF7B4FFD8
S11306A0FB1C1B787969FA68081C111C1A1CFFF7DB
S11306B02FFE00E0C046BD4606B080BDF86B0000CA
S11306C040800C4008800C4044800C4058800C4012
S11306D060800C4078800C4080B584B000AF7860B6
S11306E07A68F8239B031340E0221203934200D15B
S11306F075E0E0221203934213D8802292029342BF
S113070037D080229202934202D8002B1FD06BE094
S11307108022D20293421FD0C0221203934259D0A6
S113072062E0B0225203934245D0B0225203934276
S113073004D880225203934227D055E0D02252039A
S113074093421BD0E022520393422DD04CE0FFF79A
S113075045FD031CFB604AE0FFF740FD031CFB6002
S1130760254B9B680F2213401A1CFB68D340FB6087
S11307703DE0FFF70FFD031CFB6038E01F4B181C26
S1130780FFF7D4FE031CFB6031E01C4B181CFFF781
S1130790CDFE031CFB60184B9B6E0F2213401A1CEA
S11307A0FB68D340FB6022E0154B181CFFF7BEFE2C
S11307B0031CFB601BE0124B181CFFF7B7FE031C65
S11307C0FB600D4B1B6F032213401A1CFB68D340C4
S11307D0FB600CE0FFF72EFE031CFB6007E0FFF755
S11307E0D1FD031CFB6002E00023FB60C046FB68F4
S11307F0181CBD4604B080BD00800C4002001A00E5
S113080003001C0080B584B000AF78600F23FB1890
S113081001221A707B680F221340BB60BB68022B55
S113082030D002D8012B06D07DE0032B50D0062B0C
S113083000D173E077E0424BDA6AF0239B01134066
S11308408022520193420DD080229201934204D01F
S11308508022120193420AD00EE00F23FB180222D9
S11308601A700EE00F23FB1803221A7009E00F23FD
S1130870FB1804221A7004E00F23FB1805221A70D7
S1130880C04655E02E4B9B6A03221340022B08D02E
S1130890032B0BD0012B0ED10F23FB1803221A704C
S11308A015E00F23FB1802221A7010E00F23FB1827
S11308B006221A700BE0224B9A6A80235B021340D3
S11308C004D00F23FB180A221A7000E0C0462FE060
S11308D01B4B9B6A0C221340082B08D00C2B0BD00B
S11308E0042B0ED10F23FB1803221A7015E00F23DB
S11308F0FB1802221A7010E00F23FB1806221A704C
S11309000BE00F4B9A6A80235B03134004D00F2340
S1130910FB180A221A7000E0C04609E00F23FB18F6
S113092007221A7004E00F23FB1800221A70C04635
S11309300F23FB181B78181CBD4604B080BDC046AD
S113094000800C4080B588B000AF78600A1CFB1CA6
S11309501A700323FB611B23FB1803221A70002364
S11309603B617B680F221340FB60FB68012B05D0C1
S113097000D286E0032B00D983E03CE0FB1C1B780B
S11309800A2B00D97FE09A00424BD3181B689F467C
S11309900423FB611B23FB1800221A7014E00323B9
S11309A0FB611B23FB1801221A700DE00223FB617B
S11309B01B23FB1802221A7006E00123FB611B2390
S11309C0FB1803221A70C0461B23FB181B78181C43
S11309D00121012200F06AF8FFF78EFD2E4BFA691F
S11309E05A62FFF7D7FB031CBB60BB68181C0021CD
S11309F0FFF78EFD4AE0FB1C1B780A2B45D89A00B2
S1130A00264BD3181B689F4600237B611DE0002002
S1130A100121012200F04AF802237B6115E0012044
S1130A200121012200F042F801237B610DE01C4BFF
S1130A30181C02210122FFF76BFC03237B6104E0F5
S1130A4000237B6101233B61C046FB68022B0BD171
S1130A50114B114A926A134911407A6911433A6958
S1130A6012040A439A6211E00B4B0B4A926A0E4934
S1130A7011407A69920011433A6912050A439A6255
S1130A8004E0C04602E0C04600E0C046BD4608B0EF
S1130A9080BDC046246C000000800C40506C0000F7
S1130AA040800C40FCFFFEFFF3FFEFFF90B587B0E2
S1130AB000AF041C081C111CFB1D221C1A70BB1D5A
S1130AC0021C1A707B1D0A1C1A70FB1D1B78042B58
S1130AD042D89A00224BD3181B689F4601233B61DE
S1130AE00223FB6001237B611DE004233B61082397
S1130AF0FB6003237B6116E010233B612023FB6032
S1130B0005237B610FE040233B618023FB600723C7
S1130B107B6108E080235B003B6180239B00FB60DA
S1130B2009237B61C046BB1D1B78002B10D00D4BE5
S1130B303A691A627B1D1B78002B0ED0C0460A4A04
S1130B407B69101C191CFFF701FC031EF7D004E09D
S1130B50044BFA681A6200E0C046BD4607B090BD77
S1130B607C6C000000800C402C800C4090B58BB055
S1130B7000AF314A80235B01D358BB612E4A2F4B0F
S1130B80D258BB691340BB612B4B9B6B7B61BB6928
S1130B907A6913403B620023FB6147E000237B62D8
S1130BA039E03B6A012213402FD0234B9B683B6101
S1130BB001227B6A9A40131CFB601F49204AFB6890
S1130BC08B507B6A1B013A69D318DB68BB60BB6836
S1130BD0002B1AD0BB681B7A7B60BB681B7A01228E
S1130BE05340DAB2BB681A72BB681B68002B0CD086
S1130BF0BB681C68796A7B685A1E9341DAB2BB6889
S1130C005B68081C111C1A1CA0473B6A5B083B620A
S1130C107B6A01337B623B6A002BC2D17B69DB4375
S1130C20BA6913403B62FB690133FB61FB69012B29
S1130C30B4DDBD460BB090BD00200C400C1000008C
S1130C400810000080B582B000AF786039607B681E
S1130C501B6C0122134000D005E0C0467B685B6C2E
S1130C603A681340FAD1BD4602B080BD80B586B063
S1130C7000AFF860B9607A60BB68002B0DD1FB68E7
S1130C80144A934208D1144B7B617B69181CFFF70B
S1130C9023FD031CBB6000E019E0BB685B01181C6A
S1130CA0796801F059F9031C3B613B69203B3B61C6
S1130CB03B69DB003B613B69084A13403B61FB68CD
S1130CC0181C0421FFF7BEFFFB683A69DA60BD46D1
S1130CD006B080BD0040084070071600F87F000091
S1130CE080B584B000AF78600A1CFB1C1A70FB1C32
S1130CF01B78DB43FB60FB6805221340FB60FB6849
S1130D005B00FB60FB1C1B78FA681343FB607B6889
S1130D10181C0221FFF796FF7B68FA685A60BD46EB
S1130D2004B080BD80B582B000AF78600A1CFB1CA3
S1130D301A70FB1C1B78002B08D0C0467B685B6CC8
S1130D40002BFBD17B6801221A6402E07B6800223D
S1130D501A64BD4602B080BD80B582B000AF786031
S1130D6039607B68181C0221FFF76CFF7B680A223C
S1130D705A607B68181C0121FFF7D4FF7B681B684D
S1130D801C2293433A68127B13433A68527B134301
S1130D903A68927B1A437B681A603B685A683B68DE
S1130DA09B687968081C111C1A1CFFF75FFF3B68DD
S1130DB01B781A1C7B685A607B68181C0021FFF79B
S1130DC0B1FFBD4602B080BD80B582B000AF78608F
S1130DD0C0467B689B6820221340FAD07B68DB699D
S1130DE0DBB2181CBD4602B080BDC04680B582B0DF
S1130DF000AF78600A1CFB1C1A70C0467B689B68B5
S1130E0010221340FAD07B68181C4021FFF71AFF08
S1130E10FB1C1A787B689A62BD4602B080BDC0464E
S1130E2080B582B000AF78600A1CFB1C1A707B6826
S1130E30181C0121FFF706FFFB1C1B78002B07D0B1
S1130E407B681B68802292011A437B681A6005E064
S1130E507B681B68034A1A407B681A60BD4602B06F
S1130E6080BDC046FFDFFFFF80B582B000AF786071
S1130E700A1CFB1C1A707B68181C0121FFF7E2FE98
S1130E80FB1C1B78002B07D07B681B688022520157
S1130E901A437B681A6005E07B681B68034A1A40A2
S1130EA07B681A60BD4602B080BDC046FFEFFFFFFD
S1130EB080B586B000AFF860B9607A601A1CFB1C7C
S1130EC01A70BB68002B05D1294B181CFFF704FCD2
S1130ED0031CBB60FB1C1B78202B0BD002DC002BFB
S1130EE005D041E0402B08D0602B0ED03CE010230D
S1130EF07B610DE008237B610AE0BB68181C0621B6
S1130F0001F02AF806237B6102E004237B61C046DA
S1130F10BB689A007B6979684B435B08D3183B61D3
S1130F207B697A6853433869191C01F015F8031C6E
S1130F303B613B69043B3B613B699B013B613B6912
S1130F400C4A13403B61FB681B68602293431A1CE4
S1130F50FB681A60FB681A68FB1C1B781A43FB6861
S1130F601A60FB683A695A61BD4606B080BDC04646
S1130F7040810400C0FF1F0080B582B000AF7860DC
S1130F8039607B68181C00F061F83B689B7C002B7F
S1130F9006D07B681B688022D2051A437B681A60DE
S1130FA03B68DB7C002B07D03B681B7D102213437E
S1130FB0DBB21A1C7B689A653B685B7B1A1C3B6836
S1130FC01B8A13433A68D2891A437B685A603B6888
S1130FD059683B689A683B681B7B7868FFF768FF31
S1130FE03B681B781A1C7B68DA60BD4602B080BD82
S1130FF080B584B000AF786039607B689B687322E9
S11310009343FB603B681B78002B03D0FB684022B2
S11310101343FB603B689B78002B03D0FB682022C2
S11310201343FB603B685B78002B03D0FB68102202
S11310301343FB603B68DB781A1CFB681343FB60BB
S11310407B68FA689A60BD4604B080BD80B582B002
S113105000AF78607B68154ADA607B6800221A600A
S11310607B68134A5A607B6800229A607B6800227E
S11310705A617B680022DA647B680E4A9A647B6852
S113108000225A657B680C4A934202D17B68002295
S11310901A657B6800229A657B68074A934202D1ED
S11310A07B680022DA65BD4602B080BDAA0E00004E
S11310B005100000F91F000000C4004080B582B094
S11310C000AF7860C0467B681B6980221340FAD069
S11310D07B68DB69DBB2181CBD4602B080BDC0462C
S11310E080B582B000AF78600A1CFB1C1A70C04641
S11310F07B681B6940221340FAD0FB1C1A787B687A
S11311005A63BD4602B080BD80B582B000AF021CF8
S1131110FB1D1A70064BFA1D1278111C1F220A407F
S1131120012191400A1C1A60BD4602B080BDC04630
S113113000E100E080B582B000AF021CFB1D1A7014
S11311400649FB1D1B781A1C1F23134001229A40D9
S1131150C0235B00CA50BD4602B080BD00E100E080
S113116080B582B000AF786039607B683A685A63B2
S1131170BD4602B080BDC04680B582B000AF786085
S113118039607B689A6B3B681A437B689A63BD46F7
S113119002B080BD80B582B000AF786039607B68F2
S11311A03A689A64BD4602B080BDC04680B582B03C
S11311B000AF786039607B68DA6C3B681A437B68FF
S11311C0DA64BD4602B080BD80B500AF00F00AF815
S11311D000F020F800F050F800F0B4F800F0F8F84F
S11311E0BD4680BD80B500AF084B084A1268032194
S11311F08A431A60054B054A12680C218A431A6017
S1131200034B181CFFF750F8BD4680BD00800C400E
S113121000366E0180B500AF01200421FFF792FB78
S11312200F4B181C0121FFF705FA0E4B181C012166
S1131230FFF700FA0C4B181C0321FFF783FB0B4B41
S1131240181C0121FFF7F6F9094B181C0121FFF7BF
S1131250F1F9084B181C0121FFF7ECF9BD4680BDDC
S1131260408104000023020003001C0070071600E4
S1131270003204000072040090B589B000AF082366
S1131280FB182E4A13CA13C313CA13C30823FB182B
S1131290962292019A600823FB1805225A730823A8
S11312A0FB180022DA810823FB18802252011A82DB
S11312B00823FB1800221A730823FB1800229A74CF
S11312C00823FB180022DA740823FB1800221A757D
S11312D01B4A0823FB18101C191CFFF74DFE3B1D6D
S11312E000221A703B1D00225A703B1D00229A7086
S11312F03B1D0022DA703B1D00225A703B1D002268
S11313009A703B1D0022DA700D4A3B1D101C191CFB
S1131310FFF76EFE0A4B181C0421FFF73BFF084B36
S1131320181C0421FFF742FF0820FFF703FF0820E1
S1131330FFF7EAFEBD4609B090BDC046906C0000C0
S113134000C4004090B585B000AF3B1C1E4A13CAD0
S113135013C312681A603B1C05221A703B1C9622A8
S113136092019A603B1C00221A733B1C00225A73A0
S11313703B1C00229A73154A3B1C101C191CFFF7D6
S1131380EBFC124B181C0021FFF74AFD0F4B181CF5
S11313900021FFF769FD0D4B181C0421FFF7E0FE47
S11313A00A4B181C0421FFF7E7FE0A20FFF7C2FED0
S11313B00A20FFF7A9FE054B181C0521FFF790FC36
S11313C0BD4605B090BDC046A86C00000040084072
S11313D080B500AF394B394A526D01210A435A6531
S11313E0364B364AD26C0F218A4304210A43DA640D
S11313F0324B324AD26CF0218A4320210A43DA6408
S11314002E4B2E4A526D802149000A435A652B4BBC
S11314102A4A126D0F218A4302210A431A65274B77
S1131420264A526D802189000A435A65234B234A78
S1131430126DF0218A4320210A431A651F4B1F4A6B
S1131440126D1F490A408021C9000A431A651B4BCB
S11314501A4A526D802109010A435A65174B174AEB
S1131460126D18490A408021C9010A431A65134BB9
S1131470124A926F10210A439A67104B0F4A126F57
S113148011490A408021C9020A431A670B4B0B4ACF
S1131490126F0E490A40802189030A431A670C4BD4
S11314A00B4A526D03210A435A650A4B094A526D8D
S11314B003210A435A65BD4680BDC0460060004012
S11314C0FFF0FFFFFF0FFFFFFFFFF0FFFFFF0FFF26
S11314D00040084000C40040B0B582B000AF021C18
S11314E03960FB1D1A70FB1D1B787F2B2FD92D4CE7
S11314F0FB1D1B781A1C0F231340083B9908294A2B
S1131500FB1D1B78181C0F230340083B9B08063364
S11315109B00D3185B68FA1D1278101C032202404A
S1131520D200101CFF228240D2431A403B689B0128
S1131530FF200340F81D0078051C03202840C0004C
S113154083401A438B1D9B00E3185A6026E0164C17
S1131550FB1D1B785BB29B081349FA1D127852B22B
S11315609208C03292005258F91D0978081C0321D0
S11315700140C900081CFF218140C94311403A6859
S11315809201FF200240F81D0078051C032028402A
S1131590C00082400A43C0339B001A51BD4602B0CA
S11315A0B0BDC04600ED00E000E100E080B582B0CF
S11315B000AF78607B68013B0C4A934201D9012358
S11315C010E00B4B7A68013A5A6001235B42181C05
S11315D00321FFF781FF064B00229A60044B072288
S11315E01A600023181CBD4602B080BDFFFFFF0037
S11315F010E000E080B582B000AF786039607B68AD
S11316001A683B68DA40131C01221340181CBD46BB
S113161002B080BD80B582B000AF021C3960FB1DF2
S11316201A70FB1D1B78002B0DD0FB1D1B78012BA2
S113163009D0FB1D1B78022B05D0FB1D1B78032B47
S113164001D0FB1D1B78FB1D1A78131CDB009B18B3
S11316509B001C33054A9A183B68101C191CFFF7A1
S1131660C9FF031C181CBD4602B080BD00600040C9
S113167080B582B000AF021C3960FB1D1A70FB1DDF
S11316801B78002B0DD0FB1D1B78012B09D0FB1DF3
S11316901B78022B05D0FB1D1B78032B01D0FB1DEF
S11316A01B780949FB1D1A783B6801209840031CEC
S11316B0181C131CDB009B189B00CB1810335860BC
S11316C0BD4602B080BDC0460060004080B582B017
S11316D000AF021C3960FB1D1A70FB1D1B78002B28
S11316E00DD0FB1D1B78012B09D0FB1D1B78022B91
S11316F005D0FB1D1B78032B01D0FB1D1B7809496A
S1131700FB1D1A783B6801209840031C181C131C0D
S1131710DB009B189B00CB1810331860BD4602B049
S113172080BDC0460060004080B500AFBD4680BDAE
S113173080B500AF034B1B685A1C024B1A60BD46B0
S113174080BDC046D400002080B584B000AF78606E
S1131750064B1B68FB60C046044B1A68FB68D21A30
S11317607B689A42F8D3BD4604B080BDD400002003
S113177080B584B000AFF860B9607A601AE0FB68A5
S1131780002B0AD07B685A1C7A601B781A1CFB68F1
S1131790181C111CFFF7A4FC0CE0BB68002B09D03B
S11317A07B685A1C7A601B781A1CBB68181C111CB5
S11317B0FFF71CFB7B681B78002BE0D1BD4604B00F
S11317C080BDC04680B582B000AF0B4BDB6A0422FB
S11317D013400DD0084B181CFFF7F6FA021CFB1D32
S11317E01A70FB1D1B78054A101C191CFFF778FCA6
S11317F0BD4602B080BDC0460040084000C4004061
S113180080B582B000AF224B1B6C042213403BD046
S11318101F4B181CFFF752FC021CFB1C1A701D4BBB
S11318201B681D4AF91C0978D1541A4B1B685A1CB1
S1131830184B1A60FB1C1B780A2B25D100237B60F4
S113184015E07B680133144AD15C134A7B68D318D2
S11318500A1C1A70104A7B68D3181B781A1C0F4B89
S1131860181C111CFFF7C2FA7B6801337B60094B1B
S11318701B685A1E7B689A42E3DC074B181C00F075
S11318802DF9044B00221A60BD4602B080BDC0464B
S113189000C40040D0000020800100200040084027
S11318A0B0B588B000AF786039601823FB18181CF5
S11318B00021032202F04AFE0C23FB18181C00210D
S11318C0092202F043FE1823FA187B68101C191C25
S11318D0022202F076FE7B689C1C7B68181C02F0D6
S11318E069FE031C023B0C22BA18101C211C1A1C92
S11318F002F067FE1823FB18181C02F0E5FD031C18
S11319000C1C181C211C02F0F7FB031CFB610C23AC
S1131910FB18181C02F0D8FD031C0C1C181C211CFD
S11319200022164B01F026FA031C0C1C251C1C1C5F
S1131930F86902F08DFB021C0B1C101C191C221CE4
S11319402B1C00F0EFFE031C0C1C181C211C02F0C5
S1131950D3FB031CFB613A68094B101C191C02F0F1
S11319601FFE031E04D1FB6980221206534000E0CF
S1131970FB69181CBD4608B0B0BDC04600004E400F
S1131980B86C0000B0B588B000AF78603960182337
S1131990FB18181C0021042202F0D8FD0C23FB18AC
S11319A0181C0021092202F0D1FD1823FA187B68C3
S11319B0101C191C032202F004FE7B68DC1C7B68EB
S11319C0181C02F0F7FD031C033B0C22BA18101C70
S11319D0211C1A1C02F0F5FD1823FB18181C02F038
S11319E073FD031C0C1C181C211C02F085FB031C3A
S11319F0FB610C23FB18181C02F066FD031C0C1C75
S1131A00181C211C0022164B01F0B4F9031C0C1CF9
S1131A10251C1C1CF86902F01BFB021C0B1C101C6F
S1131A20191C221C2B1C00F07DFE031C0C1C181C12
S1131A30211C02F061FB031CFB613A68094B101C7A
S1131A40191C02F0ADFD031E04D1FB6980221206AD
S1131A50534000E0FB69181CBD4608B0B0BDC04649
S1131A6000004E40BC6C000080B586B000AFF8604A
S1131A70B9603B60FB1D1A7000237B61FB68BA6888
S1131A801A60FB680433FB607B6901337B611BE0F4
S1131A90BB681B78FA1D12789A4212D1BB680022E7
S1131AA01A70BB685A1CFB681A60FB680433FB603D
S1131AB07B6901337B617A693B689A4201DB7B690C
S1131AC007E0BB680133BB60BB681B78002BDFD128
S1131AD07B69181CBD4606B080BDC04690B593B066
S1131AE000AF78600823FA187B68101C191C2C229C
S1131AF00D23FFF7B9FF031E0D2B00D005E10823CA
S1131B00FB181A68824B101C191C02F049FD031EB5
S1131B1007D0804A804B0020111C1A1CFFF728FEB6
S1131B20F3E00823FB189A687C4B101C191C02F084
S1131B3037FD031E43D17A4B01221A700823FB1888
S1131B40DB69181C02F0C0FC031C0C1C181C211CB3
S1131B50744A754B01F032FC031C0C1C181C211C2C
S1131B6002F0CAFA021C714B1A600823FB181B6AA4
S1131B70181C02F0A9FC031C0C1C181C211C02F0EC
S1131B80BBFA021C6A4B1A600823FB18DA680823A4
S1131B90FB181B69101C191CFFF782FE021C654B05
S1131BA01A600823FB185A690823FB189B69101C48
S1131BB0191CFFF7E7FE021C5F4B1A6015E00823AF
S1131BC0FB189A685D4B101C191C02F0E9FC031EFB
S1131BD00BD1534B00221A70564B00221A60564BFD
S1131BE000221A60514B00221A600823FB185B681C
S1131BF0063300221A700823FB185B68181C02F0D5
S1131C0063FC031C0C1C181C211C00F055FA031C5B
S1131C107B647B6C181C4A4900F09EF9031C1A1C57
S1131C204323FB181A707B6C181C454900F01AFA00
S1131C300B1C181C642100F08FF9031C1A1C42238E
S1131C40FB181A707B6C181C3D4900F00BFA0B1C36
S1131C50181C642100F006FA0B1C1A1C4123FB1803
S1131C601A700823FB185B6A181C02F02DFC031C75
S1131C700C1C181C211C00F01FFA031C7B647B6CD9
S1131C80181C2F4900F068F9031C1A1C4023FB1888
S1131C901A707B6C181C2A4900F0E4F90B1C181C00
S1131CA0642100F059F9031C1A1C3F23FB181A7015
S1131CB07B6C181C224900F0D5F90B1C181C6421FC
S1131CC000F0D0F90B1C1A1C3E23FB181A701D4B94
S1131CD03E22BA1812781A701B4B3F22BA18127897
S1131CE01A701A4B4022BA1812781A70184B4322F1
S1131CF0BA1812781A70174B4222BA1812781A704E
S1131D00154B4122BA1812781A70BD4613B090BD13
S1131D10C06C000000400840C86C0000D06C00009B
S1131D205A0100206F1283C0CAA1FD3F2401002084
S1131D30000200207801002070010020D46C000013
S1131D401027000074010020220100207C010020E3
S1131D506B0100205B0100207501002080B584B078
S1131D6000AF78603960386800F074FC031CFB60D5
S1131D70F86800F08FFC031C3868191C00F0ECFABA
S1131D80031C181C084900F0B5F9031C181C00F0CA
S1131D9061FC031CBB6078680449FA68BB6802F004
S1131DA0DDFBBD4604B080BD00247449D86C00003E
S1131DB0B0B582B002AFFFF7B7FCFFF705FA534B9B
S1131DC0181CFEF789FC031C181CFA23990000F068
S1131DD0C3F8031C181CFFF7E9FB031E00D0FEE741
S1131DE04B4A4C4B101C00211A1CFFF7C1FC02206B
S1131DF00821FFF70FFC031E6DD102200A21FFF713
S1131E0065FCFA235B00181CFFF79EFC02200A21E4
S1131E10FFF72EFC404B1B68404A101C191CFFF7AF
S1131E209DFF3F493F4A3D4B081C111C1A1C02F000
S1131E3095FB3D4A3A4B0020111C1A1CFFF798FCF5
S1131E403A4B1B68354A101C191CFFF787FF3449AD
S1131E50374A324B081C111C1A1C02F07FFB324A11
S1131E602F4B0020111C1A1CFFF782FC314B1B78EE
S1131E701D1C314B1B781C1C304B1B78FA22D200E2
S1131E809446634426492E4A0093081C111C2A1CBC
S1131E90231C02F063FB244A214B0020111C1A1C52
S1131EA0FFF766FC274B1B781D1C274B1B781C1C5B
S1131EB0264B1B78191C1A4A254B0091101C191C1F
S1131EC02A1C231C02F04AFB174A154B0020111C44
S1131ED01A1CFFF74DFC02200921FFF79BFB031E90
S1131EE013D102200B21FFF7F1FBFA235B00181C2E
S1131EF0FFF72AFC02200B21FFF7BAFB0A4A154B15
S1131F000020111C1A1CFFF733FC70E7500002007C
S1131F1000C40040E06C0000780100205C01002057
S1131F2028010020146D00000040084070010020CA
S1131F30206D00007C01002022010020740100209B
S1131F402C6D00006B0100205B0100207501002056
S1131F503C6D00004C6D0000002243088B4274D39A
S1131F6003098B425FD3030A8B4244D3030B8B4296
S1131F7028D3030C8B420DD3FF22090212BA030C9F
S1131F808B4202D31212090265D0030B8B4219D380
S1131F9000E0090AC30B8B4201D3CB03C01A5241A0
S1131FA0830B8B4201D38B03C01A5241430B8B42E8
S1131FB001D34B03C01A5241030B8B4201D30B03D1
S1131FC0C01A5241C30A8B4201D3CB02C01A5241F8
S1131FD0830A8B4201D38B02C01A5241430A8B42BB
S1131FE001D34B02C01A5241030A8B4201D30B02A4
S1131FF0C01A5241CDD2C3098B4201D3CB01C01ABE
S1132000524183098B4201D38B01C01A52414309C7
S11320108B4201D34B01C01A524103098B4201D3B5
S11320200B01C01A5241C3088B4201D3CB00C01A22
S1132030524183088B4201D38B00C01A524143089A
S11320408B4201D34B00C01A5241411A00D20146BF
S1132050524110467047FFE701B5002000F00CF82C
S113206002BDC0460029F7D003B5FFF775FF0EBCCB
S11320704243891A1847C0467047C0461C210123B1
S11320801B04984201D3000C10391B0A984201D357
S1132090000A08391B09984201D30009043902A235
S11320A0105C40187047C04604030202010101019C
S11320B0000000000000000038B500220C4B041C96
S11320C00D1C02F0DDF8002804D1201C291C01F0AD
S11320D089FF38BD064B0022201C291C01F008FC96
S11320E001F080FF80231B069C466044F1E7C04654
S11320F00000E041F0B55F4656464D464446F0B414
S113210045024600C40F83B00F1C6D0A360EA34669
S113211045D0FF2E25D080231B041D4300239A465F
S1132120ED007F3E01937B025B0A98467800FB0F2B
S1132130000E994640D0FF2838D0802342461B0425
S11321401343DB00984600237F384A46019F30182A
S11321506240411C1F430F2F69D87D4EBF00F659C2
S1132160B746002D45D108230193063B9A46DAE78A
S113217093465346022B2FD15B46012400251C4075
S1132180FF236D02DB056D0AE4071D432543281C6C
S113219003B03CBC90469946A246AB46F0BD002D28
S11321A02CD104230193033B9A46BCE743465A428D
S11321B053410322D31AC8E742460123002AC4D05C
S11321C04046FFF75BFF4246431F9A4076235B423B
S11321D0181A90460023B8E7032B00D1ADE0012B79
S11321E000D08CE05B4654461C40E4B2002300253A
S11321F0C7E70C230193093B9A4694E7281CFFF791
S11322003DFF7626431F9D4000237642361A0193F4
S11322109A4688E780250024ED03FF23B1E745466D
S1132220CB469A46A5E7454693469A46A1E74346D8
S11322302C041B0C9C46230C444626041C1C360C04
S11322402F0C7443351C66467D4373437743EB1868
S1132250260C9E19B54203D980235B029C46674431
S113226024043304240C1B199D016C1EA5419B0EF0
S1132270360C2B43BD19AD011D432B0104D501239D
S113228068081D400543081C031C7F33002B2CDD0C
S1132290690704D00F212940042900D004352901FD
S11322A003D52C4B1D40031C8033FE2B17DD01246A
S11322B0FF231440002564E78020C003054209D0B1
S11322C04346034206D1454605436D026D0A4C461A
S11322D0FF2356E705436D026D0AFF2351E70124EE
S11322E0AD016D0ADBB214404BE77E235B421B1A3F
S11322F01B2B07DD012400231440002541E7081CA3
S11323005A46C1E79E30291C8540D940681E854144
S11323100D436B0704D00F232B40042B00D004354E
S11323206B0104D5012401231440002529E701246D
S1132330AD016D0A1440002323E78023DB031D4312
S113234001245B466D0223401C1C6D0AFF2318E721
S1132350606D0000FFFFFFF7F8B54A004302440038
S11323604D02C00F240E061C9B09120EC90FAD09A5
S1132370FF2A00D175E001277940884250D0A01A85
S1132380002800DC8FE0002A1ED1002D00D075E06B
S11323905A0704D00F221A40042A00D004338022A2
S11323A00120D2041A403040002A32D00134FF2CDC
S11323B000D184E09B015B0AE4B25B02E4055B0AA2
S11323C02343C0071843F8BDFF2CE1D08022D20478
S11323D015431B287ADD01255B1B5A015DD59B0142
S11323E09F09381CFFF74AFE05388740844269DCA0
S11323F0001B1F243A1C431C201ADA408740131C7C
S11324007C1EA74100243B43C2E7131E45D1002391
S11324100020DB08FF2C28D05B025B0AE4B2CCE787
S1132420A11A00295BDD002A2ED0FF2CB0D0802217
S1132430D20415431B2974DC2F1C2022CF40511ACF
S11324408D40691E8D413D435B195A0125D50134E8
S1132450FF2C74D001217E4A194013405B080B43C2
S113246096E7002D00D088E785E7002B27D080224F
S1132470D20313435B025B0AFF249EE70138002862
S1132480AAD0FF2CA5D183E7002D00D180E7013924
S11324900029D9D0FF2CCDD17AE75A0700D079E7AB
S11324A001203040B5E7002825D1621CD2B2012AB0
S11324B055DD5F1B7A012DD5EF1A0E1C91E7FF2421
S11324C000237AE7624B241A3B4061E7291C20224F
S11324D0C140101A8540681E85410D437CE70029E0
S11324E046D1621CD1B201292BDDFF2A26D0EB187C
S11324F05B08141C4CE7002C15D0FF2A1AD080244A
S1132500E404404223431B284DDD0123EB1A141C31
S11325100E1C62E7002F00D063E700230020002494
S113252077E7012590E7002B39D0C0430028EDD090
S1132530FF2AE8D12B1CFF240E1C29E7FF240023CB
S113254067E7002C5AD1002B7FD0002D00D11FE764
S11325505B195A01A1D53E4A0134134018E7002CF7
S113256015D1002B2FD1002D5ED02B1C0E1C0FE794
S1132570002C21D1002B54D0C943002904D0FF2AB8
S11325804CD01B2958DD01235B19141C5DE7002B7B
S113259023D1002D4BD02B1C0E1CFF24F8E62B1C42
S11325A0141C0E1CF4E61E1C2024C640201A834072
S11325B0581E83413343A9E7FF2A2FD08024E40423
S11325C049422343DDE7002D00D1E1E65A1B5001C7
S11325D000D41AE7EB1A0E1CDAE6FF24002D00D112
S11325E0D6E68022DB08D203134204D0ED0815425C
S11325F001D12B1C0E1CDB00FF24C9E6002B0DD0DF
S1132600FF24002D00D1C3E68022DB08D20313424D
S1132610F1D0ED081542EED12B1CECE72B1CFF2466
S1132620B6E62B1C141CB3E6231C0020F1E6802321
S113263000209B04FF24ECE61F1C2024CF40611AD9
S11326408B40591E8B413B439EE72B1CA0E6C046A2
S1132650FFFFFFFB4202510A4200C30F120E00208B
S11326607E2A0DDD9D2A0CDC802000040143952A7E
S11326700ADC9620821AD1400A1C58424240D018E3
S11326807047034A9818FBE7963A91400A1CF4E70E
S1132690FFFFFF7F70B5041E39D0C50F00D0444240
S11326A0201CFFF7EBFC9E23261C1B1A962B07DC31
S11326B0082801DD083884406402640AD8B21EE0A8
S11326C0992B0ADD0522211C121AD1400A1C011C77
S11326D01B318E40711E8E411643052801DD421FB9
S11326E096400F4C3440720704D00F221640042E3B
S11326F000D0043462010ED4A401640AD8B2640286
S1132700C005640AED0704432C43201C70BD00255A
S113271000200024F3E7024B1C409F231B1AEBE725
S1132720FFFFFFFBF0B5454657464E4694464C0026
S11327300A03C90FE0B488460E1C1903470FC500ED
S1132740480A6146490F01436046520A1743C000D4
S11327505A00640D520DDB0F8446984500D1A7E062
S1132760A01A002800DC01E1002A3DD163460B4396
S113277000D0D4E06B0700D188E00F232B40042B5A
S113278000D183E02A1DAA42AD4180236D427F1906
S11327901B043B404646151C002B00D17CE0CC4B6F
S11327A001349C4200D1FDE03A1CCA4BED081A40AA
S11327B05007640552020543120B640D00211203F5
S11327C00B0D1B056405120B1A436308C24CF60774
S11327D014401C43640064083443281C211C1CBCA2
S11327E090469946A246F0BDB94B9C42C2D0802384
S11327F01B041943382800DDECE01F2800DD21E12B
S113280020220E1C6346121A9640C3403343664688
S11328109640321C561EB24113430A1CC240EB1AA6
S11328209D42B6411D1CBA1A7642971B3B0200D446
S113283097E07A02560A002E00D1B6E0301CFFF76A
S11328401DFC031C083B1F2B00DDB7E09E40371C1A
S113285028262A1C361AF240161C9D403E439C42F0
S113286000DDB2E01C1B621C1F2A00DDD8E01F2320
S1132870291C1C1B331CA540A340D1406C1EA54140
S1132880D64019430D43371C002473E780231B04EF
S11328903B40464600D082E78D4BED087807054360
S11328A0FA089C4232D012036405120B640D85E7CA
S11328B0A31A002B00DC94E0002A3CD0844A944202
S11328C000D157E7802212041143382B00DC05E1C4
S11328D063461943481E81410022C8B24019A842E8
S11328E09B41051CD2195B42D7183B0239D5784B62
S11328F001349C4200D14CE10120764A6B083A40F5
S113290028401843D5070543570833E72B1C1343C6
S113291048D080231B031A431203120B4EE70138DD
S1132920002878D16346EE1AB5429B417A1A5B427D
S1132930D71A351C7AE7021C0A4300D11AE7013B77
S1132940002B00D0F2E04019A8429B41CA195B4217
S1132950D718051CC9E7131C334300D118E1171C11
S1132960351C46466B0700D007E795E700287AD167
S1132970621C5205520D012A00DCFBE06246AA1AD1
S11329809542B6419146781A7242861A320200D4B0
S113299093E06246551BAC458041CF1B40423E1A32
S11329A0984648E70022002508E7281CFFF766FB45
S11329B02030031C083B1F2B00DC47E728388540E8
S11329C02E1C00259C4200DC4CE7424AE41A1640C7
S11329D0371CCFE6634619434B1E99410022CBB204
S11329E01DE7002B00D0F2E0601C43055B0D012BBA
S11329F000DCA4E0364B984200D121E163465C1927
S1132A00AC429B41CF195B42FA186408D5072543B1
S1132A105708041CAEE62E4B9C4200D0EAE6A9E619
S1132A20211C331C1F39CB40191C202A00D182E001
S1132A303F231C1BA64035436E1EB54100270D43A2
S1132A4000248EE7031C0E1C203BDE40202874D09B
S1132A5040231B1A99400B1C62461343591E8B4199
S1132A6000223343DBE6002C50D0194CA24200D1A3
S1132A70A8E08024240440422743382800DDD9E01C
S1132A801F2800DD39E120243E1C241AA640B0464C
S1132A902E1CA146C640444626434C46A5406C1E07
S1132AA0A541C74035436046451BCF1BAC45894112
S1132AB049427F1A141C9846B8E64B464D463343A8
S1132AC000D0B8E60026002700240025E4E6C0462E
S1132AD0FF070000FFFF7FFFFFFF0F801F2B5BDC62
S1132AE02022081CD21A9040814660469246D84063
S1132AF04A4610438146524660469040021C501E8E
S1132B008241484610430A1CDA40E7E63C1C2C4349
S1132B1058D0C043002851D16046451BAC45804184
S1132B20CF1B40423F1A141C98467FE68F4A9442BA
S1132B3000D0CAE61EE600267DE700238CE73B1C96
S1132B402B43002C00D0BDE0002B00D1F5E0634600
S1132B500B4300D10EE663465B19AB428041CA19B0
S1132B60404217183A0200D4FCE0814A1D1C174069
S1132B700134FFE53A1C2A43002C51D1002A00D02D
S1132B8085E062460A4303D00F1C65469846F1E58A
S1132B900026002700257FE6181C0A1C2038C240A6
S1132BA0202B00D1A7E04020C01A8140081C6346B6
S1132BB01843411E8841104300228FE66B4CA24209
S1132BC000D05AE70F1C6546141C9846D2E5002C29
S1132BD03AD1381C284371D0DB43002B18D063480A
S1132BE082426BD0382B00DD9DE01F2B00DDA7E077
S1132BF020203C1CC01A8440A1462C1C8246DC4088
S1132C004846044350468540681E8541DF402543BD
S1132C10654465459B417F185B42FF18141C64E6BC
S1132C20002A19D162460A4377D00F1C654698469C
S1132C304E4C9FE53D436F1EBD410027EDB232E788
S1132C40041C0027002527E64848824236D080200D
S1132C5000045B420743C5E762460A4349D0802427
S1132C60ED087807FA0824032843224209D0CE0845
S1132C70264206D162464F07381CD20810439846B4
S1132C80321CD200470F1743C500384C72E5624628
S1132C900A4300D16EE56246AE1AB5429241781AF3
S1132CA05242821A100200D455E66246551BAC45C6
S1132CB08041CA1B4042171A98465BE50F1C6546C3
S1132CC0141C57E5002B34D063460B4311D08024E9
S1132CD0ED087807FA08240328432242D1D0CB0810
S1132CE02342CED162464F07381CD20810431A1C27
S1132CF0C7E71E4C3EE5002059E7041C3E1C203C5F
S1132D00E640341C20282BD04026301A87403D430F
S1132D106F1EBD4100272543C5E680270026FF031B
S1132D20124C0025B8E53D436F1EBD410027EDB2AE
S1132D306EE70F1C65460D4C1CE50F1C654619E536
S1132D401C1C381C203CE040041C202B0CD04020D0
S1132D50C31A9F403D436F1EBD410027254357E7DB
S1132D600027D4E71D1CFCE50027F3E7FF0700005C
S1132D70FFFF7FFFF0B55F4656464D464446F0B42C
S1132D800F0387B098464D003B0BCC0F061C9246B0
S1132D9081469B466D0D01946BD0664B9D4235D0A8
S1132DA080275B467F031F43F3009946624BFF0075
S1132DB0400F9C4607430023BB460026654400930E
S1132DC0424617035000D20F53463F0B400D904626
S1132DD000D172E0574A904267D080235B031F43BF
S1132DE05346554A5B0FFF001F4394465346002148
S1132DF0DB0060444246624092462D1A0E430F2E79
S1132E0000D9A1E04D48B600805987465B461E4371
S1132E1000D076E000239B469946023308260093AF
S1132E20CEE799464346BB4601930091009B022B93
S1132E306BD1019B9A460021534601220027894603
S1132E401A403C4B00213F030C0D24053F0B274344
S1132E503B4C1B0527401F437F00D2077F081743C5
S1132E604846391C07B03CBC90469946A246AB463E
S1132E70F0BD03433ED05B46002B00D19CE1584695
S1132E80FFF7FCF82823311C1B1A021C5F46D940AB
S1132E90083A97400B1C96403B439B46B14600239F
S1132EA0284D00262D1A00938AE7524603213A43FF
S1132EB0A0D10027002302219CE752463A4315D0B3
S1132EC0002F00D185E1381CFFF7D8F8021C282117
S1132ED05046891A131CC8405146083B99409F40EC
S1132EE00B1C074317480021801A83E7002700239F
S1132EF001217FE700239B46994601330426009372
S1132F005EE703230C2600935AE7032B00D13CE22F
S1132F10012B00D0BFE11A1C019B1A4000210023A1
S1132F20002789468EE700238027994600223F0325
S1132F30004B87E7FF07000001FCFFFFA06D0000C6
S1132F40FFFF0F800DFCFFFFBB4500D951E100D10D
S1132F504CE14A46039200225C469046013D180E1D
S1132F603F0238431B020193030C994603041B0CD4
S1132F704946061C201C1F1C0093FEF7EDFF021C93
S1132F807A4302904946201C171CFFF76BF8039BF9
S1132F9009041B0C19438F420CD9029B8919013B6C
S1132FA08E4200D952E18F4200D84FE1029B891929
S1132FB0023B0293CC1B201C4946FEF7CDFF009F29
S1132FC0834647434946201CFFF74CF8039A0B04F9
S1132FD01404240C23439F420DD95A469B19013AE9
S1132FE09E4200D930E19F4200D82DE10222524294
S1132FF094469B19E344029ADB1B17045A463A434E
S11330009346019C170C220C101C04925A4611047E
S11330102204120C141C090C7C4305924A434143BC
S113302047436118100C09188C4203D980204002D0
S1133030844667440C0C12040804120C3C198118D1
S1133040A34200D2E5E000D1DFE01F1B43465C1A37
S1133050A04592415242BF1AB74200D10EE1381C3A
S11330604946FEF779FF009B029043434946381CCA
S11330709846FEF7F7FF230C0F041F43B8450CD9FD
S1133080029BBF19013BBE4200D9FBE0B84500D802
S1133090F8E0029BBF19023B02934346FF1A4946DC
S11330A0381CFEF759FF009B039043434946381CE4
S11330B09846FEF7D7FF24040904240C21438845CD
S11330C00CD9039B8919013B8E4200D9DCE0884569
S11330D000D8D9E0039B8919023B03934346C91ADC
S11330E0029B039A1B04059C1A43100C130491467B
S11330F0221C049F1B0C5A4344437B437843E3182C
S1133100170CDB199C4203D980246402A446604452
S11331101C0C12041B04120C00199B18814200D2CF
S113312096E000D1FCE04A4601231A4391469B4BAA
S1133130EB18002B00DC99E04A4652070AD00F2214
S113314049460A40042A05D004314945924189463A
S1133150524293445A46D20106D55A46904B1A40DD
S113316080239346DB00EB188E4A934200DD62E62F
S11331704A465946D208490711435A4689465702D6
S1133180514601225B053F0B5B0D0A405AE6802045
S11331905A460003024208D0074206D107433F03C0
S11331A099463F0B4246804B4CE65F4607433F033C
S11331B03F0B221C7C4B45E6FEF760FF031C2030CE
S11331C0272800DC5EE6083B9E400023B346994670
S11331D065E65046FEF752FF021C2032272A00DC27
S11331E075E657460838874000237BE6994500D2A8
S11331F0AFE65A46594654084A46C807520802439D
S113320003924A46D2079046A9E60027884500D390
S11332101CE7019F5A46BC46E044B845BF417F4283
S1133220BF19FF18013ABE4206D2BC425FD800D192
S11332309FE03F1B934609E7B742FAD1019B434500
S1133240F3D9371B934601E79346D4E60293B1E6DC
S11332504A468919013A8E4218D99146814200D0D2
S113326061E7019A9A4200D05DE760E74F4F7F1B08
S1133270382F13DD012253461A404FE601235B42E7
S1133280994654E7029308E7039327E788423CD81A
S113329074D0914647E7019B9A4648E71F2F44DCC8
S11332A0434B4A469C465B466544FA40AB40134355
S11332B04A46AA40151C6A1E95415A46FA402B43B9
S11332C0171C5A0709D00F221A40042A05D01A1DC8
S11332D09A429B415B42FF18131C3A023ED5534667
S11332E0012200211A40002701238946AAE502236E
S11332F05B429C46019AE3449446E04490459B41DA
S11333005B429B19DF193F1BA0E6019F4A467C00E4
S1133310BC42BF417F42BF19023AC91901949CE7DC
S1133320002B95D1002201929BE75A46214B5B1B4F
S1133330DA40202F27D0204B9C465B466544AB40A7
S113334049460B43591E8B411343072200271A4059
S113335007D00F2200271A40042AB8D17A077F0227
S11333603F0BDB0813439946012253461A400023BE
S113337068E54145BBD89346002767E6019C9C421B
S1133380C3D391466DE70023DAE780275B463F030A
S11333901F433F033F0B019A034B53E5FF03000018
S11333A0FFFFFFFEFE070000FF07000002FCFFFF17
S11333B01E040000E2FBFFFF3E040000F0B55F4680
S11333C056464D464446F0B4051C061C080387B017
S11333D099464F00030BCC0F92469B467F0D0194F8
S11333E067D06C4B9F4236D080205B464003184325
S11333F0C0006B0F1843684B83469C4600239846D5
S1133400EE00674400934B4649461D03C90F5B0019
S113341052462D0B5B0D894600D16EE05D498B420F
S113342064D080205C4940038C4600210543ED00B4
S1133430500F0543D20063444846FF187B1C9A464C
S1133440009B604002900B430F2B00D9ACE0534823
S11334509B00C3589F465B461D4300D082E008236F
S1133460009300239B46023300269846CBE7029B39
S113347001934346022B59D1012400250026019BC8
S11334801C40444B00212D030A0D12052D0B15433E
S1133490434A1B0515401D436D00E4076D08254391
S11334A0301C291C07B03CBC90469946A246AB464A
S11334B0F0BD2B434ED05B46002B00D185E158462E
S11334C0FEF7DCFD021C2823291C9B1A161C5846F7
S11334D0D940083EB0400B1CB54003439B462E1C0C
S11334E00023304F0093BF1A98468CE75146294376
S11334F02ED10025002202219EE75146294323D0E4
S1133500002D00D154E1281CFEF7B8FD031C28212E
S11335105046C91A1A1CC8405146083A9140954071
S11335200A1C05431F480021C31A85E7032B00D159
S1133530C2E1012B00D06DE14446019B00251C40F3
S1133540E4B2002300269DE700250022012173E751
S1133550032171E70423009300239B4601330026D3
S1133560984650E70C230093093B98464BE7802587
S113357000242D030026074B84E74B46AB46161C5C
S11335800193884675E7029BAB46161C0193884657
S11335906FE7C046FF07000001FCFFFFE06D00007D
S11335A0FFFF0F800DFCFFFF330C3604360C9C46E6
S11335B0331C140C1204120C5343984663465343B1
S11335C09946634663430193331C41466343090CA4
S11335D04B445B18994505D98020400281460199E6
S11335E049440191190C039141460904090C1B0437
S11335F05B1804932B0C9846331C2D04290C4B4365
S1133600604600934346654658435E43009B4D43E2
S11336101B0C9946AE194E448446B54203D9802307
S11336205B029946CC44350C2B1C039863448446B6
S11336300593009B36041B041B0CF3189C44604642
S1133640039058460504060C280C84465043351C48
S113365081466046654344434846000C83467243B2
S113366014195C44A24203D98022520293465D4459
S1133670220CAD184A461204120C24044046A41825
S113368062464A4371434643604600964646704349
S11336908046100C84468844E044414505D9802185
S11336A049028C460099614400910198039984462B
S11336B0614499429B415B4299460598434684463E
S11336C01204120C1B049B1863449C46AB468342B1
S11336D09B4140460A19CC44A2428941E344CC456B
S11336E0B6415C46000C8046494276425B4264180F
S11336F0334398448C428941AB459B4149425B42E8
S113370019430D1C009B4544EE187602E50D2E432B
S1133710B346049B56021E43731E9E415B46D20D64
S1133720324366021643DB010AD50123334076088F
S11337301E435B46DB071E435B465B089B465746BE
S1133740634BFB18002B5ADD720709D00F2232405D
S1133750042A05D0321DB242B6417642B344161C47
S11337605A46D20106D55A465A4B1A4080239346EC
S1133770DB00FB18584A934234DD0124029B0025E8
S11337801C400026554B7DE680205B460003034227
S113379008D0054206D105432D032D0B4C46161CBB
S11337A04E4B6FE65D4605432D032D0B4B4B69E6EF
S11337B05046FEF763FC031C2033272B00DCA6E6EF
S11337C05546083885400022ACE6281CFEF756FC16
S11337D0021C2032272A00DC75E6083885400026C2
S11337E0AB467DE65A46F608520716435A4601246C
S11337F05502029A5B052D0B5B0D144042E6384DD1
S1133800ED1B382D0ADD0124029B00251C400026F7
S1133810002337E6019B5746029391E71F2D25DCD1
S1133820304B321C9C466744BE405B46BB40371C51
S1133830EA407E1EB74113433B431E1C5B46EB40EC
S11338401D1C730709D00F233340042B05D0331DEF
S1133850B342B6417642AD191E1C2B0220D5012479
S1133860029B00251C40002601230BE65A461E4BF2
S1133870DB1BDA40131C202D1CD01C4A94465A46EC
S11338806744BA40171C3E43721E96411E430723E9
S11338900025334007D00F2300253340042BD6D115
S11338A06B076D022D0B0124F6081E43029B1C407E
S11338B00023E7E50027E6E780255B4601242D0386
S11338C01D43019B2D0323401C1C2D0B034BD9E5E9
S11338D0FF030000FFFFFFFEFE070000FF070000DC
S11338E002FCFFFF1E040000E2FBFFFF3E04000099
S11338F0F0B54D4644465F465646F0B40E1C111CC6
S11339003203520A470F1743C5001A035800DB0F4E
S11339109946520A4B0F83B01A43CB000193CF4B05
S11339207400F60F640DB046400D984200D1E8E0F3
S11339300123494659400B1C9E4200D1B1E0261A8E
S1133940002E00DC1CE1002842D1131C01990B431A
S113395000D0E6E06B0700D18EE00F232B40042B50
S113396000D189E02A1DAA42AD41802301264146A7
S11339706D427F191B043B400E40151C002B00D1E7
S113398083E0B64B01349C4200D116E13A1CB44B9F
S1133990ED081A405007640552020543120B640DEA
S11339A0002112030B0D1B056405120B1A43630857
S11339B0AC4CF60714401C43640064083443281CD0
S11339C0211C03B03CBC90469946A246AB46F0BDD0
S11339D0A24B9C42BED080231B041A43382E00DD28
S11339E003E11F2E00DD3FE12020831B9946131CB9
S11339F049468B409C46019B6046F3400343019833
S1133A00F2408840011C481E81410B43EB1A9D4241
S1133A1080411D1CBA1A4042171A3B0200D4A8E088
S1133A207A02560A002E00D1CAE0301CFEF726FBAB
S1133A30031C083B1F2B00DDCBE02822291C121A93
S1133A40D1409E400A1C9D4032439C4200DDC8E0A8
S1133A501C1B671C1F2F00DDEDE01F23291C1C1BF2
S1133A60131CA540A340F9406C1EA541FA4019431C
S1133A700D43171C00246DE78023012642461B04D6
S1133A803B401640002B00D07BE7744BED087807D1
S1133A900543FA089C423BD012036405120B640DE3
S1133AA07EE7231A9A46002B00DCA5E0002844D0C8
S1133AB06A48844200D14DE7802000040243534603
S1133AC0382B00DC1CE1019B1A43511E8A41D1B200
S1133AD000224919A94280410D1CD21940421718ED
S1133AE03B0246D55D4B01349C4200D169E1012083
S1133AF05B4A6B083A4028401843D50705435708EA
S1133B0028E7131C01990B4300D111E74B4613E737
S1133B102B1C134351D080231B031A431203120B93
S1133B203EE7013E002E00D080E0691A8D429B41A1
S1133B30BA1A5B42D71A0D1C6FE7101C019B18437D
S1133B4000D107E701235B429C46E2445346002B25
S1133B5000D002E1019BD2195919A9429B415B4251
S1133B60D7180D1CBCE76346034300D128E1071CAA
S1133B7065466B0700D0F0E6012643461E4084E705
S1133B80002E00D081E0601C4005400D012800DCBF
S1133B9007E10199681A84466545B641B81A764228
S1133BA0861B300200D4A1E08C464D1BAC458941F4
S1133BB0D21B4942561A984634E700220025EFE604
S1133BC0281CFEF75BFA2030031C083B1F2B00DC8B
S1133BD033E7021C283A95402A1C00259C4200DC4D
S1133BE036E71F4FE41A1740B4E6019B1A43511EEF
S1133BF08A41D3B2002209E7002B00D001E1601C06
S1133C0043055B0D012B00DCB0E0144B984200D15E
S1133C101EE1019BD2195919A9429B415B42D2185A
S1133C204908D5070D435708041C93E60B4B9C42E7
S1133C3000D0D3E68EE6211C131C1F39CB40191C7F
S1133C40202F00D18EE03F231C1BA24015436A1E87
S1133C50954100270D4300248BE7C046FF07000071
S1133C60FFFF7FFFFFFF0F80331C101C203BD84059
S1133C70202E79D040239B1B9A40131C019A134396
S1133C80591E8B4100220343C0E6002C53D0C74C7D
S1133C90A04200D1B0E08024714289462404274325
S1133CA04946382900DDCDE01F2900DD59E12024F3
S1133CB03E1C611A8E408A46B04649462E1CCE40B0
S1133CC05146B4468D4064464646494626436C1EDA
S1133CD0A541CF4035430199D71B8C464D1BAC45BC
S1133CE092415242BF1A041C984696E663466546C2
S1133CF0334300D096E60026002700240025C4E6BE
S1133D001F2B61DC2020C31A9B46131C59468B4091
S1133D1051469946019BCB409C464B466046034323
S1133D209C465B46019999406346481E814119436C
S1133D305346DA40CDE63C1C2C435DD0F143894622
S1133D40002955D10199D21B8C464D1BAC458941A4
S1133D504942571A041C98465FE69448844200D0AE
S1133D60ADE6F7E5002271E7002387E73B1C2B4310
S1133D70002C00D0DAE0002B00D113E1131C0199D0
S1133D800B4300D1E6E54919A9429B41D2195B4294
S1133D90D7183B0200D421E1854B0D1C1F40041CA5
S1133DA0D8E5381C2843002C40D1002800D083E0FB
S1133DB0101C0199084303D0171C0D1C9846C9E533
S1133DC000260027002560E65046131C2038C34017
S1133DD0181C5346202B00D1C1E0402351465B1AE6
S1133DE09A40019911434A1E91410022014370E611
S1133DF06E4CA04200D053E7171C019D041C98464A
S1133E00A8E5002C28D13C1C2C4300D18AE0DB43DC
S1133E109A46002B00D082E0019BD2199C4665444F
S1133E209D42894149425718041C59E600285BD138
S1133E30101C0199084300D1A4E0171C0D1C9846DE
S1133E405A4C87E53D436F1EBD410027EDB242E762
S1133E50041C0027002518E6544CA04262D05346A7
S1133E6080245B429A46240427435346382B00DDC2
S1133E708EE01F2B00DD9DE02024E31A9B463B1CB3
S1133E8059468B40514699462B1CCB409C464B4689
S1133E90644623439C465B469D4063466C1EA54195
S1133EA0CF401D43019BBF189C4665449D429241EF
S1133EB05242BF18041C13E6101C0199084300D198
S1133EC048E5681A844685428041BE1A4042301A49
S1133ED0060200D447E68C464D1BAC458941D21BF3
S1133EE04942571A984635E5101C0199084334D0C5
S1133EF080247807ED08FF0824032843274208D0CC
S1133F00D608264205D1C90852070A43101C371C9B
S1133F109846FF00420F1743C500244C1AE5234C72
S1133F20A042A2D1171C019D041C13E5002B35D01F
S1133F30131C01990B4310D080247807ED08FF0867
S1133F40240328432742E4D0D3082342E1D1C908FB
S1133F5052070A43101C1F1CDBE7144CFAE400222E
S1133F603FE74C463E1C203CE6404946341C202991
S1133F7032D04026761AB7403D436F1EBD4100271C
S1133F802543A8E680270026FF03084C00257CE58E
S1133F903D436F1EBD410027EDB283E7171C019D11
S1133FA0024CD7E4171C019DD4E4C046FF0700006F
S1133FB0FFFF7FFF54463B1C203CE3401C1C534640
S1133FC0202B0DD0402351465B1A9F403D436F1E6A
S1133FD0BD410027254365E70027CDE70D1CC8E553
S1133FE00027F3E70B0330B5134C1A0B4B00051CE9
S1133FF05B0DC90F0020A34210DD104883420EDC84
S113400080200F4C40030243E41A1F2C0ADD0D48A4
S1134010C31ADA40131C48424340581830BD0A4BB7
S1134020C818FBE7281CE040084CA44663449A40A7
S1134030131C0343EFE7C046FE0300001D04000009
S11340403304000013040000FFFFFF7FEDFBFFFFBC
S11340504200120E511C38B5C9B243025D0AC40FA6
S1134060012915DDE02189008C466D071B0B624494
S11340700021281C0D0D2D052B431C4D52052B40F2
S1134080520813435B00E4075B082343191C38BD43
S1134090002A15D1002D1FD0281CFDF7EFFF0A2898
S11340A01DDC0B232A1C1B1ADA40131C021C1532BC
S11340B095400F4A1B03121A52051B0B520DD7E7EA
S11340C0002D06D080221B0B120313436D07094AEF
S11340D0CEE7084A0023CBE700220023C8E7031CED
S11340E00B3B9D402B1C0025E3E7C046FFFF0F80E0
S11340F089030000FF07000070B50B034D00440F57
S11341006D0D5B0A23436C1C6405C90FC200640D6A
S1134110012C2ADD3B4C2C19FE2C1ADC002C35DD3D
S11341208001451EA841DB000343520F13435A0785
S113413004D00F221A40042A00D004338022D2046F
S11341401A4027D00134FF2C03D09B015B0AE4B250
S113415001E0FF2400235B02E4055B0A23435B00C8
S1134160C9075B080B43181C70BD002D06D113430F
S11341700ED100245B025B0AE4B2ECE71A43E8D0F8
S11341808020DB0080040343FF24D0E717340CDADB
S113419005230024DB08FF2CECD1002B2DD080223A
S11341A0D20313435B025B0AD5E780241648240438
S11341B02343401B1F280DDC144CA4466544AB402C
S11341C01C1C131CAB405D1EAB41C2402343134374
S11341D00024ACE71E1C0E4C641BE640341C202853
S11341E00DD00C4884466544AB401D1C2A43531E25
S11341F09A41131C2343002499E70023ABE70025CD
S1134200F4E7C04680FCFFFF9E03000082FCFFFF32
S11342107E030000A2FCFFFF8446101C62468C460D
S1134220191C634600E0C0461FB500F0E7F80028FB
S113423001D40021C8421FBD10B500F02BF8404244
S1134240013010BD10B500F0D9F8002801DB0020C2
S113425010BD012010BDC04610B500F0CFF80028F5
S113426001DD002010BD012010BDC04610B500F0D6
S113427055F8002801DC002010BD012010BDC04607
S113428010B500F04BF8002801DA002010BD012021
S113429010BDC046F0B55F464D4644465646F0B4A0
S11342A01F035C00DB0F99461B4B0E034D00C90F27
S11342B08446360B6D0D8B4690463F0B640D9D4234
S11342C00CD0154B9C4210D00123A54214D0181CCD
S11342D03CBC90469946A246AB46F0BD311C012336
S11342E00143F4D10C4B9C42EED13A430123002A02
S11342F0EDD10123A542EAD1BE42E8D1C445E6D1BD
S1134300CB4506D0002DE2D13043031C581E834117
S1134310DDE70023DBE7C046FF070000F0B55746A2
S113432045464E46E0B40F034E00C90F8A46324953
S11343301D035C0084463F0B760D90462D0B640DE7
S1134340DB0F8E420FD08C4239D0002E10D138436F
S1134350414241418946002C27D12A4325D10020DE
S113436000290ED108E0391C01432ED1B44226D0D5
S1134370002C0BD09A450DD05346594201231943C2
S1134380081C1CBC90469946A246F0BD2A43F3D0B3
S11343909A45F1D1A642EFDC1ADA5046414248412F
S11343A0012341421943081CEBE74A46002AE1D0A5
S11343B058425841012241421143081CE1E7291C9B
S11343C0114302D1002EC2D0D4E702204042D8E7E4
S11343D0AF42D1D809D00020AF42D2D25046414298
S11343E04841012340421843CBE7C445C4D80020C8
S11343F0C445F3D3C5E7C046FF070000F0B55F46E8
S11344004D46444656468046F0B4061C0803000B4D
S113441084462C484C001F035D00C90F640D8B4675
S113442091463F0B6D0DDB0F844212D0854225D09F
S1134430002C14D161460E4370424641002D35D004
S1134440002E21D058425841012143420B43181CED
S11344500EE06146022031430AD1A5420ED0002D60
S113446012D13A4310D15B46594201231943081C27
S11344703CBC90469946A246AB46F0BD391C02208E
S11344801143F5D1002CD5D09B45ECD1AC42EADCEC
S113449005DBBC45E7D80FD00020BC45E8D2584620
S11344A041424841414201200843E1E73A43C7D130
S11344B00020002EDCD1D6E7C845D4D80020C8455A
S11344C0EDD3D5E7FF07000008B5002100F0D2FEC8
S11344D008BD0000084B10B5041C002B02D00021BD
S11344E000E000BF054B1868836A002B00D0984792
S11344F0201C02F00BFAC04600000000246E0000ED
S11345000E4B70B500251E1C0D4CE41AA410A542D8
S113451004D0AB00F35898470135F8E702F060FB8C
S1134520084B00251E1C084CE41AA410A54204D014
S1134530AB00F35898470135F8E770BDA800002098
S1134540A8000020A8000020AC000020031C821852
S1134550934202D019700133FAE770470EB410B5D4
S11345609DB002A9029008610B48822488604861CA
S1134570012040421FABC881084804CBA400006856
S113458001938C8101F070FE0023029A13701DB018
S113459010BC08BC03B01847FFFFFF7F6C0000206D
S11345A002780B78002A03D0013001319A42F7D007
S11345B0D01A70470023C25C0133002AFBD1581E75
S11345C07047031C30B5002A07D00C7801335D1EF8
S11345D0013A2C700131002CF5D19A18934203D082
S11345E0002119700133F9E730BD30B503680C7848
S11345F00133002C0AD01A78151C413D192D00D81E
S113460020320131A242F2D0002001E003600120F7
S113461030BD000070B5161C0D1C01F033FC002EDB
S11346200BD06B226B005B0DD31A002B05DD034D01
S11346301C0500226319FEF7C1FE70BD0000F03FA7
S11346400023F0B5A3B01E93002600270B1C039093
S1134650069119921D931D9B1A780D2A05D8092AD3
S113466014D2002A00D1C3E112E02B2A06D02D2A4D
S113467002D0202A0CD109E0012200E000220D9290
S11346805A1C1D925B78002B04D1B1E10133E1E7A0
S113469000230D9300221D9D0A922B78302B5DD1AF
S11346A06B78582B01D0782B4CD11EAB00930D9B0B
S11346B0039801931DA9C24A1FAB00F030FE0724E2
S11346C00490044001D100F0A7FD062C05D100237D
S11346D001351D950D9300F09FFD1E9A002A07D009
S11346E020A8352101F0C2FC03981E9901F02BF992
S11346F01F9B062C1CD8201C02F00AF9040A07147C
S1134700170A040000273E1C12E0209E219F0FE0A0
S1134710AC4A21999B18AC4A1B050A401343209EBE
S11347201F1C05E0A94F002602E00126A84F76428F
S1134730049B1B0701D400F06FFD80231B061F435D
S113474000F06AFD1D9B5A1C1D925B78302BF9D03A
S1134750002B01D100F060FD01230A931D9B0C93F3
S113476000230593079304931D9C23781A1C303A65
S11347700893D3B2092B12D804990A23082904DC1C
S113478007994B43D318079303E005994B43D31878
S11347900593049B0134013304931D94E4E70398C7
S11347A001F08CF80568039801F088F80068FFF7B9
S11347B001FF291C021C201C01F0E4FF051E05D08A
S11347C00020089B049C011C08905AE0039801F007
S11347D075F80068FFF7EEFE1D9B049A18181D90EB
S11347E00378101E41D1302B05D11D9B01305A1C7A
S11347F01D925B78F7E71A1C313A082A3DD8011C50
S11348000020041C1D9A0C92303B421C002B26D025
S11348108918221C001982420FD00132541E082C20
S113482004DC0A24079D65430795F4E7102AF2DCAB
S11348300A24059D65430595EDE7541C082A06DC0A
S11348400A2207984243D3180793002207E0002264
S1134850102C04DC0A20059D6843C31805931D9B96
S1134860581C1D905B78101C02E0281C291C049C19
S11348701A1C303A092AC7D901E00024211C01225C
S1134880089220221D1C95430022452D57D1231C3C
S11348900A9D03432B43934200D1A9E01D9B069339
S11348A001331D93069B5B782B2B06D02D2B01D057
S11348B0099208E00123099300E00992069B023360
S11348C01D93069B9B781A1C303A092A34D8302B46
S11348D004D11D9B5A1C1D925B78F8E731256D426B
S11348E0AC469C4465460022082D28D8303B0B93E7
S11348F01D9B0E9330256D42AC461D9B5A1C1D9288
S11349005B789C446546092D06D80A220B9D6A43B0
S1134910D318303B0B93EDE70E9D521B151E2D4A09
S11349209446082D03DC0B9A624500DD6246099D1E
S1134930002D04D0524202E0069A1D920022002C5F
S113494061D10A9A104301D000F066FC089A002A4B
S11349504ED14E2B1CD002DC492B05D048E0692BEC
S113496002D06E2B14D043E01DA81B49FFF73DFE77
S113497000283DD01D9B1DA8013B18491D93FFF73E
S113498034FE002802D11D9B01331D930F4F2CE0F0
S11349901DA81349FFF729FE002829D01D9B1B7869
S11349A0282B21D11DA80F4920AA00F0EEFE0528CE
S11349B01AD1219B054A209E1A43171C00F02CFC97
S11349C0706E000033040000FFFFEFFF0000F07F73
S11349D0FFFFFF7F1F4E0000286E00002B6E0000BB
S11349E0316E0000346E0000924F002600F014FC7B
S11349F0069B1D9300230D93199B002B01D000F0FF
S1134A000EFC00F017FC531A0993049B002B00D1F1
S1134A100494251E102D00DD1025079802F0AEF831
S1134A20061C0F1C092D15DD2B1C834A093BDB00DA
S1134A30D3181A685B68FEF7C1FC061C05980F1CA6
S1134A4002F09CF8021C0B1C301C391CFDF76AFE9A
S1134A50061C0F1C0F2C37DC099B002B00D1DBE359
S1134A6024DD162B07DC7449DA008A1810685168B3
S1134A703B1C321C15E02523099A1B1B9A4223DC9C
S1134A800F226D4D141BE300EB1818685968321C93
S1134A903B1CFEF793FC099B1C1BE4002D192A68A0
S1134AA06B68FEF78BFC061C0F1CB5E3099B1633E1
S1134AB00ADB099B301CDA005F4B391C9A1A5368D5
S1134AC01268FEF757F9EEE7099B651B5D19002D87
S1134AD059DD0F232B400AD0574ADB00D31818683E
S1134AE05968321C3B1CFEF769FC061C0F1C0F2383
S1134AF09D4300D1B0E02633FF339D420EDD0023F9
S1134B00049305930B93089322230026039A4B4F97
S1134B1013600B9BB34200D06AE37DE30023301C97
S1134B20391C2D110593012D0EDDEB0707D5059BCF
S1134B30DA00434BD3181A685B68FEF73FFC059B09
S1134B406D1001330593EEE7061C3E4BCF18059B11
S1134B50DA003B4B9B1818685968321C3B1CFEF763
S1134B602DFC364B0F1C0B403749061C8B42C6D814
S1134B7036498B4203D90126354F76426CE0D42363
S1134B809B04FF1868E0002D66D00F236D422B4074
S1134B900AD0294ADB00D318301C1A685B68391C18
S1134BA0FEF7E8F8061C0F1C2D1155D01F2D05DD4E
S1134BB00023049305930B93089318E100230693B1
S1134BC0EB0601D56A230693391C301C214E002DB7
S1134BD008DDEB0703D532687368FEF7EFFB6D1051
S1134BE00836F4E7069B061C0F1C002B19D06B2219
S1134BF04B005B0D081CD31A002B12DD1F2B0CDDA0
S1134C000026342B02DDDC27BF040AE00122203B0E
S1134C1052429A401040071C03E0012252429A403B
S1134C201640301C391C00220023FFF705FB002826
S1134C30BED113E00000F8FF906E00000000F07F8A
S1134C40586F00000000B0FC0000A07C0000907CC5
S1134C50FFFFEF7F486E000000230693079B039835
S1134C6000930C99049A231C00F0C2FE0B900028B8
S1134C7000D144E7099B099A5B42D217134013936E
S1134C800023049305930B9B0398596800F023FEBB
S1134C900890002800D137E70B9B0B991B690C3156
S1134CA09A1C92000C30079300F00CFE1FAB00938B
S1134CB020AB01930398321C3B1C0E960F9701F016
S1134CC057F91E90002800D11EE70398012100F037
S1134CD019FF0590002800D116E70023099A0A93CA
S1134CE0934200DA0A921F9B002B00DA89E0139AA0
S1134CF00A9CD518069A20999B1A36225B18521AD8
S1134D00C84901208B4200DB85E0C91A521A1F29C9
S1134D107BDC8840002318901293AB180793069B02
S1134D20A418E418079BAB4200DD2B1CA34200DD52
S1134D30231C002B04DD079AE41AD21A0792ED1AF9
S1134D40139B002B6BD1079B002B00DD80E00A9B9B
S1134D50002B00D086E0002C00DD8DE0002D00DD6E
S1134D6094E003981E99089A01F021F80490002811
S1134D7000D1C9E60022C3680599C2600C9300F013
S1134D80FBFF002800DB91E00C9B002B00D01AE213
S1134D90002E00D017E23B0300D014E2D622A24B2F
S1134DA0D2043B40934200D80DE2049B5B69079315
S1134DB0002B75D004990398012200F08BFF05990C
S1134DC0049000F0D9FF002800DCFCE1069A964B21
S1134DD0002A00D19AE01A1CD6213A40C9048A421A
S1134DE000DD93E0DC239B049A4200DDEEE1222304
S1134DF0039A002613600B9B0027002B00D0F7E1D9
S1134E000AE20A9A139DD41A74E78849CB1A011C42
S1134E109940129101E00023129318907DE71A1C27
S1134E200398059900F004FF0590031E00D16BE67A
S1134E300398191C1E9A00F06EFE0C90002800D1F5
S1134E4062E603981E9900F07EFD0C9B1E937AE7A0
S1134E5003981E99079A00F03DFF1E90002800D089
S1134E6075E751E6039808990A9A00F0E1FE089064
S1134E70002800D06FE747E603980899221C00F049
S1134E8029FF0890002800D068E73DE603980599BB
S1134E902A1C00F01FFF0590002800D061E733E6CC
S1134EA0049B1B690793012B84DC8CE1002864D1EB
S1134EB00C9A3B03002A24D05D4A391C1B0B9342F5
S1134EC02DD1069A0138341C031C002A0AD0D4259B
S1134ED0554AED043A40AA4204D86C33120D9A1A8A
S1134EE0031C93409C421AD1524B994202D1631C39
S1134EF000D109E64C4B0026194080235B03CF18F0
S1134F0061E1002B0BD1002E09D15FE701264A4A4B
S1134F103B409B18464A76421A43171C53E1129BA6
S1134F20002B03D03B4200D14DE103E0189B3342F8
S1134F3000D148E10C9B301C391C069A002B0AD086
S1134F40FFF768FB021C0B1C0E980F99FDF7EAFB98
S1134F50061C0F1C37E1FFF75DFB021C0B1C0E98AF
S1134F600F99FEF7C5FC00220023061C0F1CFFF757
S1134F7063F9002800D03AE725E10498059901F087
S1134F804BF880230022DB05041C0D1CFFF764F999
S1134F90002836D00C9B002B02D00024274D0BE0B8
S1134FA0002E02D13B0305D10BE0012E02D1002FCC
S1134FB000D11CE70024224D002307931F4B0A93C2
S1134FC048E0201C291C00221C4BFFF73BF9002859
S1134FD008D1201C291C00221A4BFEF7EFF9079078
S1134FE00A9103E00C9B0793164B0A938022120646
S1134FF09446079B1A930A9B63441B931A9C1B9D1C
S113500028E0104B201C291C0022FEF7D7F90C9B2A
S113501007900A91002B17D180231B06CB181490FC
S1135020159315E003FCFFFF0000F07FE3FBFFFF97
S1135030FFFF0F00FFFFEF7F0000F0FF0000F03FD5
S11350400000F0BF0000E03F079A0A9B14921593FA
S1135050149C159D7A4B3B401293129A794B9A42B9
S11350602BD10E9A0F9B10921193774B301CFF1883
S1135070391C00F007FF021C0B1C201C291CFEF726
S11350809DF9021C0B1C301C391CFDF74BFB6C4BAF
S11350906E4A061C0B4093420BD96D4B119A9A42EF
S11350A003D1109B013300D12EE50126684F7642CF
S11350B078E0D4239B04CF1840E0069B002B2BD030
S11350C0D423129ADB049A4226D807980A99614A93
S11350D0614BFFF7C1F8002819D007980A99FCF72B
S11350E0EBFF002800D1013001F048FD0C9B079034
S11350F00A91002B05D180231B06CB181690179319
S113510003E0079A0A9B16921793169C179DD623C1
S1135110129ADB04EB189D1A0E980F9900F0B2FE58
S1135120021C0B1C201C291CFEF748F9021C0B1C3A
S11351300E980F99FDF7F6FA061C0F1C069B0E97A6
S1135140002B2FD13E4B129A3B409A422AD10A9906
S11351500798FEF747FF01F0D5FC0B1C021C0A99C7
S11351600798FEF7C5FB0C9B041C0D1C002B04D1F7
S1135170002E02D10E9B1B030ED0201C291C374A83
S1135180374BFFF75FF8002832D1201C291C354A21
S1135190354BFFF76BF803E0304A344BFFF752F816
S11351A0002825D103981E9900F0CDFB0398089997
S11351B000F0C9FB0398059900F0C5FB0398049916
S11351C000F0C1FB5FE5069B002B11D0284B301C7F
S11351D0119300231093391C109A119BFEF7EEF8DB
S11351E0061C0F1E04D1002802D12223039A136047
S11351F003981E9900F0A7FB0398089900F0A3FBFD
S11352000398059900F09FFB03980B9900F09BFB12
S11352100398049900F097FB199B002B02D0199B6B
S11352201D9A1A600D9B002B04D080231B06321C90
S1135230FB1801E0321C3B1C101C191C23B0F0BDF0
S11352400000F07F0000E07F0000B0FCFFFF9F7CC7
S1135250FFFFEF7F0000C0FFFFFFDF419535A09403
S1135260FFFFDF3F35E5AF350000E03FFFFFCF3FF5
S11352700000503908B5031C0A1C03490868191CAE
S1135280FFF7DEF908BDC0466C000020F0B5061C2F
S1135290056914364A11341CAA4225DA1F23AD00CD
S11352A0920019407519B218331C002916D0131C2A
S11352B004CB2027CA40B4467F1A6446AB4208D2C6
S11352C01C68BC402243644604C404CBA446CA40C0
S11352D0F3E72260002A07D0043405E01C1CAA422C
S11352E002D202CA02C3F9E7A31B9B10036100D1D7
S11352F04361F0BD031C303B092B01D820380BE07F
S1135300031C613B052B01D8473805E0021C413AD8
S11353100023052A01D82738C3B2181C7047F0B5FA
S11353208DB0099102920A93059000F0C7FA0368C0
S1135330181C0793FFF73EF9079B04901B18013BC9
S11353401B780B93099B19688A1C01920198531AC4
S11353500078023B01323028F7D00893FFF7CAFFE8
S1135360061E20D101980799049A01F00BFA00282F
S11353703CD1019B049A9C182078FFF7BBFF0028BE
S113538037D00194019B1878302803D1019B013355
S11353900193F7E7FFF7AEFF434243410393012331
S11353A0261C089302E000231E1C0393019C207812
S11353B0FFF7A0FF002801D00134F8E7201C07996B
S11353C0049A01F0DFF900280BD1002E0BD1049BC5
S11353D0E618341C2078FFF78DFF002801D0013433
S11353E0F8E7371E08D0361BB70005E0019C371CD0
S11353F000E0071C012303932378502B01D0702B6A
S113540028D163782B2B07D02D2B03D00023651CC8
S1135410069304E0012300E000230693A51C2878EA
S1135420FFF768FF431EDBB2182B13D81038013581
S1135430061C2878FFF75EFF431EDBB2182B03D847
S11354400A235E433018F1E7069B002B00D0764216
S1135450BF1900E0251C099B1D60039B002B06D08F
S11354600020089B834200D07BE1063079E1019B58
S11354700399E31A013B072B02DD01315B10FAE7C4
S1135480059800F028FA031C0026051C1433039326
S113549008930696019B9C422AD9631E09930B9A92
S11354A01B78934209D0069B202B14D1089B1E60C5
S11354B000260433089306960DE0099B049A9C1A6F
S11354C0019B01349C42EED3201C079901F05AF948
S11354D00028DFD0E7E7099B1878FFF70BFF0F23BD
S11354E01840069B099C9840043306430693D1E771
S11354F0089C039B40C4E41AA4102C61301C00F0E7
S1135500B7FA029B64011B68261A01939E4225DDAB
S1135510F61A281C311C00F0BFFD0024A04217D04D
S11355201F230134201C721E13409840031C511188
S113553003988900095819420AD0A24201DC0224C6
S113554006E0B11E281C00F0A7FD0028F7D00324B4
S1135550281C311CFFF79AFEBF190EE0019B0024A2
S11355609E420ADA9E1B291C0598321C00F0B2FBED
S1135570031C051C1433BF1B0393029B9B680493F9
S11355809F4208DD0598291C00F0DDF90023129ADA
S1135590A3201360E5E0029B5E68B7425ADA019BE0
S11355A0F61B9E4232DB029BDB68022B1ED0032BD0
S11355B020D0012B21D1019B9E421ED1012B0DDC59
S11355C0029B62205B680193019A0A9B1A60012383
S11355D0039A2B611360129B1D60C2E00199281C81
S11355E0013900F059FD0028EAD106E0139B002B95
S11355F0E6D002E0139B002BE2D10598291C00F0B1
S1135600A2F90023129A50201360AAE0771E002CFE
S113561007D1002F06DD281C391C00F03DFD041CB9
S113562000E001241F237A111F401E3BBB401F1CB6
S1135630039B9200D3583B4201D002231C43019B9D
S1135640311C9B1B281C0193FFF720FE029B0226A2
S11356505F6800E00126002C7ED0029BDB68022BF1
S11356600BD0032B0DD0012B74D1A20772D5039A52
S1135670126814431C4207D16CE00123139A9B1A4D
S11356801393139B002B65D02C69A30003932B1C4D
S1135690039A143399181A68501C02D001321A6004
S11356A021E0002204C39942F5D8AB689C4212DB86
S11356B06B680598591C00F00EF9291C2B6904909D
S11356C09A1C0C3192000C3000F0FCF8291C05984F
S11356D000F039F9049D2B695A1C2A610122043314
S11356E09B00EB185A602B1C1433022E11D1029A22
S11356F001991268013A91422AD14A111F21019855
S1135700920001400120041C8C40D35823421FD036
S11357100CE02A69A2420BDD281C0121FFF7B6FD2B
S1135720029B01379B689F4200DD2BE701260FE0B7
S11357301F24019A01262240141E09D0039A9B18A3
S1135740043B186800F094F920210C1BA042E3DB11
S1135750202300E010231E43301C129B1D600A9B73
S11357601F600DB0F0BD082370B520259A1A920071
S1135770AD1A436806681C1CAC40D3403443046033
S1135780436004308842F4D370BDF0B589B0009210
S11357900A68009953119B00CB1802931F231A40E7
S11357A00790059202D0029B04330293029B0025CA
S11357B01E1F371C341C079B35601B68069503931A
S11357C00195039B013303931B780493002B3BD077
S11357D00498FFF78FFD002822D1049B202B17D8B3
S11357E0069B019A9342ECDABC4206D2072D04DCF4
S11357F0201C391C2A1CFFF7B6FF009B08259C427D
S1135800DFD90025019B271F3D6006933C1CD8E788
S1135810049B292B4CD1039B079A0133136013E09B
S1135820019B013501330193082D06DD009B9C4249
S1135830C7D900230125043C236023681A010F23E0
S1135840184010432060BCE7019B002B30D0BC42C1
S113585006D2072D04DC201C391C2A1CFFF783FF09
S1135860009B9C420AD9043302CC1A1F1160A64241
S1135870F9D2002204C39E42FBD20EE0059B002B0A
S11358800BD020220599029B521A01214942D14092
S11358900A1C043B19680A401A603368002B09D1BA
S11358A0009B9E4202D10123336003E0043EF4E7EF
S11358B0042000E0052009B0F0BD00000048704756
S11358C070000020002310B5934203D0CC5CC45474
S11358D00133F9E710BD70B5466A041C0D1C002E97
S11358E007D1102000F062FF6062466086600660A7
S11358F0C660666AF368002B09D0626AAB00D2689E
S1135900D318186800280ED002681A6017E0201C0B
S11359100421212200F0E1FB636AF060DB68002BC4
S1135920EBD100200EE001210E1CAE40721D92004E
S1135930201C00F0D2FB0028F3D0456086600023D1
S11359400361C36070BD70B5456A061C0C1C002D54
S113595007D1102000F02AFF706245608560056061
S1135960C560002C07D0726A6368D2689B00D318A4
S11359701A6822601C6070BDF7B51E1C14239C4677
S1135980071C0C1C00200D698C44634619881B6895
S113599051431B0C534389190E0CF31889B21E0C86
S11359A01B045B186146013008C18C46A842ECDB3D
S11359B0002E1BD0A3689D4212DB6368381C591C5F
S11359C0FFF789FF211C236901909A1C0C31920076
S11359D00C30FFF777FF211C381CFFF7B4FF019C44
S11359E02B1D9B00E31801355E602561201CFEBD64
S11359F0F7B5061C181C0C1C083009210193151C52
S1135A0000F090FF01230021984202DD5B00013188
S1135A10FAE7301CFFF75FFF089B011C4361012379
S1135A200361092D12DD231C09331F1C0093641923
S1135A303B78301C303B0A22FFF79EFF0137011CE4
S1135A40A742F5D1009B5C19083C01E009250A3402
S1135A502F1C019B9F4209DA631BDB5D301C303B2A
S1135A600A22FFF789FF0137011CF2E7081CFEBD7B
S1135A700022031C010C914201D103041032190EBF
S1135A8001D108321B02190F01D104321B01990FF5
S1135A9001D102329B00101C002B03DB20205B0091
S1135AA000D5501C70470722036810B5011C1A402A
S1135AB00CD001240020234223D10222134203D01C
S1135AC0E340201C0B601CE09B0818E098B20028FF
S1135AD001D110221B0CD8B2002801D108321B0AB4
S1135AE0180701D104321B09980701D102329B081F
S1135AF0D80704D45B082020002B02D00132101CEC
S1135B000B6010BD10B50C1C0121FFF7E4FE01234E
S1135B104461036110BDF0B50B69141C126989B0AE
S1135B200D1C934201DA251C0C1C2F692669AA68F6
S1135B30BB1969680093934200DD0131FFF7CBFE86
S1135B40011C009B1431844698000B1C08188342E6
S1135B5002D2002204C3FAE71435BF00EB1914344F
S1135B60B6000493A31902950693069B9C4256D251
S1135B7023880393002B22D00E1C0027029B019341
S1135B80019B039D04CB059601933388079393B23D
S1135B906B43079D120CEB183568DB192F0C039D22
S1135BA06A43BA181F0CD219170C9BB21204134380
S1135BB008C6019A049B9A42E2D3059B5F6023685E
S1135BC01B0C019321D000220D1C0B68029F039231
S1135BD03E88019A9BB256432A680595120CB21866
S1135BE0039E9219160433432B6008CF019E1B0CAD
S1135BF07343AE88120C9B199B181A0C0392049AD7
S1135C000435BA42E4D8059A536004340431ACE74D
S1135C1004380368002B05D1009B013B0093009BD3
S1135C20002BF5DC63466046009A1A6109B0F0BDAA
S1135C300323F7B51340051C0E1C141C002B07D0BE
S1135C40224A013B9B009A580023FFF795FE061C4D
S1135C50A310019337D06C6A002C07D1102000F0F8
S1135C60A5FD6862446084600460C4606F6ABC68B7
S1135C70002C10D1281C1649FFF744FF0023B860FC
S1135C80041C036007E0019B5B1001931BD0206898
S1135C9000280FD0041C019BDB07F4D5311C221C07
S1135CA0281CFFF738FF071C311C281CFFF74BFE8C
S1135CB03E1CE8E7281C211C221CFFF72CFF0023B4
S1135CC020600360E6E7301CFEBDC046806F000024
S1135CD071020000F0B50C1C171C2369551185B026
S1135CE0EB180193013300934968A3680290009A6A
