:100000000010002065010000910100009101000036
:100010009101000091010000910100009101000098
:100020009101000091010000910100009101000088
:1000300091010000910100009101000025120000D3
:100040009101000091010000910100009101000068
:100050009101000091010000910100009101000058
:100060009101000091010000911200009101000037
:100070009101000091010000910100009101000038
:1000800091010000910100009101000010B5064CA3
:100090002378002B07D1054B002B02D0044800E049
:1000A00000BF0123237010BDB40000200000000039
:1000B000F858000008B5084B002B03D00748084942
:1000C00000E000BF07480368002B03D0064B002B5D
:1000D00000D0984708BDC04600000000F858000056
:1000E000B8000020B000002000000000164B002BDC
:1000F00000D1144B9D46402292029A1A924600214A
:100100008B460F461348144A121A03F02FFB0F4B6D
:10011000002B00D098470E4B002B00D098470020B2
:10012000002104000D000D48002802D00C4800E01A
:1001300000BF03F0F5FA2000290001F04DFB03F0A9
:10014000D9FAC0460000080000100020000000009E
:1001500000000000B40000200802002000000000A1
:1001600000000000064880470649074A074B9B1AD3
:1001700003DD043BC858D050FBDCFFF7B7FF00009D
:10018000AD0200000459000000000020B40000206F
:10019000FEE7C04680B582B000AF00F021F8031C36
:1001A0007B60094B5B681A1C0F2313407A68111C93
:1001B000D9400B1C7B60054B7A681A607B68181C61
:1001C000BD4602B080BDC04600800C400800002043
:1001D00080B500AF014B181CBD4680BD00366E01D6
:1001E00080B582B000AF294BDA6AF0239B0113403F
:1001F0008022520193420CD080229201934204D07B
:1002000080221201934208D00BE0214B1B687B60D7
:1002100036E080231B027B6032E01E4B1B687B6054
:100220002EE01A4BDA68E023DB00134080229200B4
:10023000934218D080229200934206D8002B18D007
:1002400080225200934211D016E0C02292009342C5
:1002500006D08022D20093420ED10F4B7B600EE07D
:100260000E4B7B600BE00E4B7B6008E00D4B7B6020
:1002700005E00D4B7B6002E000237B60C046C0467A
:100280007B68181CBD4602B080BDC04600800C4093
:100290000400002000000020406F4001809FD50036
:1002A000C0D8A70040B56400804F120080B500AFF1
:1002B000BD4680BD80B500AF80231B02181CBD4623
:1002C00080BDC04680B500AFFA239B00181CBD4618
:1002D00080BDC04680B500AF024B1B68181CBD46F0
:1002E00080BDC0460400002080B586B000AFF86035
:1002F000B9607A60FB681B687B61BB680122101CD7
:100300009840031CDB437A691A407968012319403D
:10031000BB68081C9840031C1A43FB681A60BD4662
:1003200006B080BD80B582B000AF786039607B6870
:100330001A683B68DA4001231340181CBD4602B01E
:1003400080BDC04680B500AF034BDB6C1B0EDBB23B
:10035000181CBD4680BDC046B081E00F80B582B09C
:1003600000AF224B5A69E023DB0013408022920049
:1003700093421ED080229200934206D8002B26D0B2
:100380008022520093421FD027E0C0229200934265
:1003900004D0E022D20093421CD01EE0FFF7D2FF2F
:1003A000031C122B02D9124B7B6019E0114B7B60AE
:1003B00016E0FFF7C7FF031C122B02D90E4B7B6020
:1003C0000EE00E4B7B600BE00D4B7B6008E00D4BAD
:1003D0007B6005E00C4B7B6002E000237B60C04645
:1003E0007B68181CBD4602B080BDC04600800C4032
:1003F000804F120040420F0040B56400C0CF6A0039
:10040000C0D8A700809FD500406F400190B583B051
:1004100000AFFC1C0E4B181C00F0E8F9031C237005
:10042000FB1C1B78072B06D0092B09D1FFF7D8FE40
:10043000031C7B6007E0FFF791FF031C7B6002E079
:1004400000237B60C0467B68181CBD4603B090BD8E
:1004500006000C0080B584B000AF78603960184B9E
:10046000DA6B3B1C0B33511E8A411A70144B154A30
:10047000DA63134B5A6807231340FB607A68124B08
:100480009A4202D80023FB6005E07A680F4B9A423B
:1004900001D80123FB600A4B094A52680721101C4E
:1004A0008843011CFA680A435A603B1C0B331B78D3
:1004B000002B02D0024B0022DA63BD4604B080BD9F
:1004C00000000C40711B00000024F4000048E8010B
:1004D00080B500AFFFF77CFE031C181C0021FFF75E
:1004E000B9FFBD4680BDC04680B582B000AF786020
:1004F00039607A683B68101C191CFFF7ABFFBD46DA
:1005000002B080BD80B584B000AF78600023BB60CE
:100510007B68314A934203D0304A934200D000E0D6
:10052000C0467B68181C00F061F9031CFB607B6807
:10053000294A934203D0294A934206D00CE0284B23
:100540009A6A03231340FB6006E0254B9A6A0C234A
:1005500013409B08FB60C046FB68012B05D014D3F9
:10056000022B07D0032B0AD02DE0FFF7A3FE031CBC
:10057000BB602BE0FFF7AEFE031CBB6026E0FFF77D
:1005800009FE031C5B08BB6020E00023BB607A68A7
:10059000114B9A4203D07A68104B9A4212D1104BF9
:1005A0009A6A79680C4B994201D1102300E0142318
:1005B000111CD9400B1C002B04D0FFF783FE031C39
:1005C000BB6003E002E00023BB60C046BB68181CB0
:1005D000BD4604B080BDC04602001A0003001C00E6
:1005E00000800C4080B582B000AF7860074B5A6D38
:1005F0000123134000D005E0C046044B1B6D7A6810
:100600001340FAD1BD4602B080BDC04600800C4008
:1006100080B586B000AF78600A1CFB1C1A700023FE
:100620003B617B681A0A0F2313400A2B30D89A00CB
:10063000194BD3181B689F46184B7B6112E0184B6F
:100640007B610FE0174B7B610CE0174B7B61012353
:100650003B6107E0154B7B6110233B6102E0144BCB
:100660007B61C0467B681A0B1F231340FB603B690C
:10067000002B03D03B69181CFFF7B4FFFB1C1B7851
:100680007969FA68081C111C1A1CFFF72DFE00E09E
:10069000C046BD4606B080BD0056000040800C40FC
:1006A00008800C4044800C4058800C4060800C4016
:1006B00078800C4080B584B000AF78607A68F82309
:1006C0009B031340E0221203934200D17BE0E0221F
:1006D0001203934213D880229202934239D080228F
:1006E0009202934202D8002B1FD071E08022D202E6
:1006F00093421FD0C022120393425FD068E0B02221
:100700005203934249D0B0225203934204D880222C
:100710005203934229D05BE0D022520393421DD072
:10072000E0225203934231D052E0FFF759FD031CFF
:10073000FB6050E0FFF754FD031CFB60284B9B68F7
:100740001A1C0F231340FA68111CD9400B1CFB60C4
:1007500041E0FFF71FFD031CFB603CE0214B181C30
:10076000FFF7D0FE031CFB6035E01E4B181CFFF7A3
:10077000C9FE031CFB601A4B9B6E1A1C0F2313400F
:10078000FA68111CD9400B1CFB6024E0164B181CA6
:10079000FFF7B8FE031CFB601DE0134B181CFFF7AE
:1007A000B1FE031CFB600E4B1B6F1A1C032313408E
:1007B000FA68111CD9400B1CFB600CE0FFF726FE09
:1007C000031CFB6007E0FFF7C9FD031CFB6002E0B0
:1007D0000023FB60C046FB68181CBD4604B080BD0A
:1007E00000800C4002001A0003001C0080B584B099
:1007F00000AF78603B1C0F3301221A707A680F2318
:100800001340BB60BB68022B30D002D8012B06D04E
:100810007DE0032B50D0062B00D173E077E0424BF4
:10082000DA6AF0239B0113408022520193420DD0DB
:1008300080229201934204D08022120193420AD076
:100840000EE03B1C0F3302221A700EE03B1C0F33EC
:1008500003221A7009E03B1C0F3304221A7004E0D3
:100860003B1C0F3305221A70C04655E02E4B9A6A86
:1008700003231340022B08D0032B0BD0012B0ED1E6
:100880003B1C0F3303221A7015E03B1C0F3302226E
:100890001A7010E03B1C0F3306221A700BE0224B3B
:1008A0009A6A80235B02134004D03B1C0F330A2258
:1008B0001A7000E0C0462FE01B4B9A6A0C231340CD
:1008C000082B08D00C2B0BD0042B0ED13B1C0F3364
:1008D00003221A7015E03B1C0F3302221A7010E03D
:1008E0003B1C0F3306221A700BE00F4B9A6A8023D1
:1008F0005B03134004D03B1C0F330A221A7000E044
:10090000C04609E03B1C0F3307221A7004E03B1C71
:100910000F3300221A70C0463B1C0F331B78181C83
:10092000BD4604B080BDC04600800C4080B588B094
:1009300000AF78600A1CFB1C1A700323FB613B1C90
:100940001B3303221A7000233B617A680F23134084
:10095000FB60FB68012B05D000D286E0032B00D999
:1009600083E03CE0FB1C1B780A2B00D97FE09A0057
:10097000424BD3181B689F460423FB613B1C1B336F
:1009800000221A7014E00323FB613B1C1B3301227D
:100990001A700DE00223FB613B1C1B3302221A700C
:1009A00006E00123FB613B1C1B3303221A70C04687
:1009B0003B1C1B331B78181C0121012200F06AF834
:1009C000FFF786FD2E4BFA695A62FFF7E3FB031C23
:1009D000BB60BB68181C0021FFF786FD4AE0FB1CCA
:1009E0001B780A2B45D89A00264BD3181B689F46C4
:1009F00000237B611DE000200121012200F04AF864
:100A000002237B6115E001200121012200F042F860
:100A100001237B610DE01C4B181C02210122FFF712
:100A200063FC03237B6104E000237B6101233B61C2
:100A3000C046FB68022B0BD1114B114A916A134A35
:100A400011407A6911433A6912040A439A6211E02B
:100A50000B4B0B4A916A0E4A11407A69920011437E
:100A60003A6912050A439A6204E0C04602E0C046B1
:100A700000E0C046BD4608B080BDC0462C56000010
:100A800000800C405856000040800C40FCFFFEFFE8
:100A9000F3FFEFFF80B586B000AFFB1D1870BB1DE4
:100AA00019707B1D1A70FB1D1B78042B43D89A000C
:100AB000234BD3181B689F4601233B610223FB6035
:100AC00001237B611DE004233B610823FB600323BA
:100AD0007B6116E010233B612023FB6005237B61D3
:100AE0000FE040233B618023FB6007237B6108E02C
:100AF00080235B003B6180239B00FB6009237B61BB
:100B0000C046BB1D1B78002B11D00E4B3A691A62F0
:100B10007B1D1B78002B0FD0C0460B4A7B69101C35
:100B2000191CFFF7FFFB031C002BF6D004E0054B5C
:100B3000FA681A6200E0C046BD4606B080BDC046F5
:100B40008456000000800C402C800C4080B582B0A0
:100B500000AF786039607B681A6C0123134000D0C5
:100B600005E0C0467B685B6C3A681340FAD1BD462D
:100B700002B080BD80B586B000AFF860B9607A6021
:100B8000BB68002B0DD1FA68144B9A4208D1144B64
:100B90007B617B69181CFFF78DFD031CBB6000E0C7
:100BA00019E0BB685B01181C796800F063FE031C48
:100BB0003B613B69203B3B613B69DB003B613A6940
:100BC000084B13403B61FB68181C0421FFF7BEFF74
:100BD000FB683A69DA60BD4606B080BD0040084057
:100BE00070071600F87F000080B584B000AF786011
:100BF0000A1CFB1C1A70FB1C1B78DB43FB60FA68A9
:100C000005231340FB60FB685B00FB60FB1C1B784B
:100C1000FA681343FB607B68181C0221FFF796FFFC
:100C20007B68FA685A60BD4604B080BD80B582B06A
:100C300000AF78600A1CFB1C1A70FB1C1B78002B91
:100C400008D0C0467B685B6C002BFBD17B6801221F
:100C50001A6402E07B6800221A64BD4602B080BDBF
:100C600080B582B000AF786039607B68181C0221C3
:100C7000FFF76CFF7B680A225A607B68181C012111
:100C8000FFF7D4FF7B681B681C22191C91430A1CC8
:100C90003B681B7B1A433B685B7B1A433B689B7B2F
:100CA0001A437B681A603B685A683B689B6879689E
:100CB000081C111C1A1CFFF75DFF3B681B781A1CEF
:100CC0007B685A607B68181C0021FFF7AFFFBD46A8
:100CD00002B080BD80B582B000AF7860C0467B684E
:100CE0009A6820231340FAD07B68DB69DBB2181CBA
:100CF000BD4602B080BDC04680B582B000AF78600E
:100D00000A1CFB1C1A70C0467B689A6810231340AB
:100D1000FAD07B68181C4021FFF718FFFB1C1A78DB
:100D20007B689A62BD4602B080BDC04680B582B085
:100D300000AF78600A1CFB1C1A707B68181C01212C
:100D4000FFF704FFFB1C1B78002B07D07B681B6898
:100D5000802292011A437B681A6005E07B681A685A
:100D6000034B1A407B681A60BD4602B080BDC04686
:100D7000FFDFFFFF80B582B000AF78600A1CFB1C6C
:100D80001A707B68181C0121FFF7E0FEFB1C1B7822
:100D9000002B07D07B681B68802252011A437B68B6
:100DA0001A6005E07B681A68034B1A407B681A607A
:100DB000BD4602B080BDC046FFEFFFFF80B582B0E8
:100DC00000AF021CFB1D1A70064BFA1D1278111C95
:100DD0001F220A400121081C9040021C1A60BD46D7
:100DE00002B080BD00E100E080B582B000AF021C1F
:100DF000FB1D1A70064AFB1D1B78191C1F230B4094
:100E000001219940C0235B00D150BD4602B080BD96
:100E100000E100E080B582B000AF786039607B68A7
:100E20003A685A63BD4602B080BDC04680B582B004
:100E300000AF786039607B689A6B3B681A437B68C7
:100E40009A63BD4602B080BD80B500AF00F006F8E1
:100E500000F030F800F074F8BD4680BD80B500AFFA
:100E600001200521FFF762FD0D4B181C0121FFF742
:100E7000CFFB0C4B181C0121FFF7CAFB0A4B181CB7
:100E80000321FFF753FD094B181C0121FFF7C0FB9D
:100E9000074B181C0121FFF7BBFBBD4680BDC046B8
:100EA000408104000023020003001C0070071600AC
:100EB0000072040090B585B000AF3B1C1E4A13CAF7
:100EC00013C312681A603B1C05221A703B1C962241
:100ED00092019A603B1C00221A733B1C00225A7339
:100EE0003B1C00229A73154A3B1C101C191CFFF76F
:100EF000B7FE124B181C0021FFF718FF0F4B181CF0
:100F00000021FFF737FF0D4B181C0421FFF782FF6C
:100F10000A4B181C0421FFF789FF0A20FFF764FF22
:100F20000A20FFF74BFF054B181C0521FFF75CFE5D
:100F3000BD4605B090BDC046985600000040084030
:100F400080B500AF2E4B2E4A5268F0218A434021D3
:100F50000A435A602A4B2A4AD16A2A4A0A40802107
:100F6000C9010A43DA62264B254A126B80218901A6
:100F70000A431A63224B224AD16A234A0A4080213B
:100F8000C9030A43DA621E4B1D4AD16A1F4A0A404E
:100F9000802189040A43DA62194B194A926F1021A1
:100FA0000A439A67164B164A116F194A0A40802164
:100FB000C9020A431A67124B114A116F124A0A40BA
:100FC000802189030A431A670D4A0D499823C9589D
:100FD0000D4B0B408021C90319439823D1500D4B71
:100FE0000C4A516D0C4A0A40802149000A435A6557
:100FF000084B084A526D03210A435A65BD4680BD1D
:1010000000600040FF0FFFFFFFFF0FFFFFFFFFF03B
:10101000FFFFF0FF00400840FFF8FFFFB0B582B0CF
:1010200000AF021C3960FB1D1A70FB1D1B787F2B63
:1010300032D93049FB1D1B781A1C0F231340083B83
:1010400098082C4AFB1D1B781C1C0F232340083BCF
:101050009B0806339B00D3185B68FA1D1278141C9A
:1010600003222240D200FF24251C95402A1CD24393
:101070001A403B689C01FF231C40FB1D1B781D1C74
:1010800003232B40DB00251C9D402B1C1A43831D92
:101090009B00CB185A6029E0174BFA1D127852B208
:1010A00092081549F81D007840B28008C0308000D1
:1010B0004158F81D0078041C03202040C000FF2484
:1010C000251C8540281CC043084039688C01FF213D
:1010D0000C40F91D09780D1C03212940C900251C6D
:1010E0008D40291C0143C0329200D150BD4602B050
:1010F000B0BDC04600ED00E000E100E080B582B088
:1011000000AF78607B685A1E0C4B9A4201D90123CC
:1011100010E00B4B7A68013A5A6001235B42181CBD
:101120000321FFF77BFF064B00229A60044B072246
:101130001A600023181CBD4602B080BDFFFFFF00EF
:1011400010E000E090B585B000AF021CB9603B1C18
:101150000F331A703B1C0F331B78002B11D03B1C34
:101160000F331B78012B0CD03B1C0F331B78022B49
:1011700007D03B1C0F331B78032B02D03B1C0F33D3
:101180001B780A483B1C0F331A78BB6801210C1CE2
:101190009C40231C191C131CDB009B189B00C318CC
:1011A00010335960BD4605B090BDC0460060004098
:1011B00090B585B000AF021CB9603B1C0F331A70AC
:1011C0003B1C0F331B78002B11D03B1C0F331B78BB
:1011D000012B0CD03B1C0F331B78022B07D03B1C80
:1011E0000F331B78032B02D03B1C0F331B780A48AC
:1011F0003B1C0F331A78BB6801210C1C9C40231C3C
:10120000191C131CDB009B189B00C31810331960BA
:10121000BD4605B090BDC0460060004080B500AF3F
:10122000BD4680BD80B500AF034B1B685A1C024B06
:101230001A60BD4680BDC046D400002080B584B091
:1012400000AF7860064B1B68FB60C046044B1A6811
:10125000FB68D21A7B689A42F8D3BD4604B080BDC1
:10126000D400002080B582B000AF7860396008E01B
:101270003B685A1C3A601B787A68101C191CFFF7EF
:101280003BFD3B681B78002BF2D1BD4602B080BD10
:1012900080B582B000AF1C4BDA6A0423134030D013
:1012A000194B181CFFF716FD021CFB1C1A70174B7C
:1012B0001B68174AF91C0978D154144B1B685A1C37
:1012C000124B1A60FB1C1B780A2B1AD100237B607F
:1012D0000AE07B6801330E4AD25C0D497B68CB186B
:1012E0001A707B6801337B60084B1B685A1E7B6851
:1012F0009A42EEDC064B181C00F032F9034B002238
:101300001A60BD4602B080BD00400840D0000020F9
:101310008001002000000000F0B589B000AF7860C7
:1013200039603B1C1833181C0021032202F01EFAFE
:101330003B1C0C33181C0021092202F017FA3A1C3E
:1013400018327B68101C191C022202F028FA7B68F4
:101350009C1C7B68181C02F01BFA031C023B3A1C05
:101360000C32101C211C1A1C02F019FA3B1C1833F9
:10137000181C02F0B9F9031C0C1C181C211C01F0EC
:10138000A1FF031CFB61F86901F04AFF051C0E1C5C
:101390003B1C0C33181C02F0A7F9031C0C1C181C76
:1013A000211C144B124A00F017FE031C0C1C281CB5
:1013B000311C1A1C231C00F0EBFA031C0C1C181C1B
:1013C000211C01F07FFF031CFB613A680A4B101CD3
:1013D000191C02F0D3F9031C002B04D1FB698022F5
:1013E0001206534000E0FB69181CBD4609B0F0BD71
:1013F0000000000000004E40A8560000C046C04655
:10140000F0B589B000AF786039603B1C1833181C08
:101410000021042202F0AAF93B1C0C33181C002105
:10142000092202F0A3F93A1C18327B68101C191C1F
:10143000032202F0B4F97B68DC1C7B68181C02F004
:10144000A7F9031C033B3A1C0C32101C211C1A1C6C
:1014500002F0A5F93B1C1833181C02F045F9031CD7
:101460000C1C181C211C01F02DFF031CFB61F869EA
:1014700001F0D6FE051C0E1C3B1C0C33181C02F0A0
:1014800033F9031C0C1C181C211C144B124A00F0CD
:10149000A3FD031C0C1C281C311C1A1C231C00F06F
:1014A00077FA031C0C1C181C211C01F00BFF031CF9
:1014B000FB613A680A4B101C191C02F05FF9031C0F
:1014C000002B04D1FB6980221206534000E0FB6927
:1014D000181CBD4609B0F0BD0000000000004E40E1
:1014E000AC560000C046C04680B586B000AFF8607C
:1014F000B9603B60FB1D1A7000237B61FB68BA6812
:101500001A60FB680433FB607B6901337B611BE07D
:10151000BB681B78FA1D12789A4212D1BB68002270
:101520001A70BB685A1CFB681A60FB680433FB60C6
:101530007B6901337B617A693B689A4201DB7B6995
:1015400007E0BB680133BB60BB681B78002BDFD1B1
:101550007B69181CBD4606B080BDC0460000000077
:1015600090B593B000AF78603A1C08327B68101CCD
:10157000191C2C220D23FFF7B7FF031C0D2B00D0E5
:1015800001E13B1C08331A68834B101C191C02F044
:10159000F5F8031C002B00D0F5E03B1C08339A68DB
:1015A0007E4B101C191C02F0E9F8031C002B43D1E0
:1015B0007B4B01221A703B1C0833DB69181C02F0BC
:1015C00093F8031C0C1C181C211C724B704A01F070
:1015D0002BF8031C0C1C181C211C01F073FE021CB0
:1015E000704B1A603B1C08331B6A181C02F07CF815
:1015F000031C0C1C181C211C01F064FE021C6A4B0D
:101600001A603B1C0833DA683B1C08331B69101C4A
:10161000191CFFF781FE021C644B1A603B1C083347
:101620005A693B1C08339B69101C191CFFF7E8FE24
:10163000021C5F4B1A6016E03B1C08339A685D4B36
:10164000101C191C02F09AF8031C002B0BD1544BF0
:1016500000221A70554B00221A60554B00221A6066
:10166000504B00221A603B1C08335B680633002293
:101670001A703B1C08335B68181C02F035F8031C19
:101680000C1C181C211C00F063F9031C7B647B6C90
:10169000181C494900F0EEF8031C1A1C3B1C43338C
:1016A0001A707B6C181C444900F028F90B1C181C9C
:1016B000642100F0DFF8031C1A1C3B1C42331A7033
:1016C0007B6C181C3C4900F019F90B1C181C642198
:1016D00000F014F90B1C1A1C3B1C41331A703B1C04
:1016E00008335B6A181C01F0FFFF031C0C1C181C5C
:1016F000211C00F02DF9031C7B647B6C181C2E4907
:1017000000F0B8F8031C1A1C3B1C40331A707B6CA9
:10171000181C294900F0F2F80B1C181C642100F079
:10172000A9F8031C1A1C3B1C3F331A707B6C181C55
:10173000214900F0E3F80B1C181C642100F0DEF8CE
:101740000B1C1A1C3B1C3E331A701C4B3A1C3E32BD
:1017500012781A701A4B3A1C3F3212781A70194BD1
:101760003A1C403212781A70174B3A1C43321278E6
:101770001A70164B3A1C423212781A70144B3A1CEB
:10178000413212781A70BD4613B090BDC046C046B3
:101790006F1283C0CAA1FD3FB0560000B8560000CA
:1017A0005A010020240100200002002078010020BE
:1017B00070010020BC5600001027000074010020BA
:1017C000220100207C0100206B0100205B01002031
:1017D00075010020C046C04680B500AFFFF71EFD72
:1017E000FFF732FB1E4B181CFEF764FF031C181C8E
:1017F000FA23990000F03EF8031C181CFFF77EFC4A
:10180000031C002B00D0FEE700200121FFF79AFC0B
:1018100004200D21FFF796FC124A134B101C191CD3
:10182000FFF720FD0F4A114B101C191CFFF71AFD82
:101830000F4B1B78002B12D001200B21FFF7B8FCB7
:10184000FA235B00181CFFF7F9FC01200B21FFF7BE
:1018500079FCFA235B00181CFFF7F0FCE8E7E7E7E8
:101860005000020000400840C8560000FC5600002E
:101870005A010020002934D00123002210B48842EC
:101880002CD301242407A14204D2814202D20901AF
:101890001B01F8E7E400A14204D2814202D24900D0
:1018A0005B00F8E7884201D3401A1A434C08A04273
:1018B00002D3001B5C0822438C08A04202D3001B09
:1018C0009C082243CC08A04202D3001BDC08224320
:1018D000002803D01B0901D00909E3E7101C10BC44
:1018E0007047002801D00020C04307B4024802A17D
:1018F0004018029003BDC046190000000029F0D036
:1019000003B5FFF7B9FF0EBC4243891A1847C0461A
:101910007047C0461C2101231B04984201D3000CD0
:1019200010391B0A984201D3000A08391B09984252
:1019300001D30009043902A2105C40187047C04668
:101940000403020201010101000000000000000088
:1019500038B50E4B0C4A041C0D1C01F073FD002819
:1019600004D1201C291C01F027FC38BD074B064A76
:10197000201C291C01F0EAF801F01EFC80231B0644
:10198000C018F2E7C046C046000000000000E04179
:10199000F8B55F46564644464D46F0B40C034D003C
:1019A000CE0F610A440F2143C4001803804658003B
:1019B000400D8246D80F84464046400A530F0343E9
:1019C000D0006D0D371C83465246664500D1A4E019
:1019D000AF1A002F00DC09E1002A3BD1184300D0E8
:1019E000EAE0630700D187E00F232340042B00D1F6
:1019F00082E0221DA242A4416442802309191B04F3
:101A00000B40371C141C002B00D17CE0CE4B013561
:101A10009D4200D105E1CD4BE40819404807490239
:101A200004430B0B002000211B031A0B0B0D6D054B
:101A30001B0513436A08C64DFF071D4015436D0083
:101A40006D08291C3943201C3CBC90469946A2468F
:101A5000AB46F8BDBC488542C3D080200004034398
:101A6000382F00DDF0E01F2F00DD24E12020C01B17
:101A70001A1C814682405846F84002439446584614
:101A80004A469040421E9041FB40624602431F1C62
:101A9000A21A9442A4416442C91B091B141C0B02E4
:101AA0009FD549024F0A002F00D1C8E0381CFFF72C
:101AB00031FF021C083A1F2A00DDB5E02821091A6F
:101AC000201C9740C84007439440954200DDB2E097
:101AD000551B691C1F2900DDDCE01F22551B3B1C28
:101AE000221CAB40CA40AC40651EAC411343CF4002
:101AF0001C43391C002574E780231B040B40371C52
:101B0000002B00D082E7904B4807E4080443C90843
:101B10009D4248D009030B0B84E7AA1A9446002A79
:101B200000DC98E05046002852D08748854200D11A
:101B300057E78020000403436246382A00DDFCE0BA
:101B40001F2A00DD4AE120226046101A1A1C82403A
:101B50008246914658466246D0404A4602439046E5
:101B6000584652469040421E9041424602436046CB
:101B7000C3401219A242A441644259180919141C05
:101B8000080200D42DE7704B01359D4200D122E1BF
:101B90006E4B60081940012323401C1C0443CB07F3
:101BA0001C4349081DE7231C0B433AD080231B0329
:101BB0000B431B031B0B35E7013F002F65D1584634
:101BC000221A9442A4416442C91A091B141C66E7F4
:101BD0005846184300D104E701225242944460461B
:101BE000002800D0C5E058460219C3E7002F73D182
:101BF000681C4005400D012800DCDEE05A46A21AB0
:101C00009442BF41C81A7F42C71B380200D489E002
:101C10005A46141BA3459241591A52428F1A6646DE
:101C200041E700230024FDE6271C283887400024D4
:101C3000954200DC4CE74549AD1A3940D1E6201CFD
:101C4000FFF768FE203034E75A461A43531E9A4184
:101C5000D2B200271CE7002A00D0DCE0681C420555
:101C6000520D012A00DC8DE0374DA84200D1F3E08F
:101C70005D462A19A242A441644259180919CC07A9
:101C8000520814434908051CABE62F48854200D092
:101C9000E6E6A6E62B1C1F3B3A1CDA40131C202963
:101CA0006CD03F22551BAF403C43601E84411C4317
:101CB0000021002595E6381C20381A1CC240101C53
:101CC000202F5DD04022D71BBB405A461A43531EDB
:101CD0009A4102430027DBE6002D3BD01A4DAA456E
:101CE00000D193E080252D047F422943382F00DD69
:101CF000ACE01F2F00DD29E12025ED1B081C261C70
:101D0000A840FE40AC400643651EAC413443F94058
:101D10005D462C1BA34592415B1A5242991A5546C7
:101D20006646BCE6131C3B43141C002B00D0BAE6ED
:101D30000027002100240025E5E65A461A43531ED9
:101D40009A41D2B2002314E7FF070000FFFF7FFF94
:101D5000FFFF0F800D1C254358D0FF43002F51D1AA
:101D6000041BA3459241591A5242891A55466646A8
:101D700095E69648854200D0DEE632E6002793E7F6
:101D80000023A2E7081C2043002D00D0C4E0002857
:101D900000D1F7E05846184300D122E65846021910
:101DA000A242A441644259180919141C0A0200D421
:101DB00017E6874B0125194013E6081C2043002D28
:101DC00039D1002871D15946194303D0191C5C46FA
:101DD000664606E600270021002494E66046203887
:101DE0001A1CC24060469146202800D1ACE0402237
:101DF000121A93405A461A43531E9A414B461A43AD
:101E00000023B6E6714DAA4500D06FE7191C5C4669
:101E100055466646E5E5002D22D10D1C254377D0B9
:101E2000D543002D71D15C445C4592415918524212
:101E300089185546A4E600284DD15946194300D1CA
:101E400094E0191C5C466646604DCAE50C43611E71
:101E50008C41E4B200215BE7051C0021002452E61E
:101E60005A4DAA4554D05542802210040143382DC2
:101E700000DD81E01F2D00DD92E02022501B0A1CB6
:101E800084468240201CE8400243904662469440CB
:101E9000601E844142461443E9405C445C459241E3
:101EA000CB185242991855466AE65846184300D155
:101EB00097E55846271ABC429241C81A5242801AE6
:101EC000020266D55846041BA3459241591A524254
:101ED000891A664685E55846184333D04807E40812
:101EE00004438020C9080003014208D0DD080542F0
:101EF00005D15946CA085C071443291C6646630F7E
:101F0000C9001943E400314D6BE5304A9245AED12A
:101F1000191C5C46554664E5002836D058461843DF
:101F200010D080254807E408C9082D03044329423E
:101F3000E5D0D8082842E2D15D46EA085C071443A0
:101F4000011CDCE7214D4CE5002353E73D1C203DFF
:101F50000A1CEA40151C202F34D04026F71BB9403C
:101F60000C43611E8C412C430021D1E6082400273C
:101F700018496442154DC6E50C43611E8C41E4B21C
:101F800000218AE7191C5C462BE5191C5C460F4DA5
:101F900027E5031C3B4300D11CE7011C3C1C20E54A
:101FA0002020404240190A1CC2409046202D0BD0F0
:101FB0004020451BA9400C43611E8C4145462C43E3
:101FC00000216AE70021CBE70021F4E7FF070000CA
:101FD000FFFF7FFFFFFF7F00F0B5564644465F4698
:101FE0004D46F0B41F1C0B031B0B98464B0087B0EB
:101FF000041C81465B0DC80F161C9A460090002BEE
:1020000051D06B4B9A4531D08022414652030A434E
:10201000630FD2001A43674B90460025E2009146B9
:102020009A44002402953B031B0B9B46FD0F7B004B
:10203000311C5B0D019560D05D4A934254D08021E4
:10204000584649030143720FC9001143594A8B4650
:102050009B18F1000020009A04436A4003920F2C61
:1020600000D9B1E0544EA4003459A7464046044379
:102070006ED1002102250824884689460295D2E7C0
:10208000009C0298C34649460194022864D0032864
:1020900000D1AFE2012800D03CE2019A00240240C6
:1020A0000025A14660E0434623434AD0404600282D
:1020B00000D1C4E1FFF72EFC031E272B00DDB7E1A2
:1020C00028210D1A211C083B4246E9409A400D1C6C
:1020D0001543221C9A40A8469146384B00251B1AEE
:1020E0009A46002402959EE75A4616430320002E86
:1020F000B1D1B34600210220ADE75A4632431BD08E
:102100005B46002B00D18EE15846FFF703FC2728E1
:1021100000DD81E12822171A011C321C08395B46B8
:10212000FA408B40171C1F43331C8B40BB46191CC5
:10213000224B1B1A00208EE70027BB4600210120FE
:1021400089E70020012504248046814602956AE73C
:1021500003250C24029566E7019C0394039D01224C
:102160002A400024124DA146002000212403260B02
:102170000C0D2405124B34432D0523402B435B00EB
:102180005B08D207191C4846114307B03CBC904677
:102190009946A246AB46F0BD01235B420022094CA2
:1021A0009946034DE0E700240025A146DCE7C04640
:1021B000FF07000001FCFFFF0C5700000DFCFFFFB4
:1021C000FFFF0F80FFFF0F005546ED1A0495D8451D
:1021D00000D953E100D14EE1049C0025013C4E465C
:1021E00004944746A946584603020C0E1C430902B4
:1021F000250C23041B0C0091381C291C0193FFF7AC
:1022000039FB019983464143381C8A46291CFFF754
:1022100075FB330C090419438A450CD95B4609192F
:10222000013B8C4200D947E18A4500D844E10222B3
:102230005242934409195346CB1A181C291C98463C
:10224000FFF718FB071C0198291C7843824640467B
:10225000FFF754FB36040B04360C33439A4509D977
:102260001B197A1E9C4200D924E19A4500D821E12D
:10227000023F1B195E4632041743380CBB46009ED2
:10228000009F51463F0C32045B1A5946BA46120C65
:102290000F043F0C904651467A434F434146414319
:1022A00056467043CF19160CBE19B14202D9802789
:1022B0007F02C019310C12043604120C4018B618F3
:1022C000834200D2C4E000D1BEE0191A4846861B02
:1022D000B145BF417F42CF1BA74200D113E1291C6A
:1022E000381CFFF7C7FA019902904143381C894610
:1022F000291CFFF703FB330C0904194389450CD94A
:10230000029B0919013B8C4200D9FFE0894500D8A6
:10231000FCE0029F0919023F02974F46CF1B381C71
:10232000291C0597FFF7A6FA071C0198291C78437A
:1023300081460598FFF7E2FA36040904360C0E438D
:10234000B14509D936197B1EB44200D9E0E0B14548
:1023500000D8DDE0023F3619029D4946761A29046D
:1023600039430B0457460A0C1B0C4046454658435C
:1023700055437B437A43EB18070CDB199D4202D986
:1023800080256D0252191D0C00041B04000C52190B
:102390001B18964235D300D1FCE001231943049E5B
:1023A000994FF519002D00DCA1E0480709D00F2353
:1023B0000B40042B05D00B1D8B42894149428B44B5
:1023C000191C5A46D20107D5904B5C46049E8027C3
:1023D0001C40FF00A346F5198D4B9D427ADD039CFE
:1023E0000122224000248B4DA146BDE68024240317
:1023F000474627424CD13C432403240B009A854D89
:10240000B2E63619481EB4425ED9011C9642C4D1C8
:10241000009E9E42C1D1C2E7031C283B311C99405B
:102420008B46002184E6301CFFF774FA20306EE6FC
:10243000283B211C99400022884691464DE6201CED
:10244000FFF768FA203037E60021B14500D33DE7B9
:10245000009F5A46B944B945BF417F423F19FB1816
:10246000013A9C421ED2984200D97EE000D1B5E0EC
:10247000191A93462AE7894500D8ADE648464646EC
:1024800042467708D3074608C0071E438146AAE69E
:102490005846204212D1044324032A1C240B8946A7
:1024A0005C4D61E6A342E3D1009F4F45DBD9211A81
:1024B00093460BE7171CDDE69B46BCE63C43240332
:1024C000240B009A534D4FE6B24259D800D18AE00E
:1024D000011C62E75F46C9087B07039E0B437C0231
:1024E0006D0501229946240B6D0D32403CE64A4BA6
:1024F000049FDB1B382B10DD039C012222400024AB
:102500000025A14630E60121494248E7029304E74D
:102510001F1C21E7019C039441E71F2B40DC3F482F
:10252000049F0C1C3A1858469140DC4090402043D0
:102530000A1C511E8A41011C11435A46DA40131CE1
:10254000480709D00F220A40042A05D00A1D8A42F2
:10255000894149425B18111C1A0234D5039C01229F
:10256000224000240125A146FEE5009F02214942A8
:10257000B9448B44B945894149420919CB18A4E6AD
:10258000009D881E6900A942AD416D422C19361983
:1025900000913AE7002B00D033E70024009437E79E
:1025A0001F4A049C5D46121BD5402A1C202B1FD0BD
:1025B0001C4E5F46A3199F403B1C19434B1E99417B
:1025C00011430023BCE75A07C9080A43039F9146F9
:1025D0005B0201221C0B3A400025C5E54E45C4D8DC
:1025E0009346002172E6009F9F42C9D3011C0FE76A
:1025F0000023E2E7802424035F463C432403240BAA
:10260000019A8946034DAFE5FF030000FFFFFFFE7F
:10261000FE070000FF07000002FCFFFF1E04000091
:10262000E2FBFFFF3E040000F0B5564644465F461D
:102630004D46F0B41F1C0B031B0B9A464B0087B092
:10264000041C80465B0DC80F161C02938146002BAC
:1026500068D0694B0299994232D080225346520386
:102660001A43D200630F1A439246644AE000891865
:1026700080460291002400253B031B0B9B467800FB
:10268000FB0F321C400D039300D175E05A4B98426A
:1026900069D08022594652030A43730FD2001A436D
:1026A000564B9346C018F200002303994E467140E2
:1026B0001C430F2C00D9ABE0514EA4003459A7465F
:1026C00053461C4300D087E00025AA46A8460824AC
:1026D0000225D1E74946022D6CD0032D00D119E225
:1026E000012D00D05AE10D40EDB20024A94600238F
:1026F000A0460020002125030A0D1C052D0B120504
:10270000404B2A43134023435B004C465B08E207DF
:10271000191C4046114307B03CBC90469946A2465E
:10272000AB46F0BD5346234350D05346002B00D157
:1027300086E15046FFF7EEF8031E272B00DD78E117
:1027400028210D1A211C083B5246E9409A400D1CD5
:102750001543221C9A40AA4690462B4B00241B1A74
:102760000293002588E75B461E430323002E9CD17D
:10277000B3460022022398E75B46334321D05846F4
:10278000002800D150E1FFF7C5F8272800DD44E11B
:1027900028210F1A021C311C083A5B46F94093406D
:1027A0000F1C1F43331C9340BB461A1C164B181AB0
:1027B00000237AE701230B4000249946A0460E4BE4
:1027C00097E70027BB46002201236EE7002104247F
:1027D0008A46884601254FE70C2403254CE7012350
:1027E0005B4200259846A946084C034B81E7DA4630
:1027F000904603991D1C6EE7FF07000001FCFFFFD8
:102800004C570000FFFF0F800DFCFFFFFFFF0F0084
:10281000029F160C381804904046070C0004000C68
:102820001204120C031C5343041C3D1C74435543F7
:1028300098463B1C73436419A44644460293230CF8
:1028400063449D4204D9029D802464022D1902959F
:102850001D0C039545462C041B04240C1C190594DF
:102860005C46230C051C58432404240C8446381C65
:10287000604365435F438146CC44280C6044BB46BB
:10288000814502D980277F02BB442D04070C2D0C03
:10289000000440195546BC462F04E3448446280CE6
:1028A0003D0C2F1C5743B8462F1C77434243B94673
:1028B00047463F0C9144BA46D14446434A4502D963
:1028C00080225202B6184F463A0CB6183A044746D0
:1028D0003F043F0CB8462F1C67435D4344435843B5
:1028E00065190190380C2D184244B846AC4204D901
:1028F000019880235B02C0180190039C029F201C5A
:102900006044C0196045A44147466442A4462B0474
:102910003C049946240C4C44A046D8448018C24636
:10292000E24490429241574652429146F219E245A2
:10293000BF417F424B46BC46D845BF41D4187F4279
:1029400063461F432D0C7F19B24292414C45AD4165
:1029500052426D421543019E7D19AB19E20D5B0297
:10296000059F134342023A439A46531E9A41C30DB0
:10297000101C18436402204380465046C0010DD508
:10298000454601225646049C6B082A401A43F30729
:1029900001341A43760804949046B246049E634F6D
:1029A000F319002B61DD404640070BD00F2244464F
:1029B0002240042A06D04246043242458041404229
:1029C000824490465546ED0107D5594B5646049F23
:1029D00080201E40C000B2463B18564A934200DD9C
:1029E000E8E644465546E2086807104301226C02B7
:1029F0005B050A408046240B5B0D914679E6DA467A
:102A000090461D1C67E680242403574627421CD1AC
:102A10003C432403240B484B6BE6031C283B311C2E
:102A200099408B460022C1E6301CFEF773FF203030
:102A3000ABE6283B211C994000228A4690468CE652
:102A4000201CFEF767FF203076E65846204207D16B
:102A5000044303992403240B89469046364B48E6E9
:102A60003C432403240B344B43E6344B049E9B1B12
:102A7000382B06DD01230B4000249946A046002395
:102A800037E61F2B25DC049C2D4D46466019524627
:102A900044468640DC4082405746301C2243DF409B
:102AA000441EA04102433B1C540709D00F20104094
:102AB000042805D0101D9042924152429B18021CDE
:102AC0001D021AD501230B4000249946A04601237C
:102AD0000FE61C48049C5546001BC540281C202BB3
:102AE00016D0194E5746A21997403A1C43461A432E
:102AF000531E9A4102430023D6E758075B02D208CF
:102B00001C0B01230B401043994680460023F0E53F
:102B10000022EBE78024240350460123044319409C
:102B20002403240B8946044BE3E5C046FF03000061
:102B3000FFFFFFFEFE070000FF07000002FCFFFF93
:102B40001E040000E2FBFFFF3E040000F8B55F46F4
:102B5000564644464D46F0B40C034D00CF0F610A73
:102B6000440F2143C4001803DE0F8046B446464696
:102B70005800760A530F3343D600D14A6D0DBA463A
:102B8000400DB346904200D1F5E062460126724006
:102B90009446674500D1ABE02F1A002F00DC11E10D
:102BA00000283ED15846184300D0F1E0600700D11C
:102BB00097E00F232340042B00D122E1221DA242E3
:102BC000A4416442802309191B04012750460B408D
:102BD0000740141C002B00D179E0B94B01359D4210
:102BE00000D10BE1B74BE408194048074902044300
:102BF0000B0B002000211B031A0B0B0D6D051B0591
:102C000013436A08B04DFF071D4015436D006D0862
:102C1000291C3943201C3CBC90469946A246AB4631
:102C2000F8BDA7488542C1D0802000040343382F57
:102C300000DDFDE01F2F00DD31E12020C01B1A1C4C
:102C40005E468240FE40324394465A468240101C03
:102C5000421E9041FB40624602431F1CA21A94424E
:102C6000A4416442C91B091B141C0A029ED54902D7
:102C70004F0A002F00D1D6E0381CFEF74BFE021C95
:102C8000083A1F2A00DDC3E02821231C091A9740B7
:102C9000CB401F439440954200DDC0E0551B691CAA
:102CA0001F2900DDEAE01F22551B3B1C221CAB4004
:102CB000CA40AC40651EAC411343CF401C43391C95
:102CC000002573E7082481497D4D002764427C4B31
:102CD0004807E4080443C9089D4250D009030B0B80
:102CE00087E780231B04012752460B40174071E7FA
:102CF0002A1A9446002A00DCA1E0002854D070482B
:102D0000854200D152E78020000403436046382802
:102D100000DD10E11F2800DD59E162462020801A05
:102D20001E1C8640B1465E46D6404A4632435E4649
:102D300086409046301C421E904142460243604607
:102D4000C3401219A242A441644259180919141C23
:102D5000080200D42AE75A4B01359D4200D133E1E5
:102D6000584B60081940012323401C1C0443CB0727
:102D70001C4349081AE71E4300D00AE705E7231C55
:102D80000B433BD080231B030B431B031B0B30E780
:102D9000013F002F6DD15E46A21B9442A4416442C4
:102DA000C91A091B141C60E75846184300D1FDE6F8
:102DB00001267642B4446046002800D0D2E05E4648
:102DC0003219BFE7002F00D082E0681C4005400D9B
:102DD000012800DCEAE05A46A21A9442BF41C81A10
:102DE0007F42C71B3E0200D49AE05846041BA3450D
:102DF0009241591A52428F1AE2463AE700230024C0
:102E0000F7E680231B04012756460B403740E1E6D6
:102E1000271C283887400024954200DC3EE72949DA
:102E2000AD1A3940C2E6201CFEF774FD203026E7BB
:102E30005A461A43531E9A41D2B200270EE7002A7F
:102E400000D0E0E0681C4605760D012E00DC92E023
:102E50001B4DA84200D1F7E05E463219A242A441C0
:102E6000644259180919CC07520814434908051C33
:102E70009CE61348854200D0D9E697E62B1C1F3B01
:102E80003E1CDE40331C202971D03F22551BAF4031
:102E90003C43601E84411C430021002586E6381C0B
:102EA00020381E1CC640301C202F62D04022D71B69
:102EB000BB405A461A43531E9A4102430027CDE6AF
:102EC000FF070000FFFF7FFFFFFF0F80FFFF7F0076
:102ED000002D37D0B64DA84200D18FE080252D04BB
:102EE0007F422943382F00DDA8E01F2F00DD24E1B9
:102EF0002025ED1B0E1CAE40B046261CFE4042466F
:102F0000AC401643651EAC413443F9405A46141B8D
:102F1000A34592415B1A5242991A051CE246A4E667
:102F2000131C3B43141C002B00D0A2E600270021F9
:102F300000240025CBE65A461A43531E9A41D2B2CA
:102F40000023FEE60D1C254358D0FF43002F51D12E
:102F50005A46141BA3459241591A5242891A051C1C
:102F6000E24682E69248854200D0CFE61EE6002780
:102F70008EE700239DE7081C2043002D00D0C2E00F
:102F8000002800D1EFE05846184300D10EE658461D
:102F90000219A242A441644259180919141C0A02D8
:102FA00000D403E6834B01251940FFE5081C2043AC
:102FB000002D38D100286FD15946194303D0191C70
:102FC0005C46E246F2E50027002100247FE66046E9
:102FD00020381A1CC2406646101C202E00D1AAE0E0
:102FE0004022921B93405A461A43531E9A41024371
:102FF0000023A6E66E4DA84200D073E7191C5C467C
:10300000051CE246D2E5002D22D10D1C254376D0C9
:10301000D543002D70D15C445C4592415918524211
:103020008918051C94E600284CD15946194300D153
:1030300048E6191C5C46E2465D4DB7E50C43611E4F
:103040008C41E4B2002161E7051C002100243EE62A
:10305000574DA84253D05542802216043143382D93
:103060007BDC1F2D00DD8CE02022561B0A1CB446A1
:10307000B240261CEE403243904662469440661EA3
:10308000B44142461443E9405C445C459241CB184C
:1030900052429918051C5BE65846184300D185E555
:1030A0005E46A71BBC429241C81A5242801A0602D1
:1030B00060D55846041BA3459241591A5242891AB9
:1030C000E24673E55846184333D04807E408044302
:1030D0008020C9080003014208D0DD08054205D15F
:1030E0005946CA085C071443291CE246630FC9000D
:1030F0001943E4002E4D59E52D4A9042AFD1191CD9
:103100005C46051C52E5002830D05846184310D0C4
:1031100080254807E408C9082D0304432942E5D067
:10312000D8082842E2D15D46EA085C071443011C36
:10313000DCE71F4D3AE5002355E73D1C203D0E1C02
:10314000EE40351C202F2ED04026F71BB9400C43F3
:10315000611E8C412C430021D8E60C43611E8C413A
:10316000E4B2002190E7191C5C461FE5191C5C467F
:103170000F4D1BE5031C3B4300D124E7011C3C1C05
:1031800014E52026764276190A1CF2409046202D3E
:103190000BD04026751BA9400C43611E8C4145464F
:1031A0002C43002170E70021D1E70021F4E7C0465D
:1031B000FF070000FFFF7FFF70B50B1C124C0903D7
:1031C0000E0B5900021C490DDD0F0020A14211DD3C
:1031D0000E4881420FDC8020400306430C48401A11
:1031E0001F280BDD0B4A521AD640321C5042002DCC
:1031F00000D1101C70BD084BE818FBE7074BC2401C
:10320000C9188E403243F1E7FE0300001D040000A0
:103210003304000013040000FFFFFF7FEDFBFFFFFE
:1032200043001B0E5A1C4102D2B270B54C0AC50FA6
:10323000012A17DDE02292006407090B981800228A
:1032400000231E0D221C34050C431B494005400879
:103250002140014349004908ED070B1C2B43101C7A
:10326000191C70BD002B15D1002C1CD0201CFEF7A2
:1032700051FB0A281ADC0B21091A231CCB40191C0C
:10328000031C15339C400D4B0903181A4005090B0C
:10329000400DD4E7002C03D06407090B0848CEE7A3
:1032A00007480021CBE700200021C8E7011C0B39AB
:1032B0008C40211C0024E6E7FFFF0F8089030000FB
:1032C000FF070000F0B54B000D03420F5B0D6D0AC8
:1032D00015435A1C5205CC0FC600520D012A27DD9A
:1032E000394FDA19FE2A1ADC002A35DD8001ED009B
:1032F000431E98412843760F3043430704D00F23E1
:103300000340042B00D004308021C904014027D0A1
:103310000132FF2A1DD083015B0AD1B201E0FF21F7
:1033200000235802C905400AE40708432043F0BDC2
:10333000002B06D1354311D10021002043025B0A46
:10334000EFE72E43EBD08020ED0080042843FF22DE
:10335000D3E7FF210023E4E717320DDA052000222E
:10336000C008D1B2FF2AE9D10028D9D08023DB03DD
:1033700003435B025B0AD4E780221449120415431D
:10338000C91A1F290DDC124A371C9B18281C9F40A4
:1033900098403B1C5A1E93411843CE4030430022B4
:1033A000ABE70C4F2A1CFF1AFA40171C202909D042
:1033B000094A98188540281C3043461EB0413843BE
:1033C00000229AE70020F7E780FCFFFF9E03000041
:1033D00082FCFFFF7E030000A2FCFFFF8446101C5E
:1033E00062468C46191C634600E0C0461FB500F0DB
:1033F000F7F8002801D40021C8421FBD10B500F025
:103400002BF84042013010BD10B500F0E9F800285B
:1034100001DB002010BD012010BDC04610B500F03A
:10342000DFF8002801DD002010BD012010BDC046DE
:1034300010B500F05BF8002801DC002010BD012071
:1034400010BDC04610B500F051F8002801DA002088
:1034500010BD012010BDC046F0B55F4656464D4632
:103460004446F0B40D1C041C8046E80F8146180346
:103470000F03000B3F0B83B084461B4800974900A5
:103480005E00DF0F490D9246760DBB4681420CD09F
:103490001548864210D00120B14215D003B03CBC83
:1034A00090469946A246AB46F0BD009F01202743B7
:1034B000F4D10D488642EED1604602430120002A35
:1034C000ECD10120B142E9D1009B6345E6D1D04562
:1034D000E4D1D94506D00029E0D11C43201C441E6C
:1034E000A041DBE70020D9E7FF070000F0B55F4609
:1034F00056464D464446F0B4CD0FDE0FAC461D0394
:103500002D0BB146354E0F034C00AB465D00804697
:103510003F0B640D92466D0DB44231D02F4EB54233
:1035200034D0002C0ED1384341424141081C002DBB
:103530000BD0002919D1CC452CD06646002E17D1CE
:10354000012017E0002DF6D1281C59460A435342AA
:103550005341002806D1002BEDD065460120002DF7
:1035600008D005E00020002B04D14B46002BE7D10A
:10357000012040423CBC90469946A246AB46F0BD75
:103580003E1C0643CAD002204042F3E75E46164383
:10359000C7D0F8E7AC4205DC09DA6346002BE7D078
:1035A0000120E7E761460029E2D10120E2E75F451B
:1035B00008D80CD000205F45DCD26646002ED7D05C
:1035C0000120D7E76546002DD2D10120D2E7D045B2
:1035D000F8D80020D045F0D3CCE7C046FF07000064
:1035E000F0B556464D4644465F46F0B40D1C83B0D8
:1035F000041C0190E80F814618030F03000B3F0BDA
:1036000084463848009749005E00DF0F490D924616
:10361000760DB846814233D03248864235D00029F3
:1036200017D0002E1ED1341C67463A4353425341F3
:10363000002C1ED00020002B04D14046002816D1BB
:103640000120404203B03CBC90469946A246AB469E
:10365000F0BD0098044360426041041C002EE3D09A
:103660000028EAD1C14515D04F46002FE8D10120EE
:10367000E8E7002BF6D04B460120002BE2D0DFE735
:10368000009F02202743DDD1C6E76746022017438B
:10369000D8D1C4E7B14204DD48460028D0D101208A
:1036A000D0E7B14204DA4B46002BC9D00120C9E76C
:1036B000009F674509D80DD0009F00206745C1D203
:1036C0004F46002FBCD00120BCE74B46002BB7D1A2
:1036D0000120B7E701985045F7D8019B00205345DA
:1036E000EED3AFE7FF07000008B5002100F0C0FEF1
:1036F00008BD0000084B10B5041C002B02D00021AF
:1037000000E000BF054B1868836A002B00D0984783
:10371000201C01F08BFEC046000000009057000006
:1037200070B50E4B0E4D0024ED1AAD101E1CAC42B0
:1037300004D0A300F35898470134F8E701F054FF90
:10374000084B094D0024ED1AAD101E1CAC4204D0EC
:10375000A300F35898470134F8E770BDA800002093
:10376000A8000020A8000020AC000020031C821844
:10377000934202D019700133FAE7704702780B7850
:1037800001300131002A01D09A42F7D0D01A704797
:103790000023C25C0133002AFBD1581E704730B5AC
:1037A000031C002A07D00C7801335D1E013A2C70EF
:1037B0000131002CF5D19A18934203D000211970E1
:1037C0000133F9E730BD30B502680C780132002CC6
:1037D0000BD013781D1C413DEDB2192D00D82033BC
:1037E0000131A342F1D0002001E00260012030BD90
:1037F00070B5161C0D1C01F043FC002E0BD06B00A5
:103800005B0D6B22D31A002B05DD034D1C056319DC
:103810000022FEF709FF70BD0000F03F000000002D
:10382000F0B5BE4FBC4EA1B0002308900A9119928A
:103830001C931B911B9A13780D2B05D8092B15D2BD
:10384000002B00D1C1E114E02B2B07D02D2B02D08F
:10385000202B0ED10AE00124169401E000251695D4
:10386000531C1B935378002B05D1AEE101321B9200
:10387000E0E7002416941B9D00242B780D94302B38
:103880005AD16B78582B01D0782B49D1169C1CABA0
:103890000093019408981BA9A14A1DAB00F042FEB9
:1038A00007240790044001D100F0B0FD062C02D19E
:1038B00001351B958BE11C9A002A07D01EA83521E3
:1038C00001F0CEFC08981C9901F03BF91D9B062CD9
:1038D0001CD8201C01F0ACFD040A0714170A0400D0
:1038E00000273E1C12E01E9E1F9F0FE08D488E4A4F
:1038F0001B181F991B050A401F1C1E9E174305E03D
:103900008A4F002602E00123894F5E42079C24076C
:1039100001D400F07BFD80231B061F4300F076FDE1
:103920001B9B5A1C1B925B78302BF9D0002B01D1CA
:1039300000F06CFD01250D951B9C002510940B9546
:103940000E9509951B9C25782B1C303BDAB2092A71
:1039500012D8099D0A22082D04DC0E9D6A439B188B
:103960000E9303E00B9D6A439B180B93099D013452
:10397000013509951B94E5E7089801F09DF800686A
:103980000790089801F098F80068FFF701FF079981
:10399000021C201C01F010FD041E06D0099C002012
:1039A0002B1C079484460C9063E008981B9D01F043
:1039B00083F80068FFF7ECFE2D181B952B78099D06
:1039C000281E48D1302B05D11B9B01305A1C1B925D
:1039D0005B78F7E71A1C313A082A45D81B9C8446C5
:1039E000002010940790303B421C002B2DD00799EB
:1039F0009444079D01314C1B94420EDA4C1E082C56
:103A000004DC0E9D0A2465430E95F2E71029F0DCD4
:103A10000B9D0A2465430B95EBE7C243D217104078
:103A20002818441C0794082806DC0E9D0A226A43C5
:103A3000D2180E92002208E0079C0022102C04DC11
:103A40000B9D0A216943C9180B911B9B101C591C23
:103A50001B915B7803E0099D201C0795A4461A1C66
:103A6000303A092ABFD902E000240794A446012174
:103A70000C912022191C9143002245295FD1079BFC
:103A80000D9C03432343934200D19EE01B9D2B1CBE
:103A900001331B936B780A952B2B03D02D2B03D06E
:103AA000119208E0119201E0012111910A9B0A9CF8
:103AB00002331B93A3781A1C303A092A3CD8302BC6
:103AC00004D11B9B5A1C1B925B78F8E71C1C313CF1
:103AD0000022082C33D81D1C1B99303D1B9B5A1CFF
:103AE0001B925B781C1C303CE4B2092C04D80A22DF
:103AF0005543ED18303DF1E7521A0F920D4C0F99D6
:103B0000221C082903DC2A1EA24200DD221C119C73
:103B1000002C14D0524212E000000000000000000F
:103B2000B457000033040000FFFFEFFF0000F07FF8
:103B3000FFFFFF7F1F4E00000A9D00221B95079C80
:103B4000002C48D10D9D284301D000F05FFC0C985B
:103B500000283AD14E2B1CD002DC492B05D034E092
:103B6000692B02D06E2B14D02FE01BA8A849FFF7B9
:103B70002AFE002829D01B9B1BA8013BA5491B93AB
:103B8000FFF721FE002802D11B9B01331B93A24F9C
:103B900018E01BA8A149FFF716FE002815D01B99B5
:103BA0000B78282B0DD11BA89D491EAA00F0EAFE18
:103BB000052806D1984A1F9B171C1F431E9E00F024
:103BC00025FC984F002600F021FC0A9C1B94002540
:103BD000169500F01BFC6446099D141B0A94002DE9
:103BE00001D1079C0994079C102C00DD10240E982D
:103BF00001F0C6FC061C0F1C092C15DD231C8A4A8B
:103C0000093BDB00D3181A685B68FEF70DFD061C44
:103C10000B980F1C01F0B4FC021C0B1C301C391C4F
:103C2000FDF7B6FE061C0F1C079D0F2D3ADC0A9D02
:103C3000002D01D100F0EAFB26DD162D07DC7A4BC2
:103C4000EA009A18106851683B1C321C17E0079D67
:103C500025235B1B0A9D9D4224DC079C0F22151B1C
:103C6000714CEB00E31818685968321C3B1CFEF7D6
:103C7000DBFC0A9A571BFF00E41922686368FEF711
:103C8000D3FC061C0F1CC1E30A9D16350ADB0A9CF7
:103C9000654BE2009A1A301C391C53681268FEF713
:103CA0009BF9EEE7079D2C1B0A9D2C19002C56DD75
:103CB0000F2323400AD05C4ADB00D31818685968E8
:103CC000321C3B1CFEF7B0FC061C0F1C0F239C4350
:103CD00000D1B7E09A235B009C420EDD00240794DC
:103CE000099410940E94089D109C222300262B60AA
:103CF000494FB44200D075E388E32411301C391CCD
:103D00000025012C0BDDE20706D5484BEA00D3184D
:103D10001A685B68FEF788FC01356410F1E7444BD4
:103D2000ED00CF18414B061C5D19321C3B1C286866
:103D30006968FEF779FC384B0F1C0B403D49061CA7
:103D40008B42CBD83C498B4203D901233B4F5E4287
:103D500002E0D425AD047F1900240B9474E0002CFC
:103D600070D064420F2323400AD02F4ADB00D318BF
:103D7000301C391C1A685B68FEF72EF9061C0F1CF4
:103D800024115FD01F2C05DD00250795099510959E
:103D90000E9521E1E3066A25DB171D400B95284DA2
:103DA000301C391C002C08DDE20703D52A686B683B
:103DB000FEF73AFC64100835F4E70B9C061C0F1C58
:103DC000002C17D04B005B0D6B21CB1A002B11DDA3
:103DD0001F2B0BDD0026342B02DDDC239F0409E0C2
:103DE0000121203B494299400F4003E00122524209
:103DF0009A401640301C391C044B034AFFF7FEFA68
:103E00000028C1D120E0C0460000000000000000F2
:103E1000A8570000AB5700000000F07FB15700002A
:103E2000945700000000F8FFF8570000D058000039
:103E30000000B0FC0000A07C0000907CFFFFEF7F42
:103E4000C857000000250B950E9C08980094109907
:103E5000099A079B00F0CCFE1090002800D13DE7A6
:103E60000A9D00246B42EA171340179307940994A4
:103E7000109D08986D68291C069500F02AFE0E908A
:103E8000002800D12FE71098109900690C31021C0E
:103E90000E98023292000C3000F012FE1DAB00931F
:103EA0001EAB01930898321C3B1C1296139701F02D
:103EB0005BF91C90002800D115E70898012100F05B
:103EC00020FF0990002800D10DE70A9D00240D94E1
:103ED000AC4200DA0D951D9B002B00DA86E0179DA1
:103EE0000D99EC180B9D1E985B1B36251A182D1A80
:103EF000C7480123824200DB82E0801A2D1A1F2866
:103F000078DC83400020189311900B9863194D19A9
:103F10000C932D18A34200DD231CAB4200DD2B1CAB
:103F2000002B04DD0C99ED1AC91A0C91E41A179AAA
:103F3000002A69D10C9800287EDC0D99002900D058
:103F400084E0002D00DD8BE0002C00DD92E008987D
:103F50001C990E9A01F02DF80790002800D1C2E6B6
:103F6000C4680025C56009990F9401F007F8A842BC
:103F700000DB8EE0AC4200D01FE2AE4200D01CE27B
:103F80003B03AB4200D018E2A24AD6233A40DB04FE
:103F90009A4200D811E207984069A84274D0079964
:103FA0000898012200F098FF0999079000F0E6FFB9
:103FB000002800DC01E20B9C964B002C00D199E01C
:103FC0001A1CD6213A40C9048A4200D992E0DC2367
:103FD0009B049A4200D9F3E1089D109C2223834F51
:103FE000814E2B60002C00D0FCE10FE20D9CE11A09
:103FF000179C77E78848821A181C9040119001E0BE
:1040000000221192189380E70898099900F012FF96
:104010000990002800D166E6089809991C9A00F0DA
:1040200079FE0F90002800D15DE608981C9900F0F9
:1040300088FD0F9B1C937DE708981C990C9A00F053
:104040004BFF1C90002800D077E74CE608980E99AB
:104050000D9A00F0EFFE0E90002800D071E742E6C6
:1040600008980E992A1C00F037FF0E90002800D007
:104070006AE738E608980999221C00F02DFF09909C
:10408000002800D063E72EE607990969012986DC3C
:1040900093E1002865D10F9C3A03002C25D05F499D
:1040A0003B1C120B8A422ED101210B9D4942301C30
:1040B0000A1C002D0AD0574CD4253C40ED04AC42DC
:1040C00004D8240D6B22121B91400A1C90421AD175
:1040D000534A934202D1013000D104E64D4A802078
:1040E000134040031F18002667E1002A0BD1002E61
:1040F00009D160E74B4D494A3B405B19171C1F43F0
:1041000001235E4259E1119C002C03D03C4200D1B6
:1041100053E103E0189D354200D14EE10F9C301C65
:10412000391C0B9A002C0AD0FFF762FB021C0B1CF7
:1041300012981399FDF72CFC061C0F1C3DE1FFF7AC
:1041400057FB021C0B1C12981399FEF7FFFC274B20
:10415000254A061C0F1CFFF751F9002800D03BE749
:104160002BE10798099901F057F8214A214B041CCB
:104170000D1CFFF753F900285AD00F98002806D0DD
:10418000294A00211C4C1D4D0C910D9261E0002E1E
:1041900002D13B0305D10BE0012E02D1002F00D14B
:1041A0001AE721480023164C164D0C930D9050E051
:1041B000201C291C104A114BFFF726F9002808D1B2
:1041C000201C291C104A114BFEF72EFA0C900D9161
:1041D00003E00F9C154D0C940D950D988021090658
:1041E0000C9C451835E0C0460000000000000000AF
:1041F0000000000000000040000000000000F03F50
:10420000000000000000F0BF000000000000E03FE0
:1042100003FCFFFF0000F07FE3FBFFFFFFFF0F0049
:10422000FFFFEF7F0000F0FF0000F03F0000E03FE5
:10423000201C804B7E4A291CFEF7F6F90F9C0C903F
:104240000D910B1C002C02D180252D064B190C9CC6
:104250001D1C8148814B3840119098422BD11299F6
:10426000139A149115927E4A301CBF18391C00F025
:1042700007FF021C0B1C201C291CFEF7D5F9021C91
:104280000B1C301C391CFDF783FB734A754B061C55
:104290000A409A420BD9744B159C9C4203D1149D41
:1042A000013500D11FE501236F4F5E4274E0D42039
:1042B00080040F183AE00B99002925D0119AD423D5
:1042C000DB049A4220D80C980D995B4A5B4BFFF7B0
:1042D000A5F8002813D00C980D99FDF739FB00289C
:1042E00000D1012001F04CF90F9C0C900D910B1C9A
:1042F000002C02D180252D064B190C9C1D1CD620AC
:10430000C00411992B185D1A1298139900F0B8FE89
:10431000021C0B1C201C291CFEF786F9021C0B1C1E
:1043200012981399FDF734FB061C0F1C0B9C129777
:10433000002C31D1484B119D3B409D422CD10D9911
:104340000C98FEF739FF01F0DDF8021C0B1C0C98ED
:104350000D99FEF7FBFB041C0F980D1C002804D1DF
:10436000002E02D112990B030ED0201C291C344AB6
:10437000344BFFF749F8002834D1201C291C324A5D
:10438000324BFFF755F805E0201C291C304A314B11
:10439000FFF73AF8002825D108981C9900F0D1FBC6
:1043A00008980E9900F0CDFB0898099900F0C9FB18
:1043B0000898079900F0C5FB5AE50B9C002C11D01A
:1043C0002A4D002014901595301C391C149A159B09
:1043D000FEF72AF9061C0F1C04D1002802D1089C04
:1043E0002223236008981C9900F0ABFB08980E99D3
:1043F00000F0A7FB0898099900F0A3FB0898109912
:1044000000F09FFB0898079900F09BFB199D002D79
:1044100001D01B982860169C321C3B1C002C02D03B
:1044200080252D067B19101C191C21B0F0BDC0463B
:10443000000000000000E03F0000C0FFFFFFDF4180
:104440009535A094FFFFDF3F35E5AF350000E03F35
:104450009535A094FFFFCF3F0000F07F0000E07F84
:104460000000B0FCFFFF9F7CFFFFEF7F0000503992
:1044700008B50A1C0349031C0868191CFFF7D0F98A
:1044800008BDC0466C000020F7B5031C0669143354
:104490004C111A1CB44227DAB6009E19A4001F2240
:1044A00001961C19114001D1191C16E0202220CCC4
:1044B000521A9446CD401F1C019E3A1CB44207D2AA
:1044C00022686646B240154320C720CCCD40F3E7B2
:1044D0003D60002D08D0043206E0019D0A1CAC426C
:1044E00002D204CC04C1F8E7D31A9B10036100D1B7
:1044F0004361F7BD021C303AD2B2031C092A01D82D
:10450000203B0DE0021C613AD2B2052A01D8473B9C
:1045100006E0021C413AD2B20020052A01D8273B0E
:10452000D8B27047F0B58FB006920C930A910890FC
:1045300000F0C2FA00680B90FFF72AF90B9D079074
:104540002B180A9D013B1B782A680D93931C059339
:10455000059D991A28780239099101333028F6D03F
:10456000FFF7C8FF061E1FD105980B99079A00F0A8
:1045700023FF00283BD107982F183878FFF7BAFFA0
:10458000002837D00597059D2878302803D1059D50
:1045900001350595F7E7FFF7ADFF45424541039526
:1045A00001253E1C099502E0002503952E1C059F60
:1045B0003878FFF79FFF002801D00137F8E7381C53
:1045C0000B99079A00F0F8FE00280BD1002E0BD1B2
:1045D000079D7F193E1C3878FFF78CFF002801D01B
:1045E0000137F8E7002E09D0F61BB60006E0059F5C
:1045F000049600E004900125039500E004963B78C2
:10460000502B01D0702B27D17B782B2B04D02D2B56
:1046100004D07C1C002603E0002600E00126BC1C20
:104620002078FFF767FF431EDBB2051C182B13D859
:1046300001342078FFF75EFF431EDBB2103D182BDC
:1046400003D80A235D432D18F2E7002E00D06D42F7
:1046500004984019049000E03C1C0A9D2C60039DC6
:10466000002D06D0099D06206B426B415B4218402D
:1046700074E1059D03997B1B013B072B02DD013192
:104680005B10FAE7089800F024FA051C143503952E
:1046900009950025041C2E1C059A974227D9013F35
:1046A0003B780D980A97834208D0202E14D10998A0
:1046B00005600430002509902E1C0DE00A99079A28
:1046C000059B8F1A01379F42EFD3381C0B9900F0DE
:1046D00073FE0028E0D0E8E70A990878FFF70AFFA0
:1046E0000F231840B040054304360A9FD4E7099EC3
:1046F000039B20C6F61AB6102661281C00F0B8FAF3
:10470000069D76012F68361ABE4227DDF61B201C57
:10471000311C00F0BBFD0025A84217D0731E1F22DC
:1047200001251A40281C90405911021C0398890049
:10473000095811420AD0AB4201DC022506E0B11E45
:10474000201C00F0A3FD0028F7D00325311C201CFD
:10475000FFF79AFE0499891904910FE00025BE42E3
:104760000CDABE1B211C321C089800F0B5FB049A21
:10477000031C921B1433041C04920393069804999F
:104780008068814208DD0898211C00F0DAF9149D48
:1047900000232B60A320E1E0069804994668B1420B
:1047A00054DA761ABE422DDBC368022B1AD0032BD3
:1047B0001CD0012B1DD1BE421BD1012F0BDC069A50
:1047C0000C9D526801232A60039D23612B60149D78
:1047D00062202C60C2E0791E201C00F057FD0028EA
:1047E000EDD106E0159D002DE9D002E0159D002DCC
:1047F000E5D10898211C00F0A4F9149D00232B603A
:104800005020ABE0701E0490002D07D1002806DD7B
:10481000201C049900F03AFD051C00E001250499D4
:1048200003984B111F229B0011401B5801228A4004
:10483000134201D002231D43311C201CFFF724FE2C
:104840000699BF1B49680226049100E00126002D4D
:104850007ED0069AD368022B0BD0032B0DD0012BF0
:1048600074D1A80772D503990A6815431D4207D170
:104870006CE0159D01235D1B1595159D002D65D0E0
:104880002569231CA8001433059019181A68501CB8
:1048900002D001321A6021E0002204C39942F5D807
:1048A000A1688D4212DB61680898013100F011F9AE
:1048B0002269211C023203900C3192000C3000F06E
:1048C000FFF8211C089800F03CF9039C23695A1C4E
:1048D00004339B002261E31801225A60221C143227
:1048E000022E10D1069D2B68013B9F422CD17811DE
:1048F00080001F21012339401D1C82588D402A420F
:1049000022D01E1C20E02069A8420EDD201C0121BF
:10491000FFF7BAFD049D012601350495069DAB689D
:10492000049D9D4200DD2EE70EE01F253D4001263F
:10493000002D09D005981218043A106800F098F973
:1049400020235D1BA842E1DB202300E010231E434F
:10495000149D0C982C60049D0560301C0FB0F0BDB8
:1049600008239A1A70B592002025AD1A436806688C
:104970001C1CAC403443D340046043600430884284
:10498000F4D370BDF0B50B6889B0019201995A114A
:1049900092008A1803921F2213400790059302D0B9
:1049A000039A04320392079B039E1B68043E002572
:1049B00035600493371C341C06950095049B5B7886
:1049C0000293002B3ED00298FFF794FD002822D1DD
:1049D0000299202917D8069A009B9A422EDABC42E7
:1049E00006D2072D04DC201C391C2A1CFFF7B8FF57
:1049F000019908258C4221D9009A271F00253D6086
:104A000006923C1C1AE0029B292B4FD1049B07996C
:104A100002330B6016E0009A013501320092082D36
:104A200006DD019B9C4209D9043C0023236001253B
:104A300021680F220B01104018432060049A0132B4
:104A40000492BBE70099002930D0BC4206D2072D62
:104A500004DC201C391C2A1CFFF782FF019A9442B7
:104A60000BD9131C043302CC1A1F1160A642F9D2D1
:104A7000002204C39E42FBD20DE0059B002B0AD00E
:104A8000059A039B2021891A0122043B5242CA4005
:104A900019680A401A603268002A09D1019B9E42B7
:104AA00002D10123336003E0043EF4E7042000E078
:104AB000052009B0F0BD00000048704770000020DC
:104AC00010B50023934203D0CC5CC4540133F9E702
:104AD00010BD70B5456A041C0E1C002D07D11020B6
:104AE00000F080FC6062456085600560C560656AB5
:104AF000EB68002B09D0636AB200DB689A18106873
:104B000000280ED00368136017E0201C0421212226
:104B100000F0DEFB636AE860DB68002BEBD100206D
:104B20000EE001210D1CB5406A1D9200201C00F012
:104B3000CFFB0028F3D04660856000220261C2608E
:104B400070BD70B5446A061C0D1C002C07D11020E6
:104B500000F048FC7062446084600460C460002D12
:104B600007D0726A6968D2688B00D3181A682A6005
:104B70001D6070BDF7B50C1C1E1C0D69071C14319F
:104B800000230868013380B2504380198446060C24
:104B90000868000C50433018060C00040190604671
:104BA00080B2844601988444604601C1AB42E8DB90
:104BB000002E1BD0A3689D4212DB6168381C0131B6
:104BC000FFF787FF2269211C023201900C3192000D
:104BD0000C30FFF775FF211C381CFFF7B2FF019C5A
:104BE0002B1D9B00E31801355E602561201CFEBD76
:104BF000F7B5061C181C0F1C083009210193141C62
:104C000000F020FC01230021984202DD5B0001310D
:104C1000FAE7301CFFF75DFF089B011C436101238D
:104C20000361092C12DD3B1C093300931D1C3F1945
:104C30002B78301C303B0A22FFF79CFF0135011C0A
:104C4000BD42F5D1009B1F19083F01E00A37092436
:104C5000251C019B9D4209DA3B1B5B5D301C303BF0
:104C60000A22FFF787FF0135011CF2E7081CFEBD91
:104C70000022031C010C914201D103041022190EE1
:104C800001D108321B02190F01D104321B01990F07
:104C900001D102329B00002B04DB2020590002D5F9
:104CA000501C00E0101C704703680722011C1A40CA
:104CB0000BD001220020134222D10220034201D056
:104CC000D3401BE09B080B601AE098B2002801D18A
:104CD0001B0C1022D8B2002801D108321B0A180779
:104CE00001D104321B09980701D102329B08D80771
:104CF00004D45B082020002B02D001320B60101C72
:104D0000704710B50C1C0121FFF7E3FE012344613D
:104D1000036110BDF0B50C1C151C096912698BB03C
:104D2000914202DA231C2C1C1D1C27692E69A268E3
:104D3000BB1961680293934200DD0131FFF7C9FEA0
:104D4000031C03900298143382009A18191C914294
:104D500002D2002001C1FAE714351434BF00AC467A
:104D6000B600E7196644049407970996099EB4456E
:104D700056D265462D880595002D1FD0049C191C20
:104D800000200F6840CCBFB2059D0697B7B26F43B5
:104D9000069D360CEF193F1808680891050C059818
:104DA0004643380CAD192D18280CBFB22D043D43D5
:104DB00020C1079DAC42E4D3089E706067467D88A1
:104DC000002D22D000261868049C191C0196278803
:104DD00080B26F430697069E4F880591F619019F92
:104DE000F71906973F043843086001CC8F88000C00
:104DF0006843C019069F04313E0C8019079F060CBA
:104E00000196A742E3D8059948600425AC445B1994
:104E1000ACE7043A1068002805D1029F013F0297D1
:104E2000029D002DF5DC039F029E381C3E610BB0F5
:104E3000F0BD00000323F7B51340051C0E1C141C25
:104E4000002B07D0224A013B9B009A580023FFF712
:104E500091FE061CA410019437D06C6A002C07D177
:104E6000102000F0BFFA6862446084600460C4608F
:104E70006F6ABC68002C10D1281C1649FFF741FF4F
:104E80000023B860041C036007E0019B5B100193E2
:104E90001BD0206800280FD0041C019BDB07F4D531
:104EA000311C221C281CFFF735FF311C071C281C55
:104EB000FFF747FE3E1CE8E7281C211C221CFFF7D9
:104EC00029FF002320600360E6E7301CFEBDC046DA
:104ED000C058000071020000F0B50C1C85B00390B2
:104EE000206955112818029049680130A368171CE1
:104EF0000090009A9A4202DD01315B00F9E70398C5
:104F0000FFF7E7FD021C061C14320023AB4204DA53
:104F10009900002050500133F8E7EB43DB171D40A8
:104F2000AD0020695519221C143283009B189C4641
:104F30001F231F4014D02023DB1B01930023106884
:104F4000291CB840034308C508CA0198C3409445CA
:104F5000F5D84B60002B07D002990231009103E095
:104F600008CA08C59445FBD8009B0398013B3361F0
:104F7000211CFFF7E6FD301C05B0F0BD10B502693D
:104F80000C69031C101B13D11A1CA000143214311D
:104F900013180918043B04391C680868844204D0BB
:104FA000844280410123184302E09342F2D800205A
:104FB00010BDF0B5071C85B0081C0D1C111C141C7D
:104FC000FFF7DCFF061E07D1381C311CFFF781FDFF
:104FD00001230361466150E0002801DB002603E065
:104FE0002B1C0126251C1C1C6968381CFFF771FD51
:104FF0002A692B1C14339100591802912169251C30
:10500000143589006918041C0391C660143400210A
:1050100040CB80CDB446B6B27118BEB28E1B61468D
:1050200001963F0C0E0CF71B019E043431147F18BF
:1050300039143F040097019F261FB446BEB2009F5B
:10504000374366463760039FBD42E1D3029E251C6D
:10505000B3420BD280CBBDB26D182E143F0CF619A3
:105060003114ADB23604354320C4EFE7043D2F6858
:10507000002F01D1013AF9E7026105B0F0BD00004F
:105080000E4B0F4A0B409B1810B5002B01DD191C6D
:1050900009E05B421B1500200021132B05DC802258
:1050A0001203111C1941002006E00122322B02DC00
:1050B0003324E31A9A40101C10BDC0460000F07F54
:1050C0000000C0FC0369F7B5061C14369B00F318FA
:1050D0001C1C043C25680F1C281C0193FFF7C8FD0D
:1050E00020231B1A3B601F490A2813DC0B231B1AC1
:1050F0002F1CDF409C460B1C3B430021B44202D9CD
:105100000199083909686446E140153085400A1C58
:105110002A4322E00027B44202D9019C083C2768B8
:105120000B235B421B189C46002B13D02B23181A11
:1051300063469D4029433D1C0B1CC5402B43002169
:10514000B44201D9043C2168C1406446A7400A1C0E
:105150003A4302E00B1C2B433A1C101C191C03B0F1
:10516000F0BDC0460000F03FF7B501211D1C141C26
:10517000FFF7AFFC6F002B03061C1B0B7F0D02D04B
:105180008022520313430193002C19D068460094E7
:10519000FFF78AFD009A002809D0019B20211C1CE2
:1051A000091A8C402243C3407261019300E072618E
:1051B000019CB461634263410224E41A346107E054
:1051C00001A8FFF771FD019901247161346120305C
:1051D000002F09D00D4A089CBF183F1827603523BF
:1051E000099C181A20600EE00949089A40180949DC
:1051F000106063189B00F3185869FFF739FD6401CC
:10520000099A241A1460301CFEBDC046CDFBFFFF76
:10521000CEFBFFFFFFFFFF3FF7B50E1C6946071CE3
:10522000FFF750FF041C0D1C301C01A9FFF74AFFBB
:10523000021C0B1C009801993F69401A3169844691
:10524000791A49016144002902DD09054D1901E07F
:1052500009055B1A201C291CFCF7BEFE03B0F0BD3B
:10526000013910B5131C4911126901318900143339
:10527000920041189A18934202D210CB10C0FAE75C
:10528000884202D2002308C0FAE710BD021C006960
:1052900010B514324B1183420DDC0DDA1F20014092
:1052A0000AD098008458201CC8408840011C012066
:1052B000A1420CD100E0031C9B00D318934205D9F6
:1052C000043B19680029F9D0012000E0002010BD3E
:1052D00038B5151C4D43291C00F008F8041E03D0F6
:1052E00000212A1CFEF742FA201C38BD70B50323AA
:1052F000CD1C9D430835061C0C2D01D20C2501E068
:10530000002D3FDB8D423DD3204B1C681A1C211C15
:10531000002913D00868431B0DD40B2B02D90B6056
:10532000CC181EE08C4202D1636813601AE0486812
:1053300060600C1C16E00C1C4968E9E7144C2068FE
:10534000002803D1301C00F025F82060301C291CF7
:1053500000F020F8431C15D0C41C03239C43844256
:105360000AD12560201C0B300722231D9043C31A4D
:105370000BD05A42E25008E0211A301C00F00AF823
:105380000130EED10C233360002070BDDC00002022
:10539000D800002038B5074C0023051C081C2360EA
:1053A00000F02AF8431C03D12368002B00D02B60A7
:1053B00038BDC04604020020031C002010B5824204
:1053C0000FD01C780878A04201D1012A03D11878A7
:1053D0000B78C01A05E0013A0028F8D001330131FA
:1053E000EFE710BD08B5034B011C1868FFF77EFFFF
:1053F00008BDC0466C000020094A1368002B0CD081
:1054000018186946884202D81060181C7047054B6E
:105410000C2201201A604042F8E7034B1360EFE7CB
:10542000E00000200402002008020020FEE7C04641
:1054300002B4714649084900095C49008E4402BC27
:105440007047C046002941D010B4041C4C40A4460B
:1054500001230022002900D54942002800D54042FE
:1054600088422CD301242407A14204D2814202D2D3
:1054700009011B01F8E7E400A14204D2814202D2F3
:1054800049005B00F8E7884201D3401A1A434C08F0
:10549000A04202D3001B5C0822438C08A04202D326
:1054A000001B9C082243CC08A04202D3001BDC084E
:1054B0002243002803D01B0901D00909E3E7101C8F
:1054C0006446002C00D5404210BC7047002806D02E
:1054D00003DB0020C043400801E08020000607B441
:1054E000024802A14018029003BDC04625C4FFFF38
:1054F0000029EBD003B5FFF7A7FF0EBC4243891A82
:105500001847C046F8B5041E31D0C70F00D044423A
:10551000201CFCF7FFF9184D2D1A0A2819DD0B384D
:10552000844024036D05240B6D0D3A1C00260020D9
:1055300000210B0D2403240B1B0523430F4C2D05C9
:105540001C402C4364006408D307211C301C194301
:10555000F8BD061C1536231CB3401E1C0B23181A5D
:10556000C44024036D05240B6D0D3A1CDFE70022B7
:10557000002500240026DAE71E040000FFFF0F804C
:1055800010B5041E28D0FCF7C5F9154A121A0A28CE
:1055900015DD0B38844024035205240B520D0023E3
:1055A000002000212403181C0B0D240B1B05234392
:1055B0000C4C12051C4014436400610810BD031C10
:1055C0001533211C99400B1C0B21081AC4402403DD
:1055D0005205240B520DE3E7002200240023DFE7ED
:1055E0001E040000FFFF0F80F8B5C046F8BC08BCE1
:1055F0009E467047F8B5C046F8BC08BC9E4670474A
:10560000900600003E060000440600003806000038
:1056100090060000900600004A06000054060000B4
:1056200090060000900600005E0600006E0A000072
:105630006E0A000078090000860900009409000045
:10564000A20900006E0A00006E0A00006E0A000047
:105650006E0A00006E0A0000720A0000F0090000E5
:10566000F6090000060A0000720A0000720A000033
:10567000160A0000720A0000720A0000720A000096
:10568000280A0000F00A0000E20A0000C60A000032
:10569000B80A0000D40A0000050000000000000065
:1056A00080250000000000005300000057000000AB
:1056B0004750524D430000004100000056000000DA
:1056C00025642E256400000024504D544B333134A2
:1056D0002C302C312C302C302C302C302C302C30E9
:1056E0002C302C302C302C302C302C302C302C30DA
:1056F0002C302C302C302A32390D0A0024504D54D5
:105700004B3130312A33320D0A000000C82100002D
:105710005C210000A62100008A200000A6210000D4
:1057200098210000A62100008A2000005C210000D2
:105730005C210000982100008A20000080200000E9
:105740008020000080200000EC23000010280000D2
:10575000FE290000FE290000EE270000D6260000EA
:10576000D6260000DE270000EE270000D626000027
:10577000DE270000D6260000EE270000D426000019
:10578000D4260000D4260000062A000043000000B2
:105790000C00002034000000CEFBFFFFCB03000014
:1057A00001000000000000006E6600696E697479F7
:1057B00000616E0035000000CEFBFFFFCB03000050
:1057C0000100000000000000BC89D897B2D29C3CC8
:1057D00033A7A8D523F649393DA7F444FD0FA532D8
:1057E0009D978CCF08BA5B25436FAC64280668117F
:1057F000504F534958002E00000000000000F03FB9
:10580000000000000000244000000000000059409B
:105810000000000000408F40000000000088C340EE
:1058200000000000006AF8400000000080842E4163
:1058300000000000D01263410000000084D79741AF
:105840000000000065CDCD41000000205FA00242B5
:10585000000000E876483742000000A2941A6D422A
:10586000000040E59C30A2420000901EC4BCD6421D
:1058700000003426F56B0C430080E03779C34143C8
:1058800000A0D8855734764300C84E676DC1AB433E
:10589000003D9160E458E143408CB5781DAF15445C
:1058A00050EFE2D6E41A4B4492D54D06CFF0804437
:1058B000F64AE1C7022DB544B49DD9794378EA444C
:1058C00005000000190000007D000000000000003D
:1058D0000080E03779C34143176E05B5B5B89346EC
:1058E000F5F93FE9034F384D321D30F94877825AB8
:0C58F0003CBF737FDD4F15750000000009
:0858FC00F0A7FF7F010000008E
:1059040000366E0100800000809FD500000000007A
:105914000000000000000000000000000000000083
:105924000000000000000000000000008C57000090
:105934000000000000000000000000000000000063
:105944000000000000000000000000000000000053
:105954000000000000000000000000000000000043
:105964000000000000000000000000000C00002007
:10597400F6570000F7570000F7570000F7570000EC
:10598400F7570000F7570000F7570000F7570000DB
:10599400F7570000F7570000FFFFFFFFFFFFFFFF6F
:1059A400FFFFFFFFFFFF0000B50000008D000000B7
:0459B40000000000EF
:040000030000016593
:00000001FF
