S01A00005358313237365F45464D33324A4731423130302E7333372E
S11300000080002099010000C5010000C501000026
S1130010C5010000C5010000C5010000C5010000C4
S1130020C5010000C5010000C5010000C5010000B4
S1130030C5010000C5010000C5010000157B0000DA
S1130040C5010000C5010000C5010000C501000094
S1130050C5010000C5010000C5010000C501000084
S1130060C5010000FD340000C5010000C501000009
S1130070C5010000C5010000C5010000C501000064
S1130080C5010000C1340000C5010000C501000025
S1130090C5010000C57F0000C5010000C5010000C6
S11300A0C5010000C5010000C5010000C501000034
S11300B0C5010000FD360000C50100002D860000CA
S11300C0C5010000C501000010B5054C237833B903
S11300D0044B13B10448AFF300800123237010BD17
S11300E0CC0000200000000098D50000084B10B59B
S11300F01BB108480849AFF300800848036803B9F6
S113010010BD074B002BFBD0BDE81040184700BFC3
S11301100000000098D50000D0000020C800002096
S113012000000000154B002B08BF134B9D46A3F5A0
S1130130803A00218B460F461348144A121A09F0DC
S113014062FD0F4B002B00D098470E4B002B00D0C4
S113015098470020002104000D000D48002802D01B
S11301600C48AFF3008009F01DFD2000290008F0C1
S113017065FA09F003FD00BF0000080000800020BC
S11301800000000000000000CC000020D00400208B
S11301900000000000000000064880470649074AA6
S11301A0074B9A42BEBF51F8040B42F8040BF8E720
S11301B0FFF7B8FFA9020000CCD500000000002022
S11301C0CC000020FEE700BF80B582B000AF00F095
S11301D027F878600A4BD3F808210A4B13401B0A0E
S11301E03B603B6801337A68B2FBF3F37B60064AF9
S11301F07B6813607B6818460837BD4680BD00BF26
S113020000400E4000FF01000800002080B400AF51
S1130210024B1846BD465DF8047B7047005A6202E3
S113022080B483B000AF164BD3F8943003F00703C7
S1130230032B08D0042B02D0022B08D00BE0114B67
S11302401B687B600BE04FF400437B6007E00E4BC0
S11302501B687B6003E00D4B1B687B6000BF084B91
S1130260D3F8003103F4F8531B0A01337A68B2FB64
S1130270F3F318460C37BD465DF8047B704700BFA6
S113028000400E4004000020000000200C0000206C
S113029080B400AF034B1B681846BD465DF8047B71
S11302A0704700BF0000002080B400AFBD465DF879
S11302B0047B704780B400AF4FF400431846BD463A
S11302C05DF8047B704700BF80B400AF4FF47A73CD
S11302D01846BD465DF8047B704700BF80B400AF8C
S11302E0034B1B681846BD465DF8047B704700BF8E
S11302F00400002080B582B000AF7860074A7B68B4
S11303001360074BD3F8943003F00703042B01D197
S1130310FFF75AFF0837BD4680BD00BF0400002028
S113032000400E4080B483B000AF786039607B68D1
S11303303A681A640C37BD465DF8047B704700BF09
S113034080B487B000AFF860B9607A60FB6803F1ED
S11303500473DA00BB6813449B007B617B697A6891
S11303601A601C37BD465DF8047B704780B485B0C5
S113037000AF786039607B6803F1C063FB60FB68A1
S11303803A681A601437BD465DF8047B704700BFB5
S113039080B485B000AF786039607B6803F1806316
S11303A0FB60FB683A681A601437BD465DF8047B4D
S11303B0704700BF80B584B000AFF860B9607A6060
S11303C0F868B968FFF7E4FFF8687968FFF7CEFFCB
S11303D01037BD4680BD00BF80B487B000AF7860E1
S11303E00B46FB701346BB70BB78002B04D0102364
S11303F0FB605A4B3B6103E00023FB60584B3B61BD
S11304007B685A6B3B691340BB6000237B61FB78BC
S1130410022B3ED0022B04DC002B09D0012B1DD073
S11304208DE0062B66D0812B73D0032B47D086E05A
S11304304C4B1B6E03F4FE437A6913437B61494BB7
S11304401B6E03F00F037A6913437B61454B1B6EEC
S113045003F0F0037A6913437B6173E0414B1B6E35
S113046003F0FE431B0E1B027A6913437B613D4B71
S11304701B6E03F470231B0C7A6913437B61394BA5
S11304801B6E03F470031B0D1B017A6913437B611C
S113049058E0344B5B6E03F4FE437A6913437B618B
S11304A0304B5B6E03F00F037A6913437B612D4B72
S11304B05B6E03F0F0037A6913437B6142E0294BDE
S11304C05B6E03F0FE431B0E1B027A6913437B61D0
S11304D0244B5B6E03F470231B0C7A6913437B611A
S11304E0204B5B6E03F470031B0D1B017A691343ED
S11304F07B6127E01B4B9B6E03F00F037A69134368
S11305007B61184B9B6E03F0F0037A6913437B61A4
S113051018E0144B5B6E03F4FE437A6913437B616A
S1130520104B5B6E03F00F037A6913437B610D4B31
S11305305B6E03F0F0037A6913437B6102E00023EE
S11305407B6100BFFB687A699A40BB681A437B6889
S11305505A631C37BD465DF8047B7047FFFF00807B
S11305600080FFFFB081E00F80B584B000AF7860F9
S113057039603B68DB78FB72FB7A002B06D11C48A0
S1130580002100F0E5F80346FB7201E0194B1B68FB
S11305907B680A229A603B681B781A063B689B7842
S11305A01B0403F4FE031A43FB7A1B0203F4FE4309
S11305B013433A6852781343FB603B681B79002B62
S11305C003D0FB6843F01003FB607B68FA681A6091
S11305D03B685B790748C0211A46FFF7EBFE786851
S11305E04FF40061FFF79EFE1037BD4680BD00BF8B
S11305F00024F4000020004080B584B000AF78608F
S113060039607B6802229A603B689B787868194657
S11306100022FFF7E1FE3B685B781A063B681B7912
S11306201B021A433B685B791B0413431A463B685D
S1130630DB78DB001343FB603B68DB79002B03D0E2
S1130640FB6843F00053FB603B681B7A002B03D02C
S1130650FB6843F00403FB603B689B79002B03D0E9
S1130660FB6843F00203FB603B685B7A002B03D01A
S1130670FB6843F00103FB603B681B79F32B0DD14E
S11306803B689B78002B09D13B685B78032B05D82A
S1130690FB6823F0706343F08063FB603B689B78E6
S11306A0DBB25BB2002B04DAFB6843F0E003FB60CF
S11306B006E03B689B785B011A46FB681343FB60CA
S11306C07B68FA681A617B685A69204B1340FB60A7
S11306D03B689B78DBB25BB2002B06DA3B689B7805
S11306E023F08003FA681343FB603B681B785B04C8
S11306F01A46FB681343FB603B68DB7A002B03D08C
S1130700FB6843F48043FB607B68FA685A617A684B
S11307103B689B7A104602211A46FFF711FE3B689C
S11307201B79F32B07D17B68303318461021012243
S1130730FFF706FE06E07B683033184610210022DE
S1130740FFF7FEFD1037BD4680BD00BF07401E0009
S113075080B584B000AF786039607B68134A9342F7
S113076002D9124B7B6006E07B68B3F5FA4F02D2E4
S11307704FF4FA437B603B68002B03D10C4800F034
S113078015FB38603A687B6813445A1E7B68B2FBD9
S1130790F3F3FB60FB68002B02D0FB68013BFB60BA
S11307A0FB68DBB218461037BD4680BD0024F40058
S11307B04041050080B582B000AF78607B68002BB3
S11307C008D10E4800F0F2FA78607B68002B01D162
S11307D001237B607B6803F5742303F23F237B6072
S11307E07B68074AA2FB03239B0C7B607B68DBB21C
S11307F0013BDBB218460837BD4680BD40410500C9
S113080083DE1B4380B487B000AFF860B9607A60C0
S1130810FB6803F10473DA00BB6813449B007B613B
S11308207B697A681A601C37BD465DF8047B7047A3
S113083080B485B000AF786039607B6803F10473DD
S1130840DA003B6813449B00FB60FB681B68184696
S11308501437BD465DF8047B704700BF80B485B093
S113086000AF786039607B6803F1C063FB60FB68AC
S11308703A681A601437BD465DF8047B704700BFC0
S113088080B485B000AF786039607B6803F1806321
S1130890FB60FB683A681A601437BD465DF8047B58
S11308A0704700BF80B584B000AFF860B9607A606B
S11308B0F868B968FFF7E4FFF8687968FFF7CEFFD6
S11308C01037BD4680BD00BF80B483B000AF7860F0
S11308D07B68012202FA03F318460C37BD465DF823
S11308E0047B704780B584B000AF78607B680133C7
S11308F0B3FA83F3C3F11F03FB60F868FFF7E4FF67
S1130900FB6818461037BD4680BD00BF80B584B073
S113091000AF78600123FB607B68124A934204D8DD
S11309200023FB600023BB6008E07B680E4A93420F
S113093002D80123BB6001E00223BB600B481021F5
S1130940FA68FFF75FFF0949084BD3F8003123F039
S11309508072BB681B061343C1F800311037BD46D3
S113096080BD00BF0048E8010090D00300400E4065
S113097080B483B000AF054B1B687B607B6818466E
S11309800C37BD465DF8047B704700BF10000020A3
S113099080B582B000AFFFF743FC7860064BD3F814
S11309A0003103F4F8531B0A01337A6802FB03F3A2
S11309B018460837BD4680BD00400E4080B582B061
S11309C000AF0D4800F0B2FB0346FB70FB78072B29
S11309D005D0092B07D1FFF723FC786006E0FFF769
S11309E0C7FF786002E000237B6000BF7B68184685
S11309F00837BD4680BD00BF06000C0080B584B03A
S1130A0000AF78607B68002B1CD11B4800F08EFB84
S1130A100346FB7200BFFB7A013B072B23D801A2DC
S1130A2052F823F0490A0000670A0000670A000030
S1130A30570A0000670A0000670A00004F0A000016
S1130A405F0A0000002312E00023FB600EE0FFF7C2
S1130A508FFFF8600AE0FFF71BFCF86006E0FFF781
S1130A6097FFF86002E00023FB6000BFFB681846B4
S1130A701037BD4680BD00BF98002E0080B485B0FD
S1130A8000AF78603960194B1B6C002B14BF012335
S1130A900023FB72154B41F671321A64134B5B68E9
S1130AA003F04073FB607B68114A934202D8002331
S1130AB0FB6005E07B680F4A934201D80123FB6089
S1130AC0FB681B06FB600949084B5B6823F0407216
S1130AD0FB6813434B60FB7A002B02D0034B0022CC
S1130AE01A641437BD465DF8047B704700000E405D
S1130AF080BA8C01005A620280B500AFFFF786FB12
S1130B00034618460021FFF7B9FF80BD80B582B0C7
S1130B1000AF7860396078683968FFF7AFFF08374D
S1130B20BD4680BD80B487B000AF78600F237B6181
S1130B307B6803333B617B69FB60FA683B699342E2
S1130B4028BF1346BB60BB681B07BB60BB68184665
S1130B501C37BD465DF8047B704700BF80B400AF0E
S1130B60044B5B6A03F030031846BD465DF8047B12
S1130B70704700BF00400E4080B483B000AF78607F
S1130B800649064B5B6A23F030027B6813434B62D1
S1130B900C37BD465DF8047B704700BF00400E4033
S1130BA090B585B000AF78600023BB607B68334AA2
S1130BB0934206D0324A934203D0324A934200D041
S1130BC000E000BF786800F0B1FA0346FB607B6880
S1130BD02A4A93420DD02A4A934211D0294A934279
S1130BE000D014E0284BD3F8803003F00703FB60F7
S1130BF00DE0254BD3F8843003F00703FB6006E0D7
S1130C00214BD3F8883003F00703FB6000BFFB6877
S1130C10042B2ED801A252F823F000BF6D0C000063
S1130C20310C0000390C0000490C0000410C00009C
S1130C30FFF740FBB8601CE0FFF750FBB86018E01A
S1130C40FFF742FBB86014E0FFF7BEFA04460E4B10
S1130C50D3F8003103F080731B0E01331846FFF7FD
S1130C6033FE0346B4FBF3F3BB6002E00023BB6036
S1130C7000BFBB6818461437BD4690BD03001C0076
S1130C800500200002001A0000400E4080B483B02A
S1130C9000AF78600A4BD3F8443103F00103002B12
S1130CA000D007E000BF064BD3F840217B68134017
S1130CB0002BF8D10C37BD465DF8047B704700BFAC
S1130CC000400E4080B582B000AF786039603B6868
S1130CD0013B7868194600F035F90837BD4680BDF8
S1130CE080B586B000AF78600B46FB7000233B6193
S1130CF07B681B0A03F00F03013B092B44D801A2B4
S1130D0052F823F02D0D0000390D0000890D00006C
S1130D10890D0000330D00003F0D0000490D000057
S1130D20890D0000530D00005F0D0000184B7B611E
S1130D3018E0184B7B6115E0174B7B6112E0174BF1
S1130D407B6101233B610DE0154B7B6110233B610B
S1130D5008E0144B7B614FF480333B6102E0124B9B
S1130D607B6100BF7B681B0B03F01F03FB603B69C7
S1130D70002B02D03869FFF789FFFB787869F9689E
S1130D801A46FFF73FFD00E000BF1837BD4680BD9F
S1130D9000400E40B0400E40C0400E40E0400E40C7
S1130DA0E8400E40F0400E4050410E4080B584B003
S1130DB000AF78607B6803F47813B3F5602F00F01C
S1130DC0A580B3F5602F16D8B3F5802F31D0B3F5D5
S1130DD0802F05D8002B28D0B3F5003F3CD09EE0EF
S1130DE0B3F5202F47D0B3F5402F00F08B80B3F537
S1130DF0002F2DD093E0B3F5D01F4BD0B3F5D01F07
S1130E0009D8B3F5A01F4FD0B3F5B01F63D0B3F525
S1130E10901F44D083E0B3F5001F6ED0B3F5381FA4
S1130E2078D0B3F5E01F51D079E0FFF7F9F9F86015
S1130E3078E0FFF7F5F9F8603D4BD3F80C213D4B12
S1130E4013401B0A0133FA68B2FBF3F3FB6069E059
S1130E50FFF7E6F9F86065E0FFF7E2F9F860344B74
S1130E60D3F80821334B13401B0A0133FA68B2FB51
S1130E70F3F3FB6056E0FFF7D3F9F8602C4BD3F89B
S1130E80143103F4F8531B0A0133FA68B2FBF3F389
S1130E90FB6047E02848FFF783FEF86042E02748FC
S1130EA0FFF77EFEF8603DE02348FFF779FEF86027
S1130EB01F4BD3F8203103F00F031846FFF704FD4E
S1130EC00246FB68B3FBF2F3FB602BE01C48FFF720
S1130ED067FEF86026E01A48FFF762FEF860144BDC
S1130EE0D3F8283103F003031846FFF7EDFC02465C
S1130EF0FB68B3FBF2F3FB6014E01048FFF750FE0D
S1130F00F8600FE0FFF75AFDF8600BE0FFF730FDE3
S1130F10F86007E00020FFF771FDF86002E00023AD
S1130F20FB6000BFFB6818461037BD4680BD00BF9C
S1130F3000400E4000FF010002001A0005002000DE
S1130F4003001C0080B584B000AF786039607B6812
S1130F501B0903F00F03FB60FB68013B082B00F245
S1130F60D48001A252F823F08D0F0000CB0F0000B3
S1130F70E30F0000FB0F00001710000059100000E1
S1130F80AD100000DD10000007110000FFF7B4FDF4
S1130F906048FFF7BBFC60495F4BD3F8003123F492
S1130FA0F8523B681B021343C1F80031FFF70CF9F8
S1130FB0B860B8680021FFF7A9FD5848FFF7F6FEAE
S1130FC003461846FFF7A2FCA0E05349524BD3F85E
S1130FD0143123F4F8523B681B021343C1F8143153
S1130FE094E04D494C4BD3F8003123F080723B68B8
S1130FF01B061343C1F8003188E04749464BD3F838
S11310000C3123F4FF3323F480733A681202134340
S1131010C1F80C317AE0FFF76FFD3E48FFF776FC2C
S11310203D493D4BD3F8083123F4FF3323F4807357
S11310303A6812021343C1F80831FFF7C5F8B860E3
S1131040B8680021FFF762FD3448FFF7AFFE03469E
S11310501846FFF75BFC59E07B68314A934203D0A2
S1131060304A93420FD020E04FF48020FFF70EFE69
S11310702949294BD3F8303123F00F023B6813433D
S1131080C1F8303111E03868FFF72CFC38600420D7
S1131090FFF7FCFD2049204BD3F8203123F00F0249
S11310A03B681343C1F8203100BF2FE07B681E4A20
S11310B0934200D011E03868FFF714FC38604020F8
S11310C0FFF7E4FD1449144BD3F8283123F003024D
S11310D03B681343C1F8283100BF17E07B68104A0E
S11310E0934200D00EE04FF48020FFF7CFFD0A4971
S11310F0094BD3F8303123F00F023B681343C1F896
S1131100303100BF02E000BF00E000BF1037BD4631
S113111080BD00BF0148E80100400E400005080002
S113112080091200600614007007160080B485B0B0
S113113000AF78600123FB737B6803F00F03BB608F
S1131140BB68013B072B00F2AD8001A252F823F0EB
S113115071110000A3110000D3110000A5120000BA
S11311601912000049120000A512000069120000C3
S1131170514BD3F8943003F00703032B07D0042B0F
S113118002D0022B06D008E00223FB7308E00323FD
S1131190FB7305E00423FB7302E00523FB7300BF2C
S11311A083E0454BD3F8803003F00703022B06D0CD
S11311B0042B07D0012B08D10323FB7308E002237F
S11311C0FB7305E00A23FB7302E00123FB7300BFFA
S11311D06BE0394BD3F8843003F00703013B032B56
S11311E016D801A252F823F0F9110000FF110000F3
S11311F00B120000051200000323FB730BE0022313
S1131200FB7308E00A23FB7305E00623FB7302E08B
S11312100123FB7300BF48E0274BD3F8883003F069
S11312200703022B06D0042B07D0012B08D103237C
S1131230FB7308E00223FB7305E00A23FB7302E05F
S11312400123FB7300BF30E01B4B1B6F03F0010352
S1131250002B05D0012B00D027E00923FB7302E00B
S11312600723FB7300BF20E0134BD3F85C3103F07A
S11312703003102B0CD0102B02D8002B05D014E017
S1131280202B08D0302B09D00FE00123FB7308E09A
S11312900723FB7305E00423FB7302E00823FB73BD
S11312A000BF02E00023FB7300BFFB7B184614372A
S11312B0BD465DF8047B704700400E4080B588B0A1
S11312C000AF78600B46FB700323FB610323FB76BE
S11312D000233B617B6803F00F03FB60FB68013B69
S11312E0072B00F2038101A252F823F00D13000032
S11312F0A9130000C5130000ED140000B71300008B
S11313005D140000ED1400007B140000FB78023B28
S1131310082B00F2ED8001A252F823F041130000E3
S11313204B1300005513000065130000F114000076
S1131330F1140000F1140000F1140000F114000095
S11313400423FB610023FB7614E00323FB610123E8
S1131350FB760FE00223FB610223FB766848FFF76C
S1131360D5FA07E00123FB610323FB766448FFF70A
S1131370CDFA00BFFB7E18460121012200F070F96E
S1131380FFF7BAFB5F4AFB6953675F48FFF70EFD3F
S113139003461846FFF7BAFAFEF716FFB860B868B6
S11313A00021FFF7B3FBA8E03B69002B01D03B69A8
S11313B000E0564B3B613B69002B01D03B6900E0E8
S11313C0534B3B613B69002B01D03B6900E0514B1F
S11313D03B61FB78013B092B00F28C8001A252F89F
S11313E023F000BF0D1400001314000023140000A8
S11313F0F5140000F514000033140000F514000087
S1131400F5140000F51400004F14000000237B6164
S113141020E000200121012200F022F902237B6157
S113142018E001200121012200F01AF901237B6157
S113143010E0FEF7C9FE03461846FFF767FA364880
S113144000210122FFF7DEF903237B6102E004237C
S11314507B6100BF3B697A691A604EE0FB78072B19
S113146002D0092B04D048E0264B00221A6703E07F
S1131470244B01221A6700BF3FE0FB78013B072B96
S11314803AD801A252F823F0A9140000F91400007C
S1131490F9140000BF140000F9140000F91400004E
S11314A0AF140000CF14000000237B6112E004207D
S11314B00121012200F0D4F801237B610AE002201B
S11314C00121012200F0CCF802237B6102E0032316
S11314D07B6100BF0B490B4BD3F85C3123F0300226
S11314E07B691B011343C1F85C3106E000BF04E0D3
S11314F000BF02E000BF00E000BF2037BD4680BD52
S11315000148E80100400E400005080080400E40FC
S113151088400E4084400E40B0400E40B0B584B0C8
S113152000AF78601120FFF701FE022000210122A4
S113153000F096F87B685B7883F00103DBB2002B44
S11315400ED07B689B7883F00103DBB2002B07D0BD
S11315507B68DB7883F00103DBB2002B00D000BF93
S11315600023FB607B681B7C022B01D10123FB6001
S11315702549254B5B6A23F00102FB6813434B6248
S11315807B681B78214808211A46FFF73BF91E495E
S11315901D4B9B6A23F007037A68D27A13438B624C
S11315A019497B689B88DB027A68527A1343CB62C1
S11315B0154D154B1B6B03F07F637A68D288D202FA
S11315C013437A68927A13437A68127AD20143EA0F
S11315D002047B681B7A1846FFF7A4FA03462343E8
S11315E02B6309497B685B7B1A037B689B7B1B012C
S11315F013437A68D27B1A437B681B7B1B04134317
S11316004B631037BD46B0BD00400E4024400E4031
S113161080B582B000AF78601120FFF787FD00200D
S11316200021002200F01CF87B681B781A467B68B6
S11316305B78DB021A437B689B781B061A437B6842
S1131640DB781B021343044804491A46FFF72AF9BE
S11316500837BD4680BD00BF38400E407F1B0007E1
S113166080B588B000AF0346FB710B46BB711346CF
S11316707B71FB79042B00F2A58001A252F823F0C0
S1131680DD160000CB160000A7160000951600001A
S1131690B916000001237B6102233B610123FB6136
S11316A00023BB6125E004237B6108233B61032302
S11316B0FB610223BB611CE010237B6120233B619F
S11316C00523FB610423BB6113E040237B6180237A
S11316D03B610723FB610623BB610AE04FF480737F
S11316E07B614FF400733B610923FB610823BB61F9
S11316F000BFBB79002B59D00023FB73FB79022B6D
S11317000FD1FFF72BFA0346002B0AD10123FB73F9
S11317102E4B5B6A03F00103002B02D00120FFF77C
S11317202BFA2A4A7B69136600BF2948B969FFF777
S11317307FF80346002BF8D07B79002B35D000BF0F
S11317402348F969FFF774F80346002BF8D0FB79B6
S1131750022B2AD1FB7B002B27D01C4B5B6A03F0A6
S11317600103002B05D002202021012200F036F9CC
S113177003E00220002100F0E7F8022000F02AF83C
S1131780B860022000210122FFF76AFF0220B96835
S113179000F05AF80D4A7B69136600BF0C48F969DA
S11317A0FFF746F80346002BF8D00CE0074A3B69E4
S11317B0136600BF0648B969FFF73AF80346002BE1
S11317C0F8D100E000BF2037BD4680BD00400E4088
S11317D090400E4080B485B000AF0346FB71FB79A6
S11317E0013B032B23D801A252F823F0FD1700007C
S11317F0211800000918000015180000114B1B6A7D
S1131800C3F30803FB6015E00E4B1B6903F07F0371
S1131810FB600FE00B4B9B6903F07F03FB6009E067
S1131820084BD3F89C30C3F30A03FB6002E00023A7
S1131830FB6000BFFB6818461437BD465DF8047BA7
S1131840704700BF00400E4080B584B000AF03462F
S11318503960FB71FB79013B032B6AD801A252F872
S113186023F000BF75180000F7180000A31800004B
S1131870CD1800003B68C3F308033B6000BF2F484A
S11318801A21FEF7D5FF0346002BF8D12C492C4B27
S11318901B6A23F4FF7323F001033A6813430B62BA
S11318A048E03B6803F07F033B6000BF23481821F6
S11318B0FEF7BEFF0346002BF8D12149204B1B69DC
S11318C023F07F023B6813430B6133E03B6803F072
S11318D07F033B6000BF19481921FEF7A9FF0346A7
S11318E0002BF8D11649164B9B6923F07F023B6805
S11318F013438B611EE0124BD3F89030104A104B07
S11319005B6A23F0300343F0100353623B6803F433
S1131910F063DB091846FFF705F9F8600849084B3E
S11319201A6B084B13403A681A43FB6813430B6362
S113193000E000BF1037BD4680BD00BF40410E40EF
S113194000400E4000F8FF0F80B584B000AF03469E
S11319500A46FB711346BB71FFF700F90346002BDF
S113196003D14FF44003FB6015E0BB79202B04D076
S1131970302B0AD0002B04D00BE04FF40003FB60A3
S113198009E04FF44003FB6005E04FF44003FB60C3
S113199001E0104BFB6000BF0F4BD3F89020FB68B5
S11319A01A40FB689A42F7D1FB6803F48003002BCA
S11319B00AD0094BD3F8A03003F48063002B14BF82
S11319C001230023DBB200E0012318461037BD4693
S11319D080BD00BFFF03E10700400E4080B582B028
S11319E000AF0346FB710B46BB7113467B71FB7959
S11319F0022B16D1BB79002B07D00C4B4FF480621D
S1131A00C3F8A820094ABB7953667B79002B07D019
S1131A10FA79BB7910461946FFF796FF034601E0B1
S1131A2000BF012318460837BD4680BD00400E4064
S1131A3080B487B000AFF860B9607A60FB6803F1E6
S1131A400473DA00BB6813449B007B617B697A688A
S1131A501A601C37BD465DF8047B704780B582B0C0
S1131A6000AF0346FB71FB79034800211A46FFF7D8
S1131A70DFFF0837BD4680BD0CE0014080B582B071
S1131A8000AF78600F4A7B685B7903F03F035360D3
S1131A900C497B681B781A467B685B785B001A43A9
S1131AA07B68DB789B001A437B681B795B011343DB
S1131AB00B607B689B781846FFF7D0FF0837BD465C
S1131AC080BD00BF00E0014080B500AFFEF77CFBA5
S1131AD080BD00BF80B487B000AFF860B9607A60A1
S1131AE0FB6803F10473DA00BB6813449B007B6159
S1131AF07B697A681A601C37BD465DF8047B7047C1
S1131B0080B400AF034B4AF6E8529A60BD465DF8D4
S1131B10047B704700300E4080B400AF034B0022BA
S1131B20C3F88021BD465DF8047B704700400E4039
S1131B3080B400AF044B45F60E02C3F88021BD46C5
S1131B405DF8047B704700BF00400E4080B584B050
S1131B5000AF0346FB71FB79002B0CD12D4BD3F85E
S1131B6090302D4A13601120FFF7E0FA03461A461D
S1131B702A4B1A704AE0FB79012B47D1254BD3F845
S1131B80803103F00103FB60FFF7D2FF0023BB6049
S1131B90214B1B6803F00103BA681343BB601E4B5F
S1131BA01B6803F01003BA681343BB601A4B1B682D
S1131BB003F04003BA681343BB60174B1B6803F080
S1131BC00403BA681343BB60134B1B6803F48073AC
S1131BD0BA681343BB600F4ABB6813660F4B1B788C
S1131BE0052B05D00D4B1B7811201946FFF766FB1A
S1131BF0094B1B6803F00103002B02D1054B0222A1
S1131C001A66FB68002B01D0FFF786FF1037BD462C
S1131C1080BD00BF00400E40F0000020F400002012
S1131C2080B584B000AF0346FB71FB79002B12D062
S1131C300D4BDB6C0D4A13600B4BDB6C23F47F43C1
S1131C40FB60FB6843F4EE43FB60074AFB68D36424
S1131C5000F0FCF805E0044A044B1B68D36400F070
S1131C60F5F81037BD4680BD00300E40F800002066
S1131C7080B400AF0D4B1B78012B03D00B4B1B78AA
S1131C80022B0FD10A4B1B6C03F00303012B06D16B
S1131C9000BF084B1B6803F48033002BF9D0034BBF
S1131CA003221A70BD465DF8047B7047E8000020EB
S1131CB000300E407C300E4080B582B000AF034649
S1131CC0FB71FB79002B02D00020FFF73FFF0D4A88
S1131CD00C4B1B6943F0040313610120FFF7A0FFC1
S1131CE0FFF7C6FF30BF0020FFF79AFFFB79002BF8
S1131CF003D00120FFF72AFF01E0FFF7E5FE0837D4
S1131D00BD4680BD00ED00E080B584B000AF294B36
S1131D109B6923F4403343F40033BB60254B9B6938
S1131D2043F440337B60FFF7EBFE224B9B6903F0E7
S1131D300103002B0DD11F4B1B6C03F003033B600D
S1131D403B68012B02D03B68022B02D1002000F03B
S1131D50F3F8184B9B6903F00103002B10D072B603
S1131D60154B4AF6E8521A60144A144B1B6843F0A8
S1131D7080031360124A124B1B6843F48073136090
S1131D800120FFF74DFFFFF773FF0023FB6008E01E
S1131D90084ABB689361074A7B689361FB68013317
S1131DA0FB60FB68032BF3DD024ABB6893611037C9
S1131DB0BD4680BD00300E4090310E4098310E403B
S1131DC088300E4080B483B000AF78600C37BD46D5
S1131DD05DF8047B704700BF80B485B000AF7860C5
S1131DE0194B9B69FB60FB6823F03F03FB607B6836
S1131DF01B78002B01D0042200E000227B685B7872
S1131E00002B01D0022300E000231A437B689B7857
S1131E10002B01D0082300E000231A437B68DB7801
S1131E20002B01D0012300E0002313437A681279C8
S1131E301343FA681343FB60034AFB689361143746
S1131E40BD465DF8047B704700300E4080B48BB013
S1131E5000AF01237B627B6A1B053B62334BDB6C67
S1131E6003F470631B0AFB61314B1B8803F12802E6
S1131E702F4B1B882833D90F0B445B10134419468E
S1131E80FB695A1C13469B001344B1FBF3F3013B5B
S1131E90BB61BB697B6107233B613A697B69934200
S1131EA028BF1346BB61BB691B06BB611F481F4BA0
S1131EB0DB6C23F0EE62B9693B6A0B431343C364E2
S1131EC01C4B1B881BB2002B2BDB1A4B1B88FB8182
S1131ED0FB8903F12802FB892833D90F0B445B10DB
S1131EE013441946FB6901335A00FB6901335B084B
S1131EF01344B1FBF3F3BB60BB687B6007233B6017
S1131F003A687B68934228BF1346BB60BB681B01D9
S1131F10BB600649054B1B6D23F07002BB6813437D
S1131F200B652C37BD465DF8047B704700300E40CE
S1131F30EA000020EC00002080B584B000AF034626
S1131F40FB7100BF274B9B6F03F00103002BF9D1FA
S1131F50244B1B6C03F00303FB60FB68002B04D0D1
S1131F6021480D210122FFF7B5FDFB68DBB2FA79A8
S1131F709A4209D1FB79002B05D11B480D2100227F
S1131F80FFF7A8FD2AE029E0FB68002B05D1FB79C7
S1131F90012B02D1154B02221A7000BF114B9B6F0B
S1131FA003F00103002BF9D10E490E4B1B6C23F0F7
S1131FB00302FB7913430B6400BF0A4B9B6F03F0CE
S1131FC00103002BF9D1FB79002B14BF012300235B
S1131FD0DBB205480D211A46FFF77CFD1037BD46DC
S1131FE080BD00BF00300E4054300E40E800002099
S1131FF080B483B000AF0D4B02229A6300BF0B4B39
S11320009B6F03F00103002BF9D1084B03221A64E0
S1132010064B1B6C032B0CBF01230023FB71FB79C4
S113202018460C37BD465DF8047B704700300E40FF
S113203080B487B000AFF860B9607A60FB6803F1E0
S11320400473DA00BB6813449B007B617B697A6884
S11320501A601C37BD465DF8047B704780B485B0B8
S113206000AF786039607B6803F1C063FB60FB6894
S11320703A681A601437BD465DF8047B704700BFA8
S113208080B485B000AF786039607B6803F1806309
S1132090FB60FB683A681A601437BD465DF8047B40
S11320A0704700BF80B584B000AFF860B9607A6053
S11320B0F868B968FFF7E4FFF8687968FFF7CEFFBE
S11320C01037BD4680BD00BF80B483B000AF034667
S11320D0FB71FB79002B08D0094A094B9B6923F05B
S11320E0300343F01003936105E0054A044B9B69F8
S11320F023F0300393610C37BD465DF8047B7047D1
S113210000300E4080B483B000AF7860044A7B682E
S1132110C2F824340C37BD465DF8047B704700BF19
S113212000A0004080B582B000AF03463960FB7167
S1132130FB79002B0DD0FB79012B0AD0FB79022B04
S113214007D0FB79032B04D0FB79042B01D0FB7956
S1132150052BFA7913465B0013441B010C3303F17E
S1132160804303F520433A68012101FA02F218463C
S11321701146FFF785FF0837BD4680BD80B582B0A4
S113218000AF03463960FB71FB79002B0DD0FB795E
S1132190012B0AD0FB79022B07D0FB79032B04D047
S11321A0FB79042B01D0FB79052BFA7913465B00EC
S11321B013441B010C3303F1804303F520433A68B5
S11321C0012101FA02F218461146FFF747FF0837CA
S11321D0BD4680BD80B586B000AFB9607A601A464E
S11321E00346FB731346BB7300237B61FB7B002B0D
S11321F00DD0FB7B012B0AD0FB7B022B07D0FB7B92
S1132200032B04D0FB7B042B01D0FB7B052B7B68C9
S1132210072B0ED87B689B001A460F2303FA02F1A2
S1132220FB7B7A68920093402B481A46FFF73AFFEB
S113223010E07B68083B7B617B699B001A460F2397
S113224003FA02F1FB7B7A699200934023481A4611
S1132250FFF728FF7B68072B10D87B689B001A4682
S1132260032303FA02F1BB6803F003037A689200C4
S113227093401B481A46FFF715FF0FE07B699B004C
S11322801A46032303FA02F1BB6803F003037A69D5
S11322909200934013481A46FFF704FFBB7B124891
S11322A079681A46FFF7C4FE97F820300F4879681A
S11322B01A46FFF7BDFE0E4A7B68012101FA03F3BB
S11322C0C2F8243497F824300A4879681A46FFF78C
S11322D0AFFE1837BD4680BD00A4004004A40040F2
S11322E008A400400CA4004010A4004014A4004022
S11322F000A0004028A4004090B585B000AFB960AC
S11323007B600346FB731346BB73FB7B002B0DD032
S1132310FB7B012B0AD0FB7B022B07D0FB7B032B1F
S113232004D0FB7B042B01D0FB7B052BBB7B002B58
S11323300DD07B68002B05D0FB7B1846B968FFF7EE
S11323401DFF04E0FB7B1846B968FFF7EBFEBB6892
S1132350072B1CD82A4CFA7B2948F97B0B465B00D7
S11323600B441B0103445968BB689B0018460F23A8
S11323708340DB430B40B97BB8688000814019433C
S113238013465B0013441B012344596024E01C4C96
S1132390FA7B1B48F97B0B465B000B441B0103448F
S11323A008331968BB6803F18043083B9B00184657
S11323B00F238340DB431940B87BBB6803F18043A0
S11323C0083B9B0000FA03F3194313465B001344D4
S11323D01B01234408331960BB7B002B0DD17B68A0
S11323E0002B05D0FB7B1846B968FFF7C7FE04E055
S11323F0FB7B1846B968FFF795FE1437BD4690BDC0
S113240000A0004080B582B000AF78603960124906
S1132410114BD3F818247B68DB431340C1F81834FC
S11324200D480D4BD3F8182479683B680B401343CF
S1132430C0F818340849084BD3F82C247B6813439C
S1132440C1F82C340120FFF73FFE7868FFF75AFEED
S11324500837BD4680BD00BF00A0004080B487B0EF
S113246000AFF860B9607A60FB6803F10473DA00C6
S1132470BB6813449B007B617B697A681A601C37D4
S1132480BD465DF8047B704780B485B000AF7860CA
S113249039607B6803F1C063FB60FB683A681A60CB
S11324A01437BD465DF8047B704700BF80B485B027
S11324B000AF786039607B6803F18063FB60FB6880
S11324C03A681A601437BD465DF8047B704700BF54
S11324D080B584B000AFF860B9607A60F868B96814
S11324E0FFF7E4FFF8687968FFF7CEFF1037BD46C1
S11324F080BD00BF80B588B000AFF860B9607A6075
S1132500FB707B68002B00D15EE0FB681B6823F442
S11325104072FB681A60FA68FB781B0210464FF49D
S113252040711A46FFF7D4FFBB68002B03D128483B
S1132530FEF73CFCB8604FF0FF33BB61FB681B68DF
S113254003F00203002B11D0FB78012B07D0022BE0
S113255008D0002B00D019E01E4BBB6105E01E4BD8
S1132560BB6102E01D4BBB6100BF0FE0FB78012B98
S113257006D0022B07D0002B08D1164BBB6105E017
S1132580174BBB6102E0174BBB6100BFFB78164AD7
S1132590D35C7B617B68DB00BA68D21A7B6979689B
S11325A001FB03F3B2FBF3F3013BFB61FB681B6824
S11325B003F00203002B04D0FB69002B01D101239B
S11325C0FB61FA69FB681A612037BD4680BD00BF14
S11325D04041050080841E00404B4C00809FD50084
S11325E040548900002D310130C1000080B582B013
S11325F000AF786039607B6800221A647B68114AF6
S1132600DA637A683B685B78002B01D0002300E032
S11326100123104601211A46FFF720FF3B68596841
S11326203B689A683B681B7B7868FFF763FF7A68AE
S11326303B681B78104600211A46FFF70FFF083746
S1132640BD4680BDCFFF070080B489B000AF78607D
S11326507B68A34A934205D1A24BBB61BB699B68CB
S11326607B6101E0FC23F8E17B685B6B3B613B69C8
S113267003F4C063002B14D03B6903F40073002BF4
S113268003D0BB69FD225A7007E03B6903F4806301
S1132690002B02D0BB69FE225A70BB6909221A7052
S11326A0C7E1BB691B78082B00F2BB8101A252F879
S11326B023F000BFD92600002B270000B12700001B
S11326C00328000055280000A7280000372900002F
S11326D075290000072A00007B695B8803F010035A
S11326E0002B09D07B691B881B0A9BB203F00603ED
S11326F043F0F003FB610EE07B691B8803F0FE03EB
S1132700FB617B695B8803F00203002B03D0FB6948
S113271043F00103FB61BB6901221A707B68FA690B
S1132720DA627B6801225A6083E13B6903F080032B
S1132730002B0CD07B688022DA63BB69FF225A70BD
S1132740BB6908221A707B6802225A602FE03B6939
S113275003F04003002B2AD07B684022DA637B69B4
S11327605B8803F01003002B08D0BB6902221A70A7
S11327707B691B88DAB27B68DA6218E07B695B8864
S113278003F00203002B0ED0BB6907221A70BB6949
S11327901B797A69DB0013441B89012B07D17B6801
S11327A008225A6045E1BB6905221A7040E140E104
S11327B03B6903F08003002B0CD07B688022DA6332
S11327C0BB69FF225A70BB6908221A707B68022217
S11327D05A6015E03B6903F04003002B10D07B687E
S11327E04022DA637B695B8803F00203002B03D089
S11327F0BB6903221A701BE1BB6905221A7017E139
S113280017E17B695B8803F01003002B09D07B6917
S11328101B881B0A9BB203F0060343F0F003FB6121
S113282004E07B691B8803F0FE03FB617B695B8822
S113283003F00403002B03D0FB6943F00103FB61A5
S1132840BB6904221A707B6801225A607B68FA69AA
S1132850DA62EEE03B6903F08003002B0CD07B6866
S11328608022DA63BB69FF225A70BB6908221A709E
S11328707B6802225A6015E03B6903F04003002B99
S113288010D07B684022DA637B695B8803F0040321
S1132890002B03D0BB6907221A7003E0BB69052231
S11328A01A70C5E0C5E0BB695A88BB691B797969B0
S11328B0DB000B441B899A4228D3BB6900225A804F
S11328C0BB691B790133DAB2BB691A717B695B8816
S11328D003F00403002B07D0BB6903221A70A7E09E
S11328E000C00040FC0000207B695B8803F001030A
S11328F0002B03D1BB691B79012B06D9BB690822C4
S11329001A707B6802225A6093E091E0BB691B79DC
S11329107A69DB0013445A68BB695B88591C88B226
S1132920B969488013441B781A467B68DA62BB692C
S113293006221A707DE03B6903F08003002B0CD063
S11329407B688022DA63BB69FF225A70BB69082264
S11329501A707B6802225A600BE03B6903F0400363
S1132960002B06D07B684022DA63BB6905221A700B
S11329705EE05EE03B6903F02003002B42D0BB69BC
S11329801B797A69DB0013441B89FB607B68DB6974
S1132990FB72BB695B881A46FB689A420ED2BB691C
S11329A01B797A69DB0013445A68BB695B88591C3C
S11329B088B2B96948801344FA7A1A70BB695B8893
S11329C01A46FB689A420CD3FB68012B02D17B6840
S11329D008225A60BB6908221A707B6802225A6076
S11329E010E07B6804225A60FB68012B0AD9BB699A
S11329F05B881A46FB68013B9A4203D17B68082234
S1132A005A6016E015E03B6903F48073002B07D08D
S1132A107B684FF48072DA63BB6909221A7008E09C
S1132A2007E0BB69FB225A70BB6909221A7000E0F7
S1132A301AE6BB691B78092B0BD17B6800221A6448
S1132A40BB695B785BB2012B05D1BB6900225A706C
S1132A5001E0012301E0BB695B785BB218462437CF
S1132A60BD465DF8047B704780B584B000AF7860E4
S1132A7039607B68294A934208D1294BFB607B6803
S1132A809B6803F00103002B05D001E0FC233FE029
S1132A907B6820225A603B685B8803F00203002BAA
S1132AA003D03B681B89002B09D03B685B8803F08B
S1132AB00403002B05D03B681B8A002B01D1FC23A7
S1132AC026E0FB6800221A70FB6801225A70FB683A
S1132AD000225A80FB6800221A71FB683A689A60E7
S1132AE07B68C0225A607B685B6B03F02003002B79
S1132AF001D07B68DB697B680A4ADA637B681B6CFC
S1132B0043F4FC627B681A647868FFF79DFD034612
S1132B105BB218461037BD4680BD00BF00C0004000
S1132B20FC000020CFFF070080B483B000AF7860C2
S1132B3039607B681B6C03F00103002B00D006E0B6
S1132B4000BF7B685A6C3B681340002BF9D10C37EB
S1132B50BD465DF8047B704780B586B000AFF86071
S1132B60B9607A60BB68002B0BD1FB68124A9342B0
S1132B7006D1124B7B617869FEF718F9B86000E062
S1132B8016E0BB685A017B68B2FBF3F33B613B6917
S1132B90203B3B613B69DB003B613A69084B1340D6
S1132BA03B61F8680421FFF7BFFFFB683A69DA600C
S1132BB01837BD4680BD00BF00A004407007160052
S1132BC0F8FF010080B584B000AF78600B46FB705D
S1132BD0FB78DB43FB60FB6803F00503FB60FB68E9
S1132BE05B00FB60FB78FA681343FB6078680221A2
S1132BF0FFF79AFF7B68FA685A601037BD4680BDBC
S1132C0080B483B000AF78600B46FB70FB78002B78
S1132C1008D000BF7B685B6C002BFBD17B68012272
S1132C201A6402E07B6800221A640C37BD465DF822
S1132C30047B704780B582B000AF786039607868F3
S1132C400221FFF771FF7B680A225A60786801212C
S1132C50FFF7D6FF7B681B6823F01C033A68127BDE
S1132C6013433A68527B13433A68927B1A437B6856
S1132C701A603B685A683B689B68786811461A4634
S1132C80FFF76AFF3B681B781A467B685A607868CE
S1132C900021FFF7B5FF0837BD4680BD80B483B07F
S1132CA000AF786000BF7B689B6803F02003002BB3
S1132CB0F9D07B68DB69DBB218460C37BD465DF89A
S1132CC0047B704780B582B000AF78600B46FB7020
S1132CD000BF7B689B6803F01003002BF9D0786871
S1132CE04021FFF721FFFA787B689A620837BD46D6
S1132CF080BD00BF80B582B000AF78600B46FB702A
S1132D0078680121FFF710FFFB78002B06D07B6861
S1132D101B6843F400527B681A6005E07B681B68FB
S1132D2023F400527B681A600837BD4680BD00BF9B
S1132D3080B582B000AF78600B46FB7078680121E3
S1132D40FFF7F2FEFB78002B06D07B681B6843F488
S1132D5080527B681A6005E07B681B6823F480520C
S1132D607B681A600837BD4680BD00BF80B487B059
S1132D7000AFF860B9607A60FB6803F10473DA00AD
S1132D80BB6813449B007B617B697A681A601C37BB
S1132D90BD465DF8047B704780B582B000AF034642
S1132DA0FB71FB79034800211A46FFF7DFFF083760
S1132DB0BD4680BD0020044080B483B000AF78607D
S1132DC014497B681B781A467B685B789B001A431E
S1132DD07B689B781B011A437B68DB785B011A4391
S1132DE07B681B791B021A437B685B791B031A43BC
S1132DF07B689B79DB031A437B68DB791B041A43EA
S1132E007B681B7A5B0413430B600C37BD465DF88B
S1132E10047B70470020044080B485B000AF786024
S1132E20194B5B69DBB203F00F03DBB29B00FB734E
S1132E30154B1B6903F0C0039B09DAB2FB7B1343F8
S1132E40FB737B68FA7B9A700F4B1B69DBB203F050
S1132E503F03DAB27B685A700B4B9B69DBB223F0F9
S1132E600F03FB73084BDB6903F0F0031B09DAB2B1
S1132E70FB7B1343FB737B68FA7B1A701437BD46E4
S1132E805DF8047B704700BFD0FF0FE080B586B0CB
S1132E9000AFF860B9607A60BB68002B03D10A48C0
S1132EA0FDF784FFB860BB685A1E7B685B00B2FB09
S1132EB0F3F37B617B691B027B61FB687A695A616E
S1132EC01837BD4680BD00BF4041050080B485B0C1
S1132ED000AF78600B46FB707B680D4A934203D0C9
S1132EE07B680C4A934200D100BFFB78DB43FB6054
S1132EF0FB6803F00503FB60FB685A007B68DA603B
S1132F00FA787B68DA601437BD465DF8047B704755
S1132F10000001400004014080B582B000AF786039
S1132F2039607B68364A934203D07B68354A9342C2
S1132F3000D100BF786800F067F87B681A683B68C6
S1132F401B8A43F001039BB219463B689B7B002B11
S1132F5002D04FF4806300E000230B431A437B68E4
S1132F601A607B681A683B681B7D002B02D04FF007
S1132F70005300E000231A437B681A603B689B7C83
S1132F80002B07D03B68DB7C63F07F03DBB21A467F
S1132F907B689A653B681B7B43F480527B685A606C
S1132FA03B685A683B689B68786811461A46FFF785
S1132FB06DFF3B685B7B002B02D07B681022DA60DC
S1132FC03B689B7D1B0703F0E0423B68DB7D1B05F0
S1132FD003F4E0031A437B681A663B685B7D002BAD
S1132FE005D07B681B6843F480327B681A603B68B9
S1132FF01B781A467B68DA600837BD4680BD00BF7F
S1133000000001400004014080B483B000AF786048
S11330107B681F4A934203D07B681E4A934200D1C7
S113302000BF7B6840F6AA62DA607B6800221A60FF
S11330307B6841F205025A607B6800229A607B68D3
S113304000225A617B680022DA647B68124A9A641F
S11330507B6800225A677B6800229A677B6800229B
S1133060DA677B680A4A934202D17B6800221A65B8
S11330707B6800229A657B68064A934202D17B688A
S11330800022DA650C37BD465DF8047B704700BF4B
S11330900000014000040140F9FF010080B483B046
S11330A000AF786000BF7B681B6903F08003002BCE
S11330B0F9D07B68DB69DBB218460C37BD465DF896
S11330C0047B704780B483B000AF78600B46FB701C
S11330D000BF7B681B6903F04003002BF9D0FA782A
S11330E07B685A630C37BD465DF8047B704700BFAC
S11330F080B483B000AF0346FB71084997F90730E9
S11331005B09FA7902F01F02012000FA02F241F889
S113311023200C37BD465DF8047B704700E100E0D6
S113312080B483B000AF0346FB71094997F90730B7
S11331305B09FA7902F01F02012000FA02F26033FF
S113314041F823200C37BD465DF8047B704700BF6F
S113315000E100E080B485B000AF786039607B683E
S113316003F1C063FB60FB683A681A601437BD461C
S11331705DF8047B704700BF80B485B000AF786011
S113318039607B6803F18063FB60FB683A681A600E
S11331901437BD465DF8047B704700BF80B483B02C
S11331A000AF7860044A7B68C2F824340C37BD460B
S11331B05DF8047B704700BF00A0004080B400AFFE
S11331C0034BD3F81C341846BD465DF8047B7047A6
S11331D000A0004080B582B000AF03463960FB71A7
S11331E0FB79002B0DD0FB79012B0AD0FB79022B44
S11331F007D0FB79032B04D0FB79042B01D0FB7996
S1133200052BFA7913465B0013441B010C3303F1BD
S1133210804303F520433A68012101FA02F218467B
S11332201146FFF7A9FF0837BD4680BD80B582B0BF
S113323000AF03463960FB71FB79002B0DD0FB799D
S1133240012B0AD0FB79022B07D0FB79032B04D086
S1133250FB79042B01D0FB79052BFA7913465B002B
S113326013441B010C3303F1804303F520433A68F4
S1133270012101FA02F218461146FFF76BFF0837E5
S1133280BD4680BD90B585B002AF396011461A467F
S11332900346FB710B46BB7113467B71FA79BC790B
S11332A07B7900933B7E0193104639683A68234644
S11332B0FEF790FF0C37BD4690BD00BF80B400AF51
S11332C072B6084B1B68B3F1FF3F04D0054B1B6873
S11332D00133044A1360034B1B681846BD465DF86E
S11332E0047B70470801002080B483B000AF0C4B0E
S11332F01B68002B0DD00A4B1B68013B084A136066
S1133300074B1B687B607B68002B00D162B67B682F
S113331000E0002318460C37BD465DF8047B704777
S11333200801002080B400AF034B9B681846BD46DB
S11333305DF8047B704700BF0020044080B483B074
S113334000AF7860034A7B6813620C37BD465DF8B2
S1133350047B70470020044080B483B000AF7860E1
S11333600549054B5A6A7B68DB4313404B620C37B3
S1133370BD465DF8047B70470020044080B483B0F0
S113338000AF78600549054B5A6A7B6813434B626A
S11333900C37BD465DF8047B704700BF0020044035
S11333A080B400AF034B9B691846BD465DF8047BAF
S11333B0704700BF0020044080B582B002AF2A48A5
S11333C00121FDF78DFC29480121FDF789FC00202E
S11333D0002102220023FEF78FFF05200421022290
S11333E00023FEF789FF0520032102220023FEF7B4
S11333F083FF01200C2102220023FEF77DFF012020
S11334000B2102220023FEF777FF01200D21022267
S11334100023FEF771FF0123009300200021012205
S11334200023FFF72FFF012300930520042101222D
S11334300023FFF727FF0123009305200321012226
S11334400023FFF71FFF0123009302200A2101221A
S11334500023FFF717FF1120FFF74AFE0920FFF7AB
S113346047FEBD4680BD00BF404105000025080061
S113347080B483B000AF0346FB710C37BD465DF8E2
S1133480047B704780B582B000AF0346FB71FB79C3
S1133490002B04D002200721FFF7C8FE03E002201E
S11334A00721FFF797FE0837BD4680BD80B483B07F
S11334B000AF0346FB710C37BD465DF8047B7047D3
S11334C080B582B000AFFFF779FE78607B6803F0C7
S11334D00103002B03D0002003F0CEFE07E07B683D
S11334E003F01003002B02D0012003F0C5FE4AF6BE
S11334F0AA20FFF753FE0837BD4680BD80B582B0D1
S113350000AFFFF75BFE78607B6803F00803002BD5
S113351003D0022003F0B0FE07E07B6803F480636D
S1133520002B02D0044B01221A7045F25550FFF7CC
S113353035FE0837BD4680BD10010020B0B586B009
S113354000AF5E4B3C461D460FCD0FC495E803000B
S113355084E803005A480121FDF7C2FB59480121C0
S1133560FDF7BEFB58480121FDF7BAFB02200921F3
S113357004220023FEF7C0FE02200B2102220023B6
S1133580FEF7BAFE0220082104220023FEF7B4FE4F
S11335900220072104220123FEF7AEFE4B48FFF769
S11335A033FD00233B8200237B60494BBB60012336
S11335B0BB733B4645481946FFF7AEFC434A434BB1
S11335C09B6F23F0F85343F0306393673F4A3F4BBC
S11335D05B6F43F0080353673C4A3C4B9B6F23F4F7
S11335E0F81343F410239367384A384B5B6F23F086
S11335F004035367354A354BDB6F23F01F0343F055
S11336000203D367314A314B5B6F23F010035367D6
S11336102E4A2E4BDB6F23F4F85343F48073D367A5
S11336202A4A2A4B5B6F23F020035367274A274B10
S11336309B6F23F01F0343F00F039367234A234B2D
S11336405B6F43F001035367204A204B9B6F23F4C5
S1133650F85343F4606393671C4A1C4B5B6F43F05D
S113366002035367194A194B5B6E23F00403536634
S1133670164A164B5B6E23F002035366134A134B30
S11336805B6E23F008035366104A104B1B6823F447
S1133690004313600D4A0D4B1B6823F480431360F1
S11336A00A4A0A4B1B6823F4005313600748052198
S11336B0FFF70CFC1837BD46B0BD00BF34C1000095
S11336C040410500003204000025080000040140C8
S11336D040420F0080B582B000AF0346FB71FB7916
S11336E005481946FFF7EEFC0348FFF7D7FC0346ED
S11336F018460837BD4680BD0004014080B500AFC0
S1133700FFF74EFE034603F00103002B04D0064BE3
S11337101B680133044A1360FFF742FE40F2FF7056
S1133720FFF70CFE80BD00BF0C01002080B586B001
S113373000AF1F4B01221A701E480121FDF7D0FA79
S11337401D480221FDF7BAFD1C4A3B1D1068186094
S11337509188927999809A7119480121FDF7B2FAFA
S11337601748FDF723FB0246164B1A601448012143
S1133770FDF7B6FA07F10C031846FFF71DFB01200D
S1133780FFF7EAFD0120FFF7D9FD0120FFF704FB55
S11337901D20FFF7C5FC1D20FFF7AAFC0120FFF741
S11337A0EDFD0120FFF7F8FA1837BD4680BD00BFD4
S11337B01101002000050800050020004CC1000094
S11337C0800912001401002080B582B000AF00F01F
S11337D04BF80E4B1B687B60FFF7A4FD3860FFF7C6
S11337E0DFFD034603F00103002B05D0FFF79AFD2C
S11337F038607B6801337B6000F03CF87B681A0614
S11338003B68134318460837BD4680BD0C010020B1
S113381080B584B000AF7860FFF7D6FFF8607A68AF
S1133820FB68D31ABB60BB68002B01DC002308E0F3
S1133830BB681B14002B02D04FF6FF7301E0BB687A
S11338409BB218461037BD4680BD00BF80B582B01C
S113385000AF786000BF7868FFF7DAFF0346002BFB
S1133860F9D10837BD4680BD80B500AFFFF726FD0E
S113387080BD00BF80B500AFFFF736FD80BD00BF3F
S113388080B500AF0020FEF717FA80BD80B500AF09
S113389007480021042206F0B6F9FFF7E5FFFFF719
S11338A08BFDFFF74BFEFFF741FFFFF7E3FF80BD02
S11338B00C01002080B500AFFFF7D6FFFFF7E0FF53
S11338C0FEE700BF80B483B000AF00237B6021E03B
S11338D0364A7B6852F823301A0634497B6851F81B
S11338E0233003F47F431B021A4330497B6851F8A9
S11338F0233003F47F031B0A1A432C497B6851F8D5
S113390023301B0E1A4329497B6841F823207B6826
S113391001337B607B68032BDADD244BDB683B607F
S11339203CE07B6803F00303002B27D13B681B0CAE
S1133930DBB21A461E4B9B5C1A063B681B0ADBB2C1
S113394019461B4B5B5C1B045A403B68DBB21946AF
S1133950174B5B5C1B0253403A68120E14498A5C95
S113396053401A467B68043B002B00DA03339B1058
S11339701946104B53F8213053403B607B68043B9D
S11339800A4A52F823303A6853403B6007497B683F
S11339903A6841F823207B6801337B607B682B2BDA
S11339A0BFDD0C37BD465DF8047B70474C01002039
S11339B07CC1000054C1000080B58CB000AF034648
S11339C03960FB711346BB80FFF77CFFFB7903F082
S11339D00803002B0FD0584B0022DA60564BDB68EB
S11339E0554A9360544B9B68534A5360524B5B68EF
S11339F0514A136053E0504B1B681A064E4B1B6828
S1133A0003F47F431B021A434B4B1B6803F47F03ED
S1133A101B0A1A43484B1B681B0E1343464A136088
S1133A20454B5B681A06444B5B6803F47F431B02F7
S1133A301A43414B5B6803F47F031B0A1A433E4B52
S1133A405B681B0E13433C4A53603B4B9B681A064E
S1133A50394B9B6803F47F431B021A43364B9B6824
S1133A6003F47F031B0A1A43334B9B681B0E134357
S1133A70314A9360304BDB681A062F4BDB6803F442
S1133A807F431B021A432C4BDB6803F47F031B0A9E
S1133A901A43294BDB681B0E1343274AD36000F0FB
S1133AA04ABCFB7903F00403002B09D1FB7903F032
S1133AB00203002B11D0FB7903F00803002B0CD177
S1133AC01D4B1B68FB621C4B5B68BB621A4B9B68FB
S1133AD07B62194BDB683B625FE0FB7903F0020316
S1133AE0002B15D0BB88102B12D800233B623B6AF5
S1133AF07B627B6ABB62BB6AFB62BB88102B01D111
S1133B00102200E02022FB791343DBB2FB7144E076
S1133B100023FB6125E0BB691A02B988FB6999425D
S1133B2004D93968FB690B441B7808E0B988FB6940
S1133B30994203D1802302E0FC01002000231343B7
S1133B40BB61FB6903F00303032B07D1BB6AFB6270
S1133B507B6ABB623B6A7B62BB693B62FB69013384
S1133B60FB61FB690F2BD6D9FB7903F00203002B11
S1133B7013D0A04B1B68FA6A5340FB629D4B5B68F1
S1133B80BA6A5340BB629B4B9B687A6A53407B6220
S1133B90984BDB683A6A53403B62974B7B617B6985
S1133BA080333B617B691B68FA6A5340FB627B6923
S1133BB004331B68BA6A5340BB627B6908331B68D1
S1133BC07A6A53407B627B690C331B683A6A5340C0
S1133BD03B627B695B69BB617B699B69FB607B6959
S1133BE0DB69BB607B691B69FB61FB6ADBB21A465C
S1133BF0824B53F82230BA695340BB61FB6A1B0AFB
S1133C00DBB21A467E4B53F82230FA685340FB600D
S1133C10FB6A1B0CDBB21A467A4B53F82230BA68A3
S1133C205340BB60FB6A1B0E774A52F82330FA6993
S1133C305340FB61BB6ADBB21A46704B53F8223027
S1133C40FA685340FB60BB6A1B0ADBB21A466C4B32
S1133C5053F82230BA685340BB60BB6A1B0CDBB21A
S1133C601A46684B53F82230FA695340FB61BB6A29
S1133C701B0E654A52F82330BA695340BB617B6A14
S1133C80DBB21A465D4B53F82230BA685340BB602E
S1133C907B6A1B0ADBB21A46594B53F82230FA6985
S1133CA05340FB617B6A1B0CDBB21A46554B53F83D
S1133CB02230BA695340BB617B6A1B0E524A52F8E8
S1133CC02330FA685340FB603B6ADBB21A464B4B25
S1133CD053F82230FA695340FB613B6A1B0ADBB29A
S1133CE01A46474B53F82230BA695340BB613B6ACA
S1133CF01B0CDBB21A46434B53F82230FA6853408C
S1133D00FB603B6A1B0E404A52F82330BA685340AA
S1133D10BB607B695B6ABB627B699B6A7B627B6914
S1133D20DB6A3B627B691B6AFB62FB69DBB21A4696
S1133D30324B53F82230BA6A5340BB62FB691B0A08
S1133D40DBB21A462E4B53F822307A6A53407B6218
S1133D50FB691B0CDBB21A462A4B53F822303A6A31
S1133D6053403B62FB691B0E274A52F82330FA6A20
S1133D705340FB62BB69DBB21A46204B53F8223036
S1133D807A6A53407B62BB691B0ADBB21A461C4B3E
S1133D9053F822303A6A53403B62BB691B0CDBB2D6
S1133DA01A46184B53F82230FA6A5340FB62BB6937
S1133DB01B0E154A52F82330BA6A5340BB62FB68A3
S1133DC0DBB21A460D4B53F822303A6A53403B6239
S1133DD0FB681B0ADBB21A46094B53F82230FA6A15
S1133DE05340FB62FB681B0CDBB21A46054B53F8CD
S1133DF022300BE0FC0100204C0100207CCE0000AE
S1133E007CCA00007CC600007CC20000BA6A534031
S1133E10BB62FB681B0EA24A52F823307A6A5340F5
S1133E207B62BB68DBB21A469E4B53F82230FA6AB7
S1133E305340FB62BB681B0ADBB21A469A4B53F829
S1133E402230BA6A5340BB62BB681B0CDBB21A4611
S1133E50964B53F822307A6A53407B62BB681B0E40
S1133E608F4A52F823303A6A53403B627B692033CD
S1133E707B617A693B699A42FFF4ABAE7B695B690B
S1133E80BB617B699B69FB607B69DB69BB607B69A8
S1133E901B69FB61FB6ADBB21A46824B53F8223082
S1133EA0BA695340BB61FB6A1B0ADBB21A467E4BFC
S1133EB053F82230FA685340FB60FB6A1B0CDBB2F8
S1133EC01A467A4B53F82230BA685340BB60FB6AF7
S1133ED01B0E734A52F82330FA695340FB61BB6AE4
S1133EE0DBB21A466F4B53F82230FA685340FB603A
S1133EF0BB6A1B0ADBB21A466B4B53F82230BA6812
S1133F005340BB60BB6A1B0CDBB21A46674B53F8C9
S1133F102230FA695340FB61BB6A1B0E604A52F8B7
S1133F202330BA695340BB617B6ADBB21A465D4BEE
S1133F3053F82230BA685340BB607B6A1B0ADBB279
S1133F401A46594B53F82230FA695340FB617B6A95
S1133F501B0CDBB21A46554B53F82230BA69534056
S1133F60BB617B6A1B0E4E4A52F82330FA685340F9
S1133F70FB603B6ADBB21A464A4B53F82230FA69BB
S1133F805340FB613B6A1B0ADBB21A46464B53F8AB
S1133F902230BA695340BB613B6A1B0CDBB21A4640
S1133FA0424B53F82230FA685340FB603B6A1B0EC5
S1133FB03B4A52F82330BA685340BB607B691B6AA2
S1133FC0FB62FB691B0E3A4AD35C1B061A46FB6A6A
S1133FD05340FB62BB691B0CDBB21A46344B9B5C3F
S1133FE01B041A46FB6A5340FB62FB681B0ADBB2E4
S1133FF01A462F4B9B5C1B021A46FB6A5340FB621A
S1134000BB68DBB21A462A4B9B5C1A46FB6A5340D8
S1134010FB627B695B6ABB62BB691B0E244AD35C8F
S11340201B061A46BB6A5340BB62FB681B0CDBB21F
S11340301A461F4B9B5C1B041A46BB6A5340BB6267
S1134040BB681B0ADBB21A46194B9B5C1B021A465F
S1134050BB6A5340BB62FB69DBB21A46144B9B5CE0
S11340601A46BB6A5340BB627B699B6A7B62FB68EE
S11340701B0E0F4AD35C1B061A467B6A53407B62B5
S1134080BB681B0CDBB21A46094B9B5C1B041A462B
S11340907B6A53407B62FB691B0ADBB21A4609E068
S11340A07CC200007CCE00007CCA00007CC60000FC
S11340B07CC10000664B9B5C1B021A467B6A534022
S11340C07B62BB69DBB21A46614B9B5C1A467B6A16
S11340D053407B627B69DB6A3B62BB681B0E5C4AB4
S11340E0D35C1B061A463B6A53403B62FB691B0CBC
S11340F0DBB21A46564B9B5C1B041A463B6A534080
S11341003B62BB691B0ADBB21A46514B9B5C1B0228
S11341101A463B6A53403B62FB68DBB21A464C4B7F
S11341209B5C1A463B6A53403B62FB7903F00203F3
S1134130002B56D0FB7903F030031B11BB61BB6924
S1134140002B41D0FB6ADB0FFB61FB6A5A00BB6AA0
S1134150DB0F1343FB62BB6A5A007B6ADB0F13431A
S1134160BB627B6A5A003B6ADB0F13437B623B6A88
S11341705B003B62FB69002B03D03B6A83F087033F
S11341803B62BB69013BBB61BB69002BDAD1314B9C
S11341901A68FB6A53402F4A13602E4B5A68BB6A55
S11341A053402C4A53602B4B9A687B6A5340294AEC
S11341B09360284BDA683B6A5340264AD360FB7904
S11341C023F03003FB71A3E4224AFB6A1360214A03
S11341D0BB6A53601F4A7B6A93601E4A3B6AD36082
S11341E095E0FB7903F00403002B35D0BB88102B3A
S11341F001D8BB8800E01023FB610023BB611DE0F4
S11342003A68BB6913443968BA690A441178FA6A8E
S1134210120ED2B24A40D2B21A70FB6A1B02FB627F
S1134220BB6903F00303032B05D1BB6AFB627B6A02
S1134230BB623B6A7B62BB690133BB61BA69FB69E0
S11342409A42DDD3034BDB680133024AD3605EE05C
S11342507CC10000FC010020FB6A1B0EDAB23B6843
S11342601A703B680133FA6A120CD2B21A703B68B6
S11342700233FA6A120AD2B21A703B680333FA6A3A
S1134280D2B21A703B680433BA6A120ED2B21A70F0
S11342903B680533BA6A120CD2B21A703B68063313
S11342A0BA6A120AD2B21A703B680733BA6AD2B237
S11342B01A703B6808337A6A120ED2B21A703B68DD
S11342C009337A6A120CD2B21A703B680A337A6ADA
S11342D0120AD2B21A703B680B337A6AD2B21A70DD
S11342E03B680C333A6A120ED2B21A703B680D3333
S11342F03A6A120CD2B21A703B680E333A6A120A46
S1134300D2B21A703B680F333A6AD2B21A70FB7990
S113431003F00203002B04D0FB7903F00803002B05
S113432005D03B6810333B60BB88103BBB80FB79F6
S113433043F00803FB71BB88DBB25BB2002B3FF791
S1134340B0AB034B1B6818463037BD4680BD00BF79
S1134350FC01002080B483B000AF0346FB80FB88DF
S1134360DBB203F00703DBB218460C37BD465DF839
S1134370047B704780B483B000AF0346FB80FB88A6
S1134380DB089BB2DBB203F00303DBB218460C3745
S1134390BD465DF8047B704780B483B000AF03462C
S11343A0FB80FB885B099BB2DBB203F00303DBB247
S11343B018460C37BD465DF8047B704780B483B063
S11343C000AF03460A46FB8013467B71FB8823F04B
S11343D060039AB27B795B019BB213439BB29BB29D
S11343E018460C37BD465DF8047B704780B483B033
S11343F000AF0346FB80FB88DB099BB203F001039B
S113440018460C37BD465DF8047B704780B483B012
S113441000AF03463960FB80FB8823F080039AB227
S11344203B68DB019BB213439BB29BB218460C372B
S1134430BD465DF8047B704780B483B000AF03468B
S1134440FB80FB881B0A9BB2DBB218460C37BD46C7
S11344505DF8047B704700BF80B483B000AF0346AF
S1134460FB71FB790133044AD35C9BB218460C37C9
S1134470BD465DF8047B70477CD2000080B582B0F5
S113448000AF0346FB71FB791846FFF7E5FF0346CF
S113449018460121FFF7BAFF034618460837BD4600
S11344A080BD00BF80B483B000AF0346FB71FB79CD
S11344B0074AD35CFF2B03D0FB79013BDBB200E05E
S11344C0FB7918460C37BD465DF8047B704700BF86
S11344D07CD2000080B483B000AF0346FB71FB794B
S11344E00133064AD35CFF2B14BF01230023DBB244
S11344F018460C37BD465DF8047B70477CD200003B
S113450080B582B000AF03460A46FB711346BB7107
S113451005E0FB791846FFF7C5FF0346FB71BB793D
S11345205A1EBA71002BF4D1FB7918460837BD46E0
S113453080BD00BF80B483B000AF78607B681B7817
S11345409AB27B6801331B781B029BB213439BB264
S11345509BB218460C37BD465DF8047B704700BF1C
S113456080B483B000AF78607B681B781A467B68A0
S113457001331B781B0213431A467B6802331B78F2
S11345801B041A437B6803331B781B06134318462A
S11345900C37BD465DF8047B704700BF80B483B020
S11345A000AF78607B6803331B781A467B6802335C
S11345B01B781B0213431A467B6801331B781B04C8
S11345C01A437B681B781B06134318460C37BD46F9
S11345D05DF8047B704700BF80B483B000AF78609F
S11345E00B467B807B88DAB27B681A707B68013368
S11345F07A88120A92B2D2B21A700C37BD465DF8AC
S1134600047B704780B483B000AF786039603B6846
S1134610DAB27B681A707B6801333A68120AD2B244
S11346201A707B6802333A68120CD2B21A707B6833
S113463003333A68120ED2B21A700C37BD465DF8D5
S1134640047B704780B483B000AF786039607B68C6
S113465003333A68D2B21A707B6802333A68120A9A
S1134660D2B21A707B6801333A68120CD2B21A7053
S11346703B681B0EDAB27B681A700C37BD465DF8D6
S1134680047B704780B400AFFF231846BD465DF835
S1134690047B704780B584B000AFF860B9607A607D
S11346A03B600F480021102205F0ADFA0C4B492263
S11346B01A700C4A7B68002B14BF01230023DBB261
S11346C01370094B3A68D2B21A700848F968FFF7B8
S11346D099FF0748B968FFF795FF1037BD4680BDBD
S11346E0FC010020010200200B0200200202002035
S11346F00602002090B585B000AFF860B9607A601A
S11347003B60B86879683A687B6AFFF7C3FF0E4874
S1134710F968102205F06CFA7B6A9BB20220396AB0
S11347201A46FFF749F904467B6A3A6A1344184665
S1134730FFF734FF03469C420CBF01230023DBB286
S113474018461437BD4690BD4C01002090B585B085
S113475000AFF860B9607A603B60B86879683A681D
S11347607B6AFFF797FF0B48F968102205F040FABF
S11347707B6A3A6AD4187B6A9BB20220396A1A4669
S1134780FFF71AF9034620461946FFF75BFF143773
S1134790BD4690BD4C01002090B583B000AF786059
S11347A039600A4803F0C6FE3B687A68D4183B684F
S11347B09BB20A2079681A46FFF7FEF803462046A2
S11347C01946FFF73FFF0C37BD4690BD4C01002052
S11347D090B583B000AF786039600D4803F0AAFE4D
S11347E03B689BB20A2079681A46FFF7E5F804464D
S11347F03B687A6813441846FFF7D0FE03469C4290
S11348000CBF01230023DBB218460C37BD4690BD14
S11348104C01002080B582B000AF78603960064852
S113482003F088FE3B689BB2002079681A46FFF7C4
S1134830C3F80837BD4680BD4C01002080B584B064
S113484000AFF860B9607A603B60FB69002B00DC64
S113485026E015480021102205F0D5F9124A134B21
S1134860012119701B781370114A3B68002B14BF87
S113487001230023DBB213700E48B968FFF7C2FEB0
S11348800D487968FFF7BEFE0C48F968102205F060
S1134890AFF9FB699BB20420B9691A46FFF78CF89B
S11348A01037BD4680BD00BFFC0100200B02002074
S11348B00102002002020020060200204C01002018
S11348C080B584B000AFB9607A603B600346FB8179
S11348D078680021102205F096F97B6801221A708D
S11348E07B6801331846B968062205F081F97B68B4
S11348F0DA1DFB8910461946FFF76EFE38687968A1
S1134900102205F075F93B6802221A70094803F079
S113491011FE002079681022FFF74EF8054803F0D5
S113492009FE002039681022FFF746F81037BD460B
S113493080BD00BF4C01002090B583B000AF03469A
S1134940FB80FB881846FFF705FD03461C46FB88E1
S11349501846FFF70FFD03461946064A23465B0037
S113496023440B4413441B788D3B18460C37BD4637
S113497090BD00BF98D2000090B587B000AF034649
S11349800A46FB8013467B71FB881846FFF7F2FC4E
S11349900346FB72FB881846FFF7DCFC0346BB7238
S11349A0BB7A002B09D17B790B339B043A4A82FBF7
S11349B003121213DB17D31A6AE0BB7A0633DBB295
S11349C09B00FB75BB7A042B01D9082300E000236C
S11349D0FA7DD31A7B727B79DA00FB7DD31A03F15B
S11349E01C04FB881846FFF701FD0346002B01D089
S11349F0002300E010231C44FB881846FFF71CFD2D
S1134A000346002B01D0142300E00023E31A3B618A
S1134A103B69002B15DD7A7A3B6913445A1E7B7A75
S1134A2092FBF3F33B61FB881846FFF7B5FC0346A2
S1134A305A1D3B6902FB03F33B613B6908333B614D
S1134A4001E008233B613B699B0031333B61BA7A47
S1134A50FB7AD31ADBB20133FB7543F60953FB60CF
S1134A60FB7D042B07D9FB7D043BFA6842FA03F370
S1134A70FB600423FB75FB7D3A6902FA03F3DA0356
S1134A80FB68D90F0B445B101A44FB6892FBF3F3E9
S1134A9018461C37BD4690BD89B5F81490B585B04D
S1134AA000AF0346FB7102F0C1FB03461B029CB23C
S1134AB002F0BCFB03469BB2224613439BB27B81AC
S1134AC07B89FB60FB68B3F5004F03DD7B89C3F38F
S1134AD00E03FB60FB79002B0CD07B89DBB2FA79E7
S1134AE0B3FBF2F102FB01F29B1ADBB2DB03FA68BF
S1134AF01344FB60FB6818461437BD4690BD00BFE5
S1134B0080B582B000AF78600B46FB70FB78184626
S1134B10FFF7C4FF02467B6813447B600D4B93F898
S1134B20A330002B06D00B4BD3F8A4307A68D31AE9
S1134B30002B0CDD074A7B68C2F8A430054BB3F8A0
S1134B40AC3043F480739AB2024BA3F8AC2008371C
S1134B50BD4680BD0C02002080B483B000AF034684
S1134B600A46FB711346BB71044ABB7982F8B03024
S1134B700C37BD465DF8047B704700BF0C02002073
S1134B8080B483B000AF0346FB710B46BB71134680
S1134B907B7197F9053013F1800F03D00D4A7B79AF
S1134BA082F8AF300B4B93F8B030BA799A420CD0FC
S1134BB0084ABB7982F8B030064BB3F8AC3043F402
S1134BC000639AB2034BA3F8AC200C37BD465DF8E2
S1134BD0047B70470C02002080B584B000AF03460C
S1134BE0FB7140480021402205F00DF83E480021A9
S1134BF0202205F008F83D480021202205F003F8A2
S1134C003B4B3F22A3F8A020FB79002B01D00023CB
S1134C1000E00623FB730023BB7314E0BB7BFA7B29
S1134C20344951F822203249103341F82320BB7B08
S1134C302F4A40333F2122F81310BB7B0133BB734F
S1134C40FB7B0133FB73BB7B052BE7D9FB79002B83
S1134C5007D1274B3F22A3F88A20254BFF22A3F834
S1134C608220234B4FF47A721A84214B0E2283F84C
S1134C70222002F0DBFA034603F00F03DAB21C4BE6
S1134C8083F823201A4B64221A85194B0E2283F8C9
S1134C902A2002F0CBFA034603F00F03DAB2144BD6
S1134CA083F82B20124B0A221A86114B1B2283F8FD
S1134CB0322002F0BBFA034603F00F03DAB20C4BC6
S1134CC083F8332001F09CFD0246094B5A63084BDC
S1134CD05B6B074AD362064BDB6A054A53621037A3
S1134CE0BD4680BD4C0200208C0200202C02002016
S1134CF00C020020DCD2000080B483B000AF396025
S1134D0011461A460346FB710B46BB801346BB7122
S1134D10FB790F2B01D9002355E097F90630B3F145
S1134D20FF3F21D13B682B4A934208D93B682A4A6A
S1134D30934204D83B6843F002033B6013E03B68B2
S1134D40264A934203D93B68254A934207D93B68D4
S1134D50244A934215D93B68234A934211D83B68AD
S1134D6043F001033B600CE097F90630032B01DDAF
S1134D70002328E03B6823F0030297F9063013432D
S1134D803B60FB79194910333A6841F82320FB79D9
S1134D90BA88002A01D0BA8800E03F221349403380
S1134DA021F81320114BB3F8A03099B2FB790122FA
S1134DB002FA03F39BB20A4613439BB29AB20B4B1B
S1134DC0A3F8A020012318460C37BD465DF8047BE8
S1134DD0704700BFBFFDD13350CED533FFA0BC33E5
S1134DE0C0C8C5339F91D6338025DB330C02002025
S1134DF080B483B000AF0346FB71FB79104A1033D3
S1134E00002142F82310FB790D4A4033002122F897
S1134E1013100B4BB3F8A03099B2FB79012202FABC
S1134E2003F39BB2DB439BB20A4613409BB29AB294
S1134E30034BA3F8A0200C37BD465DF8047B7047F4
S1134E400C02002080B584B000AF78607B68013B21
S1134E501846FFF785FB03461B0A642202FB03F393
S1134E60FB60FB68064A934203D9FB68054A9342F8
S1134E7001D90023FB60FB6818461037BD4680BD8E
S1134E80BF5570338025DB3380B485B000AF034653
S1134E900A46FB711346BB80FB79002B0AD1BB8801
S1134EA0002B07D0BA881B4BB3F8A030DB43134068
S1134EB0002B01D0002327E00023FB731CE0BA88F9
S1134EC0FB7B42FA03F303F00103002B11D0FB7BBD
S1134ED0104A103352F82330002B0AD1FB7B0122F5
S1134EE002FA03F39BB2DB439AB2BB8813409BB232
S1134EF0BB80FB7B0133FB73FB7B0F2BDFD9054AA4
S1134F00BB88A2F8A030012318461437BD465DF8CB
S1134F10047B70470C02002080B586B000AF786037
S1134F20204B93F8A2301F4A103352F823307B6190
S1134F301C4BDA891B4B93F8343110461946FFF7A2
S1134F401BFD38617B6903F003030433DB00154A5E
S1134F501344FB607B6923F00303124A9360FB68EC
S1134F609A78104B9A74FB681B881A463B6903FBBA
S1134F7002F27B681A44FB685A600A4B93F8A33028
S1134F80002B0BD0074B93F8A3301A463B6903FA66
S1134F9002F27B681344034AC2F8A4301837BD46B2
S1134FA080BD00BF0C02002080B487B000AF7860E1
S1134FB00F23FB757B6803F18C4303F5A0033B616E
S1134FC00023FB730023BB731DE0FA7DBB7B42FA15
S1134FD003F303F00103002B12D0BB7B3F4A0433DD
S1134FE0DB0013445B683A69D31A002B08DDBB7BF2
S1134FF0FB73FB7B394A0433DB0013445B683B617E
S1135000BB7B0133BB73BB7B032BDED9FB7B334AF6
S11350100433DB001344DB787B7300233B7342E0EF
S11350207B7B01337B737B7B0F2B02D97B7B103B18
S11350307B732A4BB3F8A0301A467B7B42FA03F306
S113504003F00103002B2BD07B7B244A403332F83E
S113505013301A46214B93F8B03003F00F0342FA91
S113506003F303F00103002B1AD0FA7B7B7B1B496B
S1135070103351F8233003F003039A4210D1FA7B22
S11350801649131DDB000B44797BD9701349131D9A
S1135090DB000B44DA78114B83F8A2203B6916E05D
S11350A03B7B01333B733B7B0F2BB9D9FB7B012249
S11350B002FA03F3DBB2DB43DAB2FB7D1340DBB26B
S11350C0FB75FB7D002B01D13B6900E072E71846BC
S11350D01C37BD465DF8047B704700BF0C020020FE
S11350E098B500AF02F0A2F803461A46154BA3FB8D
S11350F0021399080B465B000B445B00D31ADAB227
S1135100114B83F8A220104B0E2283F8AF2000200D
S11351100521FFF721FD0120FFF75EFD0A4BB3F8DF
S1135120AC3003F40063002B01D0FEF7C3FB064B45
S11351305C6A0820FFF7B2FC03462344024A13606A
S113514098BD00BFABAAAAAA0C02002080B582B009
S113515000AF0023FB712F4B93F8A2300133DAB276
S11351602C4B83F8A2202B4B93F8A230062B03D1AF
S1135170284B002283F8A220264B93F831310133C7
S1135180DAB2244B83F83121224B93F8313103F006
S11351900103002B12D11F4B93F8B030002B02D126
S11351A00123FB710AE01B4B93F8B0301846FFF75C
S11351B079F9034601201946FFF7CEFC154BB3F8E5
S11351C0AC3023F400639AB2124BA3F8AC2001F084
S11351D017FB38600F4B5B6A3A68D31A002B02DA6C
S11351E00C4B5B6A3B600B4B93F8B0301A46FF23C1
S11351F01341DBB21846FFF751FC034603F5C032F6
S11352003B681344034A1360FB7918460837BD46CC
S113521080BD00BF0C02002080B582B000AF786072
S113522001F0D0F80837BD4680BD00BF80B582B01C
S113523000AF0346FB71FB79184603F0C7F901F090
S1135240C1F80837BD4680BD80B582B000AF786034
S113525001F0D6F900F09CFF0C20FFF7E7FF0837B8
S1135260BD4680BD80B400AF284B0022C3F81C218A
S1135270264BD3F81C31254AC2F81831234B00229F
S113528083F8B220214B002283F825211F4B93F889
S113529025211E4B83F824211C4B93F824211B4BFE
S11352A083F82221194B93F82221184B83F82021EB
S11352B0164B002283F82821144B93F82821134B12
S11352C083F82921114B93F82921104B83F83021BD
S11352D00E4B93F830210D4B83F827210B4B002202
S11352E083F8AE20094BF42283F82121074B0022D6
S11352F083F82A21054B064AC3F82C21034B0522C7
S113530083F87521BD465DF8047B70470C020020CC
S113531008E6D33390B599B002AF8C4B7B647B6CB9
S11353201B7887F8433097F8433023F01F0387F83E
S11353304230874B93F83431FB63FB6B0B2B0DDD51
S113534097F8433003F00303002B07D197F842305A
S1135350602B09D097F84230A02B05D07C4B00225B
S113536083F8342100238DE27B6C05331B78BB6307
S11353707B6C01331846FFF7F3F878637B6C0633D4
S11353801846FFF7D7F803463B63BB6B03F00F03E4
S1135390FB62BB6B03F02003002B14BF012300232B
S11353A0DBB2BB62FB6A08337B65FB6B043B7B624D
S11353B0674BD3F814217B6B9A4200D0CEE77A6D09
S11353C07B6A9A4200DDC9E74FF0FF333B65002357
S11353D0FB647A6A7B6D9A4207DD7B6D5A1C7A65A1
S11353E01A467B6C13441B783B65594BD3F8183130
S11353F03A6B91B2564AD2F8182192B28A1A92B2F2
S113540013443B63524BD3F814217B6C00937B6AA7
S11354100193504811463A6B0123FFF76BF9034699
S1135420002B00D19AE74A4BD3F818213B6B9A42E0
S11354301AD93B6B464AD2F81821934200DD8DE716
S1135440434BD3F818315A1E3B6B9A4286D1404BDA
S113545093F82031002B81D097F84230A02B7FF4B1
S11354607DAF0123FB640EE03B6B0133384AC2F885
S1135470183197F84230A02B01D1202200E00022FD
S1135480334B83F82021324B93F82031002B04D185
S1135490BB6B03F01003002B08D02D4BB3F8AC30DA
S11354A043F010039AB22A4BA3F8AC20284B0022F5
S11354B083F8B220264B93F8B220254B83F822219F
S11354C0234B93F821315BB213F1800F03D0204BAF
S11354D0F42283F821211E4B1B7B5BB2A3F1400411
S11354E01B4BDB891846FFF727FA0346E31A3B6296
S11354F03B6A002B05DB3B6AFE2BA8BFFE23DBB215
S113550000E00023124A82F823317B6C0833FB61EC
S11355100023BB6440E1BB6CFA6913441B78023B73
S1135520052B00F23F8101A252F823F045550000FB
S113553059550000B95600003756000027560000A0
S113554007570000BB6C0333BB6425E14103002013
S11355500C02002000030020BB6C0133FA691344E1
S11355601B78FB76BB6C0233FA6913441846FEF7CA
S1135570E1FF03463B83BB6C0433FA6913441B7895
S113558023F00F03FB75BB6C0433FA6913441B78D7
S113559003F00F03BB75BB6C0533BB64A94B8722B7
S11355A083F82421FA7D3B8B10461946FFF76CFCE7
S11355B00346002B08D1A34B93F8243123F00103B5
S11355C0DAB2A04B83F82421FB7E1B097B757B7D1B
S11355D01846FEF77FFF0346002B08D1994B93F83A
S11355E0243123F00203DAB2964B83F82421954B3D
S11355F093F8243103F07F03072B0FD1914ABB7D2D
S113560082F8AE30FB7E03F00F038F4AD35C7A7DC1
S11356105BB2042011461A46FFF7B2FA894B012205
S113562083F82221B8E0874B012283F82521BB6C43
S11356300133BB64B0E0BB6C0133FA6913441B78DB
S113564003F00F033B75BB6C0233FA69134418462D
S1135650FFF7F8FB3861BB6C0533BB64794B8022E0
S113566083F830213B7D1846FEF734FF0346002BB8
S113567008D0744B93F8303143F00203DAB2714B23
S113568083F830213B69002B08D06E4B93F83031FE
S113569043F00103DAB26B4B83F83021694B93F882
S11356A03031832B07D1674A3B7D82F82A31654A22
S11356B03B69C2F82C316FE0BB6C0133FA691344C7
S11356C01B78FB73BB6C0233BB64FB7BFF2B08D1E1
S11356D05C4BB3F8AC3043F040039AB2594BA3F897
S11356E0AC20FB7B03F00F03DAB2564B83F8A32004
S11356F001F086F80246534BC3F8A420514B012213
S113570083F8282148E0BB6C0133FA6913441B7801
S1135710BB73BB6C0233FA6913441846FFF792FB60
S1135720B860BB6C0533FA6913441B78FB71454BB5
S1135730802283F82921BB68002B29D0FB7903F050
S11357400F034FF6FF7202FA03F399B2FB791B09B8
S1135750DBB2C3F10F034FF6FF7242FA03F39BB2BD
S11357600A4613409BB29BB2BA7B1046B9681A46EC
S11357704FF0FF33FFF7C0FA0346002B08D0314B3C
S113578093F8293143F00303DAB22E4B83F829212D
S1135790BB6C0633BB6400BFBA6CFB6A9A42FFF66B
S11357A0BAAE00E000BFFB6C002B1DD13B6D002B9B
S11357B01ADB7A6A7B6DD31A002B15DD3B6D002B47
S11357C001DC224800E022481E4BD3F814417B6DD3
S11357D07A6C1A44796A7B6DCB1A00920193214644
S11357E03A6B0123FFF72AF8BB6A002B154B93F899
S11357F03131002B0FD0134B93F83231DAB2BB6A3C
S1135800002B01D0802300E040231343DBB2DAB243
S11358100C4B83F832213B6D002B1BDA094B93F8B8
S1135820323143F02003DAB2064B83F832217B6D28
S1135830DAB2044B83F83321024B002283F834217B
S11358401FE000BF0C02002088D2000000030020EB
S1135850100300200D4B93F8323143F01003DAB2F9
S11358600A4B83F832217B6DDAB2084B83F833217B
S11358707B6ADAB27B6DDBB2D31ADAB2034B83F8FC
S11358803421012318465C37BD4690BD0C0200202C
S113589080B500AF0D4B022283F832210B4B93F8F5
S11358A02A311846FEF7EAFD03461A46074BDA8109
S11358B0064BD3F82C31054A9360044B002283F83D
S11358C03421022001F0AEFD80BD00BF0C02002097
S11358D080B582B000AF786039600E4B1A687B687F
S11358E0D1180C4B93F82A311A460B4B53F822204B
S11358F013465B0013440B44064A5360054B5B6834
S1135900413B064819463A6800F0E4FF0837BD46B3
S113591080BD00BF0C020020BCD200002002002089
S113592080B582B000AF78600D4B012283F832213C
S11359300B4BDB8918460121FEF768FD03461A4626
S1135940074BDA81064B002283F83421044A7B6832
S1135950D361022001F066FD0837BD4680BD00BF5B
S11359600C02002080B582B000AF78603960164B1D
S11359701B7C072B0AD1144B1A687B681344053B24
S1135980114A5360104B08221A7412E00E4B1A6825
S11359907B68D1180C4B5B7C1A460C4B53F82220C5
S11359A013465B0013440B44074A5360064B05221D
S11359B01A74054B5B68413B054819463A6800F088
S11359C089FF0837BD4680BD0C020020BCD2000010
S11359D02002002080B582B000AF78600820FFF775
S11359E025FC0837BD4680BD80B586B000AF8B4B23
S11359F093F83231012B06D1884B93F83431002BC4
S1135A0001D1FDF757FF854BB3F8AC3003F08003A9
S1135A10002B01D1FDF74EFF804B93F83431002B5E
S1135A204AD17E4BB3F8AC3003F00403002B23D1EE
S1135A307A4BB3F8AC3003F02003002B01D1FDF70F
S1135A4039FF764BB3F8AC3023F0A0039AB2734B12
S1135A50A3F8AC20714B93F8B230092B07D86F4BE5
S1135A6093F8B2300133DAB26C4B83F8B2200920D8
S1135A70FFF7DCFB0123CCE0684BB3F8AC3023F038
S1135A8080039AB2654BA3F8AC20FFF75FFB786004
S1135A9000F0B6FE02467B681A447B6803F00103FB
S1135AA0002B01D05E4B00E05E4B5F4811461A4666
S1135AB000F010FF0123ACE0584B93F835317B75AF
S1135AC0564B93F83431FB75FB7D043B03F5987317
S1135AD0524A134405331846FEF742FD3861FB7DF4
S1135AE0112B02D0FB7D212B04D17B7D03F0E3033A
S1135AF0202B09D0494B93F8323103F00103002BDA
S1135B0001D0002385E08CE7FB7D013B4748194623
S1135B10FEF780FEFB7D043B45481946FEF758FE20
S1135B200346002B00D1E5E74248FEF719FDF86073
S1135B303A4AFB68C2F814313F48FEF711FD0346A8
S1135B4023F07F43354AC2F8A8300020FFF744F819
S1135B50FB7D112B22D90D23FB750323BB751AE0A2
S1135B60FB7D03F598732D4A134405331846FFF75C
S1135B7069F9B860BB68002B07D0BB7D1846B968CB
S1135B8000224FF0FF33FFF7B7F8BB7D0133BB753D
S1135B90FB7D0333FB75BB7D072BE1D91F4BB3F8AA
S1135BA0F230013B9BB218462049244A244BFEF7AD
S1135BB087FE1A4BB3F8AC3003F02403002B01D159
S1135BC0FDF778FE154BB3F8AC3003F02003002B3F
S1135BD00ED0124B93F8B020104B93F8B23010460D
S1135BE01946FEF78DFC03461A460C4B83F8B02089
S1135BF00A4BB3F8AC3023F4297323F002039AB2AE
S1135C00064BA3F8AC20FFF72DFB0620FFF70EFB95
S1135C10012318461837BD4680BD00BF0C02002082
S1135C20D559000019520000200200204203002030
S1135C304103002048030020450300200003002006
S1135C401003002080B582B000AF7860064B93F853
S1135C503431002B03D1044B002283F83221FFF7A7
S1135C60C3FE0837BD4680BD0C02002080B582B05B
S1135C7000AF7860034B044ADA61FFF709FE083786
S1135C80BD4680BD0C020020455C000080B582B09A
S1135C9000AF7860084B93F83431002B04D0FFF741
S1135CA0A3FE0346002B04D14FF440300349FFF711
S1135CB00FFE0837BD4680BD0C0200206D5C00005D
S1135CC080B582B000AF78600248FFF729FE08373C
S1135CD0BD4680BD8D5C000080B582B000AF7860A9
S1135CE04FF420300249FFF73DFE0837BD4680BD22
