S01B000045464D33324A47314231303046313238474D33322E7333372D
S2140000000080002091010000BD010000BD0100003D
S214000010BD010000BD010000BD010000BD010000E3
S214000020BD010000BD010000BD010000BD010000D3
S214000030BD010000BD010000BD010000BD010000C3
S214000040BD010000BD010000BD010000BD010000B3
S214000050BD010000BD010000BD010000BD010000A3
S214000060BD01000065090000BD010000BD010000E3
S214000070BD010000BD010000BD010000BD01000083
S214000080BD01000015090000BD010000BD01000013
S214000090BD010000C1D90000BD010000BD01000087
S2140000A0BD010000BD010000BD010000BD01000053
S2140000B0BD01000095120000BD0100003DDA000001
S2140000C0BD010000BD01000010B5054C237833B912
S2140000D0044B13B10448AFF300800123237010BD16
S2140000E08001002000000000E03A010008B5064B41
S2140000F01BB106480649AFF300800648036813B1F3
S214000100054B03B1984708BD00000000E03A010027
S214000110840100207C01002000000000154B002B0D
S21400012008BF134B9D46A3F5803A00218B460F4629
S2140001301348144A121A10F0D4FE0F4B002B00D0AE
S21400014098470E4B002B00D0984700200021040053
S2140001500D000D48002802D00C48AFF3008010F0C8
S21400016091FE200029000DF071FC10F077FE00BF14
S21400017000000800008000200000000000000000D2
S214000180800100208C0D0020000000000000000010
S214000190064880470649074A074B9A42BEBF51F8B1
S2140001A0040B42F8040BF8E7FFF7B8FF89020000DB
S2140001B0EC3A01000000002080010020FEE700BFAE
S2140001C080B582B000AF00F027F878600A4BD3F80D
S2140001D008210A4B13401B0A3B603B6801337A68D0
S2140001E0B2FBF3F37B60064B7A681A607B681846AE
S2140001F00837BD4680BD00BF00400E4000FF01002E
S214000200100A002080B400AF024B1846BD465DF8C9
S214000210047B7047005A620280B483B000AF164B6E
S214000220D3F8943003F00703032B08D0042B02D036
S214000230022B08D00BE0114B1B687B600BE04FF4E1
S21400024000437B6007E00E4B1B687B6003E00D4BB2
S2140002501B687B6000BF084BD3F8003103F4F853EB
S2140002601B0A01337A68B2FBF3F318460C37BD4617
S2140002705DF8047B704700BF00400E40040000207D
S214000280000000200800002080B400AFBD465DF8E6
S214000290047B704780B400AF4FF400431846BD4659
S2140002A05DF8047B704700BF80B400AF4FF47A73EC
S2140002B01846BD465DF8047B704700BF80B400AFAB
S2140002C0034B1B681846BD465DF8047B704700BFAD
S2140002D00400002080B582B000AF7860074B7A68D3
S2140002E01A60074BD3F8943003F00703042B01D1B0
S2140002F0FFF766FF0837BD4680BD00BF040000203C
S21400030000400E4080B483B000AF0346FB71084B3C
S21400031097F907205209F97901F01F01012000FA28
S21400032001F143F822100C37BD465DF8047B704798
S21400033000E100E080B483B000AF0346FB71094BD8
S21400034097F907205209F97901F01F01012000FAF8
S21400035001F1603243F822100C37BD465DF8047B8D
S214000360704700BF00E100E080B485B000AF786061
S21400037039607B6803F10473DA003B6813449B0022
S214000380FB60FB681B6818461437BD465DF8047BA7
S214000390704700BF80B483B000AF7860044B7A68C3
S2140003A0C3F824240C37BD465DF8047B704700BFB5
S2140003B000A0004080B582B000AF03463960FB71F4
S2140003C0FB79002B0DD0FB79012B0AD0FB79022B91
S2140003D007D0FB79032B04D0FB79042B01D0FB79E3
S2140003E0052BFA7913465B0013441B011C3303F1FB
S2140003F0804303F5204318463968FFF7B5FF0346E8
S21400040018460837BD4680BD80B584B002AF396057
S2140004100146F971BA717B71FA79BB7979790091E5
S214000420397C0191104639683A6803F043F808377A
S214000430BD4680BD80B400AF72B6054B1B78013355
S214000440DAB2034B1A70BD465DF8047B704700BFF6
S2140004509C01002080B400AF074B1B78013BDAB24A
S214000460054B1A70044B1B78002B00D162B6BD46B4
S2140004705DF8047B704700BF9C01002080B582B009
S21400048002AF012300930123019332483921002251
S21400049000230DF0B1FE01230093012301932E48A3
S2140004A03B21012200230DF0A7FE0023009300232A
S2140004B001932A483A21012200230DF09DFE0320D5
S2140004C00C210222002303F083F803200D210422CE
S2140004D0002303F07DF803200E210B22002303F0F7
S2140004E077F803200F210B22002303F071F8022077
S2140004F00A210322002303F06BF800BF02200A2122
S214000500FFF758FF0346002BF8D14FF48060FFF743
S21400051041FF0123009302200A2101220023FFF756
S21400052073FF0920FFF706FF0920FFF7EBFE4FF0E9
S21400053080504FF0805103F0D3F800F0D3FF27230C
S2140005400093074829212B22282300F0DFFEBD4612
S21400055080BD00BF140A0020380A00202C0A0020A4
S214000560100C002080B400AF00231846BD465DF88E
S214000570047B704780B483B000AF0346FB71084B22
S21400058097F907205209F97901F01F01012000FAB6
S21400059001F143F822100C37BD465DF8047B704726
S2140005A000E100E080B483B000AF03463960FB7121
S2140005B097F90730002B0BDA0D49FB7903F00F0390
S2140005C0043B3A68D2B25201D2B20B441A7609E022
S2140005D0084997F907303A68D2B25201D2B20B44B2
S2140005E083F800230C37BD465DF8047B704700BFD8
S2140005F000ED00E000E100E080B487B000AFF860F6
S214000600B9607A60FB6803F10473DA00BB681344D0
S2140006109B007B617B697A681A601C37BD465DF873
S214000620047B704780B483B000AF7860044B7A6870
S214000630C3F824240C37BD465DF8047B704700BF22
S21400064000A0004080B400AF034BD3F81C3418461B
S214000650BD465DF8047B704700A0004080B582B0C0
S21400066000AF03463960FB71FB79002B0DD0FB7998
S214000670012B0AD0FB79022B07D0FB79032B04D081
S214000680FB79042B01D0FB79052BFA7913465B0026
S21400069013441B010C3303F1804303F52043184633
S2140006A039680022FFF7A8FF0837BD4680BD00BFA7
S2140006B080B582B000AF03463960FB71FB79002B32
S2140006C00DD0FB79012B0AD0FB79022B07D0FB79E2
S2140006D0032B04D0FB79042B01D0FB79052BFA7988
S2140006E013465B0013441B010C3303F1804303F5F0
S2140006F02043184639680122FFF77EFF0837BD46BB
S21400070080BD00BF80B584B002AF39600146F97184
S214000710BA717B71FA79BB7979790091397C01914C
S214000720104639683A6802F0C5FE0837BD4680BDF7
S21400073080B582B000AF7860F970BA707B7097F9B8
S2140007400330B3F1FF3F00D142E07B68FA781A70BD
S2140007507B681B78DBB203F00F03012202FA03F377
S2140007609AB27B685A807B681B785BB21B11DBB23F
S214000770DBB203F00F039AB27B681A817B68002213
S2140007805A60BB78002B0ED17B681B89DAB27B6877
S2140007901B78DBB203F00F031046194602227B6972
S2140007A002F016FF0DE07B681B89DAB27B681B78C7
S2140007B0DBB203F00F031046194604227B6902F0F1
S2140007C007FFBB78012B03D17868796900F076F8CB
S2140007D00837BD4680BD00BF90B589B002AFF8604F
S2140007E07B600B46FB721346BB727B68002B00D106
S2140007F05FE00023FB750023BB75FB7A032B16D83E
S21400080001A252F823F000BF2F08000019080000CC
S2140008101F080000250800000123FB7507E00123E0
S214000820BB7504E00123FB750123BB7500BF0023E5
S2140008303B61BB7A032B14D801A252F823F000BF09
S2140008405108000051080000570800005D0800002D
S21400085003233B6108E002233B6105E001233B6183
S21400086002E000233B6100BFFB681B89D8B2FB682F
S2140008701B78DBB203F00F01FA7DBB7D01240094E8
S214000880FFF740FF11203969FFF78CFE0920396910
S214000890FFF788FE1120FFF76DFE0920FFF76AFEBE
S2140008A0FB681B78DBB203F00F02034B796843F852
S2140008B022101C37BD4690BDA001002080B582B036
S2140008C000AF786039607B681B785BB2B3F1FF3F9E
S2140008D000D11BE03B68002B0CD07B681B89DAB28A
S2140008E07B681B78DBB203F00F0310461946FFF750
S2140008F0DFFE0BE07B681B89DAB27B681B78DBB215
S21400090003F00F0310461946FFF7A8FE0837BD464A
S21400091080BD00BF80B582B000AFFFF793FE786061
S2140009204AF6AA20FFF77EFE7B6803F00803002B3A
S21400093006D00B4BDB68002B02D0094BDB689847D0
S2140009407B6803F40063002B06D0054BDB6A002BA4
S21400095002D0034BDB6A98470837BD4680BD00BF10
S214000960A001002080B582B000AFFFF76BFE786074
S21400097045F25550FFF756FE7B6803F00103002B47
S21400098006D0114B1B68002B02D00F4B1B689847F4
S2140009907B6803F01003002B06D00B4B1B69002B63
S2140009A002D0094B1B6998477B6803F48053002BE1
S2140009B006D0054B1B6B002B02D0034B1B6B9847D6
S2140009C00837BD4680BD00BFA001002080B58CB0B2
S2140009D000AF78600B46FB707B689BB2BB82FB78EF
S2140009E03B7407F11003BB610123BB8307F10C03C3
S2140009F03B620123BB840423FB8207F114031348E4
S214000A00194603F09FF907F114031048194603F03E
S214000A1099F90346FB620A200DF0E4FB04E00B485C
S214000A2002F080FF0346FB62FB6A012BF7D0FB6AED
S214000A30002B01D0FB6A04E03B7B87F82B3097F84D
S214000A402B3018463037BD4680BD00BF00C0004082
S214000A5080B58AB000AF786013460A46FA70BB705D
S214000A607B689BB23B82FB783B73BB787B7307F15A
S214000A700C037B6102233B8301237B8207F1100377
S214000A800F48194603F05EF907F110030C481946A3
S214000A9003F058F903467B6205200DF0A3FB04E043
S214000AA0074802F03FFF03467B627B6A012BF7D0C4
S214000AB00A200DF097FB7B6A18462837BD4680BD96
S214000AC000C0004090B585B000AF294B284A526C54
S214000AD042F002025A64264B254A926C22F4F852DF
S214000AE042F4A8529A64224B214A526C42F0010208
S214000AF05A641F4B1E4A926C22F01F0242F01702E5
S214000B009A641C4B3C460FCB84E80F0001233B70D5
S214000B1001237B70184BBB6001233B733B46144894
S214000B20194602F0D1FE03200E210B22002302F00C
S214000B304FFD03200F210B22002302F049FD00F099
S214000B40D1F801200DF04EFB0E20102100F04EF8DB
S214000B5001200DF047FB2C203B2100F047F8012038
S214000B600DF040FB00F0B6F81437BD4690BD00BF50
S214000B7000C0004074330100DDFB050080B58CB07A
S214000B8000AF0346FB713A23BB82FB793B7407F147
S214000B901003BB610123BB8307F10C033B620123F7
S214000BA0BB840423FB8207F114030F48194603F0A5
S214000BB0C9F807F114030C48194603F0C3F80346B6
S214000BC0FB6204E0084802F0ADFE0346FB62FB6AE7
S214000BD0012BF7D03B7B87F82B3097F82B30184645
S214000BE03037BD4680BD00BF00C0004080B58AB02B
S214000BF000AF02460B46FA71BB713A233B82FB7983
S214000C003B73BB797B7307F10C037B6102233B8349
S214000C1001237B8207F110030B48194603F092F874
S214000C2007F110030848194603F08CF803467B6268
S214000C3004E0054802F076FE03467B627B6A012BE1
S214000C40F7D02837BD4680BD00C0004080B582B0D2
S214000C5000AF0346FB71FB795BB22D201946FFF708
S214000C60C5FF01200DF0BEFAFB795BB22E201946B7
S214000C70FFF7BCFF0837BD4680BD00BF80B582B019
S214000C8000AF0346FB7100F02DF801200DF0AAFA24
S214000C900420FFF7DBFF01200DF0A4FA15206FF00B
S214000CA00701FFF7A3FF01200DF09CFAFB795BB26A
S214000CB017201946FFF79AFF01200DF093FA00F06F
S214000CC009F80837BD4680BD80B500AF1620FFF78F
S214000CD055FF80BD80B500AF2A204921FFF786FF6B
S214000CE080BD00BF80B500AF2A200021FFF77EFF41
S214000CF080BD00BF80B483B000AF0346FB71084BD5
S214000D0097F907205209F97901F01F01012000FA2E
S214000D1001F143F822100C37BD465DF8047B70479E
S214000D2000E100E080B483B000AF0346FB71094BDE
S214000D3097F907205209F97901F01F01012000FAFE
S214000D4001F1603243F822100C37BD465DF8047B93
S214000D50704700BF00E100E080B483B000AF0346F8
S214000D603960FB7197F90730002B0BDA0D49FB79D8
S214000D7003F00F03043B3A68D2B25201D2B20B44DE
S214000D801A7609E0084997F907303A68D2B2520154
S214000D90D2B20B4483F800230C37BD465DF8047BC3
S214000DA0704700BF00ED00E000E100E080B483B0D3
S214000DB000AF78603960064A7B6804331B01134431
S214000DC03A685A600C37BD465DF8047B704700BF32
S214000DD00020044080B483B000AF7860034B7A688C
S214000DE01A620C37BD465DF8047B7047002004404D
S214000DF080B483B000AF7860054B054A516A7A68C4
S214000E00D2430A405A620C37BD465DF8047B7047F1
S214000E100020044080B483B000AF7860054B054ADC
S214000E20516A7A680A435A620C37BD465DF8047BFD
S214000E30704700BF0020044080B400AF034B9B699E
S214000E401846BD465DF8047B704700BF002004408E
S214000E5080B584B000AF3C4B1B7883F00103DBB257
S214000E60002B67D0394B00221A60394B4FF4FA2218
S214000E701A60374B1B6818460EF066FE02460B4695
S214000E80104619462EA3D3E900230EF0D3FE0246E1
S214000E900B464FF000002F490EF018FD02460B4699
S214000EA0104619460FF088F902462B4B1A60264B5F
S214000EB001221A702948012101F09EF928480221D2
S214000EC001F05EFC2748012101F088F9254801F071
S214000ED0F9F90246244B1A602248012101F08CF9E8
S214000EE03B1D00221A60043300221A6004330022DD
S214000EF01A70013301233B710123FB713B1D184619
S214000F0003F0EAF80120FFF773FF0120FFF762FF06
S214000F1003F012F90120FFF77DFF1D200421FFF7E3
S214000F201BFF1D20FFF7FEFE1D20FFF7E3FE01203E
S214000F3003F0C2F81037BD4680BD00BFAFF3008097
S214000F40FCA9F1D24D624040FA010020E0010020E9
S214000F50E401002000007041E801002000050800C0
S214000F6002001A0080091200F0010020AFF3008092
S214000F70B0B58CB000AF78600420FFF72BFF6C4A4A
S214000F8007F10C03106818609188927999809A711D
S214000F9000F006F90246674B1A607B68002B01D109
S214000FA001237B6078680EF0CFFD02460B461046A4
S214000FB019465DA3D3E900230EF03CFE02460B461D
S214000FC0104619460EF030FCC7E90A0178680EF0A4
S214000FD0BBFD02460B461046194653A3D3E9002331
S214000FE00EF028FE02460B46C7E90823D7E90A0199
S214000FF0D7E908230EF06AFC02460B46C7E906232B
S2140010004D4B1B6818460EF0AFFD04460D46D7E95B
S21400101006014FF00002494B0EF00CFE02460B464E
S214001020204629460EF054FC02460B46104619464A
S2140010300FF09AF80246404B1A603F4B1B681D2B78
S21400104010DD3D4B1B681E3B1A463B4B1A60D7E92A
S2140010500A014FF000023A4B0EF03AFC02460B46ED
S214001060C7E90A23334B1B6818460EF06DFD02468F
S2140010700B46104619462CA3D3E900230EF0DAFDE2
S21400108002460B4610461946D7E90A230EF020FC06
S21400109002460B46104619460FF08EF803467B6153
S2140010A0284B9A687B699A422BD978690EF04CFDDA
S2140010B002460B46104619461BA3D3E900230EF042
S2140010C007FC02460B4614461D461E4B9B681846F8
S2140010D00EF03AFD02460B46204629460FF03AF837
S2140010E00346002B0DD007F10C030120194602F031
S2140010F0B5FF144B9B68013301201946FFF756FED7
S21400110009E007F10C030120194602F0A7FF0120B1
S2140011107969FFF74BFE0420FFF77CFE3037BD46AB
S214001120B0BD00BFAFF30080FCA9F1D24D624040D5
S21400113084330100F40100200002002000408F40AC
S2140011400000F03F0020044080B483B000AF786019
S214001150104B1B687A689A420CD90F4B1B78DBB28F
S214001160002B07D00C4B00221A700A4B1B687A68BB
S214001170D31A7B60074B1B687A689A4202D9074BE2
S21400118001221A707B6818460C37BD465DF8047B52
S214001190704700BFFC010020F8010020F901002084
S2140011A0B0B582B000AF00237B6078680EF0CCFC50
S2140011B004460D46144B9B6818460EF0C5FC0246C6
S2140011C00B46104619460EA3D3E900230EF05CFE2C
S2140011D002460B46204629460EF07AFB02460B4690
S2140011E0104619460EF0E8FF03467B60074B1B6867
S2140011F07A6813447B607B6818460837BD46B0BDE6
S214001200FCA9F1D24D62404000200440EC010020D1
S21400121080B582B000AFFFF7C3FF78600A4B1B684B
S2140012207A689A4207D2094B1A68074B1B68D21A8B
S2140012307B68134403E0044B1B687A68D31A18468D
S2140012400837BD4680BD00BFF4010020E401002041
S21400125080B584B000AF78600023FB607B68002B0D
S21400126001D1002310E0FFF79BFFF860FA687B6867
S2140012709A4206D2064B1A687B68D21AFB68134459
S21400128002E0FA687B68D31A18461037BD4680BD60
S214001290E401002080B582B000AFFFF7CDFD024626
S2140012A00E4B5B6A13407B600520FFF793FD7B685F
S2140012B003F00103002B04D0094B1B685A1C084B93
S2140012C01A607B6803F00403002B04D00420FFF7A9
S2140012D08FFD0DF0E5F80837BD4680BD00200440C0
S2140012E0E001002080B584B000AF7860FFF758FFBB
S2140012F0F86000BFFFF754FF0246FB68D21A7B680F
S2140013009A42F7D31037BD4680BD00BFB0B588B04F
S21400131000AF7860F970BA707B70FFF78BF8604B9F
S21400132007F108041D460FCD0FC495E8030084E8B6
S21400133003005C48012100F05FFF5B48012100F0DC
S2140013405BFF5A48012100F057FF022009210422C2
S214001350002302F03DF902200B210222002302F0B6
S21400136037F9022008210422002302F031F9022076
S21400137007210422012302F02BF94D4803F09CF8C4
S21400138000233B830023FB604A4B3B610123BB7574
S21400139007F108034648194603F016F8444B444A3A
S2140013A0926F22F0F85242F030629A67404B404A01
S2140013B0526F42F008025A673D4B3D4A926F22F444
S2140013C0F81242F410229A67394B394A526F22F0CB
S2140013D004025A67364B364AD26F22F01F0242F09A
S2140013E00202DA67324B324A526F22F010025A6714
S2140013F02F4B2F4AD26F22F4F85242F48072DA67EB
S2140014002B4B2B4A526F22F020025A67284B284A51
S214001410926F22F01F0242F00F029A67244B244A72
S214001420526F42F001025A67214B214A926F22F412
S214001430F85242F460629A671D4B1D4A526F42F0A2
S21400144002025A671A4B1A4A526E22F004025A6671
S214001450174B174A526E22F002025A66144B144A71
S214001460526E22F008025A66114B114A126822F494
S21400147000421A600E4B0E4A126822F480421A602E
S2140014800B4B0B4A126822F400521A6008480521DA
S21400149002F074FFFEF7DEFF2037BD46B0BD00BF8A
S2140014A08C3301004041050000320400002508008E
S2140014B00004014040420F0080B582B000AF786063
S2140014C00B467B807B88DBB20548194603F052F852
S2140014D0034803F03BF8034618460837BD4680BD70
S2140014E00004014080B582B002AF012300930123BF
S2140014F0019322482721012200230CF07DFE0123C0
S2140015000093002301931E480021002200230CF0C4
S21400151073FE01230093002301931A4854210022EE
S21400152000230CF069FE0123009300230193164864
S2140015305321002200230CF05FFE012300930023BA
S214001540019312481C21002200230CF055FE0123B3
S2140015500093002301930E481B21002200230CF069
S2140015604BFE01230093002301930A481D2100220D
S21400157000230CF041FEBD4680BD00BF500C00208D
S214001580C80B0020D40B0020E00B0020EC0B002042
S214001590F80B0020040C002080B582B000AF786005
S2140015A07B681B681348012103220CF041FE7B6810
S2140015B004331B681048012103220CF039FE7B68B7
S2140015C008331B680D48012103220CF031FE7B68AE
S2140015D00C331B680A48012103220CF029FE7B68A5
S2140015E010331B680748012103220CF021FE083740
S2140015F0BD4680BDC80B0020D40B0020E00B0020A9
S214001600EC0B0020F80B002090B585B000AF034629
S214001610FB710023FB730023BB7309200AF0E2F979
S2140016200346FB734D200AF0DDF90346BB73FB7BD4
S21400163003F07F03DCB2444BD3F8A430184600F026
S21400164085F80346DBB222461343DBB2FB73FB7B13
S21400165043F07003FB73FB7B5BB2002B4BDA97F90E
S2140016600730112B04DDBB7B43F00703BB7307E099
S214001670BB7B23F00703DBB243F00403DBB2BB7390
S214001680BB7B03F00703072B1AD197F90730042B0F
S21400169001DC0523FB7197F90730142B01DD1423B9
S2140016A0FB71FB7B23F00F03DAB2FB79053BDBB261
S2140016B0DBB203F00F03DBB21343DBB2FB7335E0A0
S2140016C097F90730012B01DC0223FB7197F90730ED
S2140016D0112B01DD1123FB71FB7B23F00F03DAB224
S2140016E0FB79023BDBB2DBB203F00F03DBB2134342
S2140016F0DBB2FB731AE097F90730B3F1FF3F01DA6C
S214001700FF23FB7197F907300E2B01DD0E23FB71CB
S214001710FB7B23F00F03DAB2FB790133DBB2DBB2DB
S21400172003F00F03DBB21343DBB2FB73FB7B092032
S21400173019460AF045F9BB7B4D2019460AF040F9D8
S2140017401437BD4690BD00BFBC0B002080B483B0EC
S21400175000AF7860802318460C37BD465DF8047BE2
S214001760704700BF80B582B000AF0346FB710B4BDD
S2140017701B78FA799A420DD0084BFA791A70FB79E1
S21400178083F00103DBB2002B02D000F009F801E081
S21400179000F00CF80837BD4680BD00BF04020020EC
S2140017A080B400AFBD465DF8047B704780B400AFE0
S2140017B0BD465DF8047B704780B483B000AF034637
S2140017C0FB71FB79032B00D000E000BF0C37BD4651
S2140017D05DF8047B704700BF80B483B000AF7860CC
S2140017E0012318460C37BD465DF8047B704700BFE2
S2140017F080B400AF0E4B1B680E4A02FB03F303F5E2
S214001800405339330A4A1360094B19680323A1FB76
S2140018100323C81A400803449A0F1346DB079B1A93
S214001820CA1A13461846BD465DF8047B704700BFCB
S2140018300C0000206D4EC64180B483B000AF7860C7
S214001840034B7A681A600C37BD465DF8047B704718
S2140018500C00002080B582B000AF78603960FFF7DA
S214001860C7FF034639687A688A1A013293FBF2F199
S21400187002FB01F29A1A7B68134418460837BD46E5
S21400188080BD00BF80B485B000AFF860B960134675
S214001890FB8007E0FB685A1CFA60BA68511CB96006
S2140018A012781A70FB885A1EFA80002BF2D1143771
S2140018B0BD465DF8047B704780B485B000AFF86025
S2140018C0B9601346FB80FB88013BFA681344FB6053
S2140018D007E0FB685A1EFA60BA68511CB9601278B5
S2140018E01A70FB885A1EFA80002BF2D11437BD46B8
S2140018F05DF8047B704700BF80B483B000AF7860AB
S21400190013460A46FA703B8004E07B685A1C7A60ED
S214001910FA781A703B885A1E3A80002BF5D10C379D
S214001920BD465DF8047B704780B483B000AF786036
S21400193039607B683A681A640C37BD465DF8047BEC
S214001940704700BF80B487B000AFF860B9607A60B7
S214001950FB6803F10473DA00BB6813449B007B61E9
S2140019607B697A681A601C37BD465DF8047B704751
S21400197080B485B000AF786039607B6803F1C063DF
S214001980FB60FB683A681A601437BD465DF8047B56
S214001990704700BF80B485B000AF786039607B6860
S2140019A003F18063FB60FB683A681A601437BD4633
S2140019B05DF8047B704700BF80B584B000AFF86068
S2140019C0B9607A60F868B968FFF7E4FFF868796884
S2140019D0FFF7CEFF1037BD4680BD00BF80B487B08E
S2140019E000AF786013460A46FA70BB70BB78002BCF
S2140019F004D01023FB605A4B3B6103E00023FB60DE
S214001A00584B3B617B685A6B3B691340BB600023B5
S214001A107B61FB78022B3ED0022B04DC002B09D026
S214001A20012B1DD08DE0062B66D0812B73D0032BA7
S214001A3047D086E04C4B1B6E03F4FE437A69134393
S214001A407B61494B1B6E03F00F037A6913437B617E
S214001A50454B1B6E03F0F0037A6913437B6173E01A
S214001A60414B1B6E03F0FE431B0E1B027A691343A9
S214001A707B613D4B1B6E03F470231B0C7A6913438A
S214001A807B61394B1B6E03F470031B0D1B017A69D7
S214001A9013437B6158E0344B5B6E03F4FE437A6974
S214001AA013437B61304B5B6E03F00F037A6913437D
S214001AB07B612D4B5B6E03F0F0037A6913437B6109
S214001AC042E0294B5B6E03F0FE431B0E1B027A6955
S214001AD013437B61244B5B6E03F470231B0C7A6903
S214001AE013437B61204B5B6E03F470031B0D1B01DD
S214001AF07A6913437B6127E01B4B9B6E03F00F0351
S214001B007A6913437B61184B9B6E03F0F0037A6986
S214001B1013437B6118E0144B5B6E03F4FE437A6953
S214001B2013437B61104B5B6E03F00F037A6913431C
S214001B307B610D4B5B6E03F0F0037A6913437B61A8
S214001B4002E000237B6100BFFB687A699A40BB68AD
S214001B501A437B685A631C37BD465DF8047B7047A2
S214001B60FFFF00800080FFFFB081E00F80B584B0EB
S214001B7000AF786039603B68DB78FB72FB7A002B3D
S214001B8006D11C48002100F0E3F80346FB7201E092
S214001B90194B1B687B680A229A603B681B781A06FA
S214001BA03B689B781B0403F4FE031A43FB7A1B0274
S214001BB003F4FE431A433B685B781343FB603B68C1
S214001BC01B79002B03D0FB6843F01003FB607B6897
S214001BD0FA681A603B685B790748C0211A46FFF727
S214001BE0EBFE78684FF40061FFF79EFE1037BD46A7
S214001BF080BD00BF0024F4000020004080B584B003
S214001C0000AF786039607B6802229A603B689B78F8
S214001C10786819460022FFF7E1FE3B685B781A06F3
S214001C203B681B791B021A433B685B791B04134312
S214001C301A463B68DB78DB001343FB603B68DB79C6
S214001C40002B03D0FB6843F00053FB603B681B7A15
S214001C50002B03D0FB6843F00403FB603B689B79D2
S214001C60002B03D0FB6843F00203FB603B685B7A03
S214001C70002B03D0FB6843F00103FB603B681B7935
S214001C80F32B0DD13B689B78002B09D13B685B7822
S214001C90032B05D8FB6823F0706343F08063FB607A
S214001CA03B689B78DBB25BB2002B04DAFB6843F040
S214001CB0E003FB6005E03B689B785B01FA68134332
S214001CC0FB607B68FA681A617B685A691F4B134091
S214001CD0FB603B689B78DBB25BB2002B06DA3B68A6
S214001CE09B7823F08003FA681343FB603B681B78FD
S214001CF05B04FA681343FB603B68DB7A002B03D077
S214001D00FB6843F48043FB607B68FA685A617A6834
S214001D103B689B7A104602211A46FFF713FE3B6883
S214001D201B79F32B07D17B6830331846102101222C
S214001D30FFF708FE06E07B683033184610210022C5
S214001D40FFF700FE1037BD4680BD00BF07401E00EF
S214001D5080B584B000AF786039607A68134B9A42D9
S214001D6002D9124B7B6006E07B68B3F5FA4F02D2CD
S214001D704FF4FA437B603B68002B03D10C4800F01D
S214001D80A1FA38603A687B6813445A1E7B68B2FB37
S214001D90F3F3FB60FB68002B02D0FB68013BFB60A3
S214001DA0FB68DBB218461037BD4680BD0024F40041
S214001DB04041050080B582B000AF78607B68002B9C
S214001DC008D10E4800F07EFA78607B68002B01D1BF
S214001DD001237B607B6803F5742303F23F237B605B
S214001DE07A68074BA3FB02139B0C7B607B68DBB215
S214001DF0013BDBB218460837BD4680BD40410500B2
S214001E0083DE1B4380B487B000AFF860B9607A60A9
S214001E10FB6803F10473DA00BB6813449B007B6124
S214001E207B697A681A601C37BD465DF8047B70478C
S214001E3080B485B000AF786039607B6803F10473C6
S214001E40DA003B6813449B00FB60FB681B6818467F
S214001E501437BD465DF8047B704700BF80B485B07C
S214001E6000AF786039607B6803F1C063FB60FB6895
S214001E703A681A601437BD465DF8047B704700BFA9
S214001E8080B485B000AF786039607B6803F180630A
S214001E90FB60FB683A681A601437BD465DF8047B41
S214001EA0704700BF80B584B000AFF860B9607A6054
S214001EB0F868B968FFF7E4FFF8687968FFF7CEFFBF
S214001EC01037BD4680BD00BF80B483B000AF7860D9
S214001ED039607B681A683B68134018460C37BD4665
S214001EE05DF8047B704700BF80B483B000AF7860B5
S214001EF07B68012202FA03F318460C37BD465DF8EC
S214001F00047B704780B584B000AF78607B6801338F
S214001F10B3FA83F3C3F11F03FB60F868FFF7E4FF2F
S214001F20FB6818461037BD4680BD00BF80B584B03C
S214001F3000AF786039607A683B689A4294BF0023A5
S214001F400123DBB2FB6006481021FA68FFF75AFF50
S214001F5004481821FA68FFF755FF1037BD4680BDC4
S214001F6000400E4000410E4080B582B000AF0748EA
S214001F701021FFF75DFF786005481821FFF758FF2E
S214001F8038607B6818460837BD4680BD00400E4066
S214001F9000410E4080B483B000AF054B1B687B60E9
S214001FA07B6818460C37BD465DF8047B704700BF5B
S214001FB01000002080B582B000AF0D4800F03AFB5C
S214001FC00346FB70FB78072B05D0082B07D1FEF7DE
S214001FD023F9786006E0FFF7DDFF786002E0002373
S214001FE07B6000BF7B6818460837BD4680BD00BFD3
S214001FF006000C0080B485B000AF7860184B1B6CF0
S214002000002B0CBF00230123FB72154B41F67132E7
S2140020101A64134B5B6803F04073FB607A68114BDD
S2140020209A4207D87A68104B9A4203D94FF08073C9
S214002030FB6001E00023FB60094B094A526822F06E
S2140020404071FA680A435A60FB7A002B02D0044BB0
S21400205000221A641437BD465DF8047B704700BF43
S21400206000000E40005A620280BA8C0180B500AFB4
S214002070FEF7C8F803461846FFF7BCFF80BD00BF52
S21400208080B487B000AF78600F237B617B68033332
S2140020903B617B69FB60FA683B699A4238BF13462E
S2140020A0BB60BB681B07BB60BB6818461C37BD46D9
S2140020B05DF8047B704700BF80B584B000AF7860E1
S2140020C00023BB607B68334A934206D0324A934271
S2140020D003D0324A934200D000E000BF786800F098
S2140020E0A9FA0346FB607B682A4A93420DD02A4A27
S2140020F0934211D0294A934200D014E0284BD3F8DB
S214002100803003F00703FB600DE0254BD3F88430E6
S21400211003F00703FB6006E0214BD3F8883003F09A
S2140021200703FB6000BFFB68042B2ED801A252F801
S21400213023F000BF85210000492100005121000046
S2140021406121000059210000FEF7A4F8B8601CE0E9
S214002150FEF7B4F8B86018E0FEF7A6F8B86014E02A
S2140021600F4BD3F8003103F08073002B04D0FEF73A
S21400217027F803469B0803E0FEF722F803465B08B1
S214002180BB6002E00023BB6000BFBB681846103788
S214002190BD4680BD03001C000500200002001A009A
S2140021A000400E4080B483B000AF78600A4BD3F88E
S2140021B0443103F00103002B00D007E000BF064BBC
S2140021C0D3F840217B681340002BF8D10C37BD466E
S2140021D05DF8047B704700BF00400E4080B582B0BB
S2140021E000AF786039603B68013B7868194600F0BC
S2140021F02DF90837BD4680BD80B586B000AF786043
S2140022000B46FB7000233B617B681B0A03F00F0341
S214002210013B092B44D801A252F823F045220000C6
S21400222051220000A1220000A12200004B22000043
S2140022305722000061220000A12200006B2200004D
S21400224077220000184B7B6118E0184B7B6115E085
S214002250174B7B6112E0174B7B6101233B610DE05E
S214002260154B7B6110233B6108E0144B7B614FF4F8
S21400227080333B6102E0124B7B6100BF7B681B0B27
S21400228003F01F03FB603B69002B02D03869FFF7A1
S21400229089FFFB787869F9681A46FFF7B3FD00E016
S2140022A000BF1837BD4680BD00400E40B0400E400F
S2140022B0C0400E40E0400E40E8400E40F0400E4069
S2140022C050410E4080B584B000AF78607B6803F460
S2140022D07813B3F5602F00F0A280B3F5602F16D800
S2140022E0B3F5802F2ED0B3F5802F05D8002B25D040
S2140022F0B3F5003F39D096E0B3F5202F44D0B3F5C0
S214002300402F00F08880B3F5002F2AD08BE0B3F57D
S214002310B01F69D0B3F5B01F06D8B3F5901F47D0ED
S214002320B3F5A01F49D07EE0B3F5E01F57D0B3F554
S214002330001F6BD0B3F5D01F35D074E0FDF76CFFEF
S214002340F86073E0FDF768FFF8603B4BD3F80C21AC
S2140023503A4B13401B0A0133FA68B2FBF3F3FB60F7
S21400236064E0FDF759FFF86060E0FDF755FFF860A0
S214002370314BD3F80821314B13401B0A0133FA685E
S214002380B2FBF3F3FB6051E0FDF746FFF8602A4B23
S214002390D3F8143103F4F8531B0A0133FA68B2FB7E
S2140023A0F3F3FB6042E02648FFF786FEF8603DE068
S2140023B02448FFF781FEF86038E02148FFF77CFEEE
S2140023C0F8601D4BD3F8203103F00F031846FFF7D3
S2140023D08BFD0346FA68B2FBF3F3FB6026E01A486F
S2140023E0FFF76AFEF86021E01748FFF765FEF86021
S2140023F0114BD3F8283103F003031846FFF774FD9A
S2140024000346FA68B2FBF3F3FB600FE00D48FFF7F4
S21400241053FEF8600AE0FFF7CDFDF86006E0FFF730
S214002420B9FDF86002E00023FB6000BFFB681846B9
S2140024301037BD4680BD00BF00400E4000FF0100C3
S21400244002001A000500200003001C0080B584B0BE
S21400245000AF786039607B681B0903F00F03FB60F0
S214002460FB68013B072B00F2D28001A252F823F052
S21400247091240000D1240000E9240000012500007A
S2140024801D25000061250000B5250000E52500009B
S214002490FFF7ECFD60486149FFF748FD604B604A76
S2140024A0D2F8002122F4F8513A6812020A43C3F81F
S2140024B00021FDF785FEB860B868FFF79BFD594818
S2140024C0FFF700FF034618465449FFF72FFD9FE02D
S2140024D0534B534AD2F8142122F4F8513A681202A8
S2140024E00A43C3F8142193E04D4B4D4AD2F800211D
S2140024F022F080713A6812060A43C3F8002187E08A
S214002500474A474BD3F80C3123F4FF3323F4807348
S214002510396809020B43C2F80C3179E0FFF7A6FDD3
S2140025203D483E49FFF702FD3D4A3D4BD3F8083192
S21400253023F4FF3323F48073396809020B43C2F88F
S2140025400831FDF73DFEB860B868FFF753FD354823
S214002550FFF7B8FE034618463049FFF7E7FC57E09A
S2140025607B68314A934203D0304A93420FD020E032
S2140025704FF48020FFF716FE294B294AD2F8302167
S21400258022F00F013A680A43C3F8302111E0386898
S214002590FFF7B8FC38600420FFF704FE204B204A03
S2140025A0D2F8202122F00F013A680A43C3F820210E
S2140025B000BF2DE07A681E4B9A4200D011E03868C2
S2140025C0FFF7A0FC38604020FFF7ECFD144B144AE0
S2140025D0D2F8282122F003013A680A43C3F82821DA
S2140025E000BF15E07A68104B9A4200D00EE04FF418
S2140025F08020FFF7D7FD0A4B094AD2F8302122F097
S2140026000F013A680A43C3F8302100BF00E000BF5C
S2140026101037BD4680BD00BF0148E8010048E8010C
S21400262000400E40000508008009120060061400F5
S2140026307007160080B485B000AF78600123FB7386
S2140026407B6803F00F03BB60BB68013B052B00F201
S2140026508B8001A252F823F071260000A32600000A
S214002660D32600006927000019270000492700002C
S214002670424BD3F8943003F00703032B07D0042B08
S21400268002D0022B06D008E00223FB7308E00323E7
S214002690FB7305E00423FB7302E00523FB7300BF16
S2140026A065E0364BD3F8803003F00703022B06D0E4
S2140026B0042B07D0012B08D10323FB7308E0022369
S2140026C0FB7305E00923FB7302E00123FB7300BFE5
S2140026D04DE02A4BD3F8843003F00703013B032B6D
S2140026E016D801A252F823F0F9260000FF260000B3
S2140026F00B270000052700000323FB730BE00223D3
S214002700FB7308E00923FB7305E00623FB7302E076
S2140027100123FB7300BF2AE0184BD3F8883003F080
S2140027200703022B06D0042B07D0012B08D1032366
S214002730FB7308E00223FB7305E00923FB7302E04A
S2140027400123FB7300BF12E00C4B1B6F03F0010369
S214002750002B05D0012B00D009E00823FB7302E014
S2140027600723FB7300BF02E00023FB7300BFFB7B65
S21400277018461437BD465DF8047B704700400E408F
S21400278080B588B000AF78600B46FB700323FB6112
S2140027900323FB7600233B617B6803F00F03FB609B
S2140027A0FB68013B042B00F2B48001A252F823F030
S2140027B0C5270000652800008128000013290000B6
S2140027C073280000FB78023B072B00F2A68001A2CC
S2140027D052F823F0F5270000FF2700000928000024
S2140027E01B2800001B2900001B2900001B290000D5
S2140027F01B2900000423FB610023FB7616E003235D
S214002800FB610123FB7611E00223FB610223FB76CA
S21400281045484649FFF78AFB08E00123FB6103238E
S214002820FB7641484149FFF781FB00BFFB7E184617
S2140028300121012200F038F9FFF718FC3C4BFA6939
S2140028405A673C48FFF73EFD034618463749FFF7F0
S2140028506DFB00F031FCFDF7B3FCB860B868FFF71D
S214002860C9FB57E03B69002B01D03B6900E0324BC7
S2140028703B613B69002B01D03B6900E02F4B3B617D
S2140028803B69002B01D03B6900E02D4B3B61FB7898
S214002890013B082B43D801A252F823F0C1280000C0
S2140028A0C7280000D72800001F2900001F290000A5
S2140028B0E72800001F2900001F2900000529000046
S2140028C000237B6121E000200121012200F0ECF8CA
S2140028D002237B6119E001200121012200F0E4F8C7
S2140028E001237B6111E0FDF76BFC034618460F4998
S2140028F0FFF71CFB134800210122FFF783FA03238E
S2140029007B6102E004237B6100BF3B697A691A6041
S21400291000E000BFFFF728FB02E000BF00E000BFBA
S2140029202037BD4680BD00BF0148E8010048E801E9
S21400293000400E400005080080400E4088400E40D3
S21400294084400E40B0400E4090B585B000AF786031
S2140029501120FFF76FFE02200021012200F0A4F8EC
S2140029607B685B7883F00103DBB2002B0ED07B68BC
S2140029709B7883F00103DBB2002B07D07B68DB7803
S21400298083F00103DBB2002B00D000BF0023FB6006
S2140029907B681B7C022B01D10123FB607B681B78C4
S2140029A0002B02D04FF4807300E00023FA68134334
S2140029B0224840F201111A46FFF774FA7B68DB7A68
S2140029C01F4807211A46FFF76DFA7B689B88DA02D4
S2140029D07B685B7A13431B481B491A46FFF762FA6B
S2140029E07B68DB88DA027B681B7ADB011A437B682C
S2140029F09B7A13431C467B681B7A1846FFF740FBFE
S214002A000346234311486FF07F611A46FFF74AFAE0
S214002A107B681B7B1A047B685B7B1B031A437B6803
S214002A209B7B1B011A437B68DB7B134308480949E1
S214002A301A46FFF737FA1437BD4690BD24400E40BD
S214002A4028400E402C400E407FF80F0030400E40CD
S214002A5034400E40FFF00F0080B582B000AF7860C3
S214002A601120FFF7E7FD00200021002200F01CF8EF
S214002A707B681B781A467B685B78DB021A437B68A8
S214002A809B781B061A437B68DB781B0213430448BB
S214002A9004491A46FFF706FA0837BD4680BD00BF50
S214002AA038400E407F1B000780B588B000AF134645
S214002AB00246FA710A46BA717B71FB79042B00F262
S214002AC0AD8001A252F823F0252B0000132B000046
S214002AD0EF2A0000DD2A0000012B000001237B61A5
S214002AE002233B610123FB610023BB6125E0042335
S214002AF07B6108233B610323FB610223BB611CE06F
S214002B0010237B6120233B610523FB610423BB610B
S214002B1013E040237B6180233B610723FB61062390
S214002B20BB610AE04FF480737B614FF400733B6136
S214002B300923FB610823BB6100BFBB79002B5FD074
S214002B400023FB73FB79022B15D1364B5B6A03F02F
S214002B503003002B0FD10123FB73324B5B6A03F06B
S214002B600103002B07D02F4B2E4A526A22F0300268
S214002B7042F010025A622B4B7A691A6600BF2A4846
S214002B80B969FFF755F90346002BF8D07B79002B7F
S214002B9035D000BF2448F969FFF74AF90346002BF1
S214002BA0F8D0FB79022B2AD1FB7B002B27D01D4BBC
S214002BB05B6A03F00103002B05D0022020210122CE
S214002BC000F038F903E00220002100F0E9F80220C6
S214002BD000F02CF8B860022000210122FFF764FF05
S214002BE00220B96800F05CF80E4B7A691A6600BFDE
S214002BF00D48F969FFF71CF90346002BF8D00AE0E8
S214002C00084B3A691A6600BF0748B969FFF710F91A
S214002C100346002BF8D100F04FFA00E000BF203743
S214002C20BD4680BD00400E4090400E4080B485B04A
S214002C3000AF0346FB71FB79013B032B23D801A2AF
S214002C4052F823F0552C0000792C0000612C00006F
S214002C506D2C0000114B1B6AC3F30803FB6015E0E4
S214002C600E4B1B6903F07F03FB600FE00B4B9B6969
S214002C7003F07F03FB6009E0084BD3F89C30C3F3F6
S214002C800A03FB6002E00023FB6000BFFB681846F7
S214002C901437BD465DF8047B704700BF00400E4009
S214002CA080B584B000AF03463960FB71FB79013B09
S214002CB0032B68D801A252F823F000BFCD2C0000E9
S214002CC04F2D0000FB2C0000252D00003B68C3F3B1
S214002CD008033B6000BF2E481A21FFF7A9F80346F9
S214002CE0002BF8D12B4A2B4B1B6A23F4FF7323F0DF
S214002CF0010339680B43136246E03B6803F07F0329
S214002D003B6000BF22481821FFF792F80346002BCD
S214002D10F8D1204B1F4A126922F07F013A680A4315
S214002D201A6131E03B6803F07F033B6000BF184840
S214002D301921FFF77DF80346002BF8D1154B154AED
S214002D40926922F07F013A680A439A611CE0114BAF
S214002D50D3F890300F4B0F4A526A22F0300242F0FE
S214002D6010025A623B6803F4F063DB091846FFF76B
S214002D7087F9F8603A68FB681343074807491A461C
S214002D80FFF790F800E000BF1037BD4680BD00BFDB
S214002D9040410E4000400E4030400E40FF0700F01D
S214002DA080B584B000AF02460B46FA71BB711E4870
S214002DB03021FFF789F80346002B03D14FF4400378
S214002DC0FB6012E0BB79202B04D0302B06D0002B02
S214002DD004D007E04FF40003FB6006E04FF4400326
S214002DE0FB6002E0114BFB60FFE700BF104BD3F81F
S214002DF09020FB681A40FB689A42F7D1FB6803F400
S214002E008003002B0AD00A4BD3F8A03003F480636B
S214002E10002B0CBF00230123DBB200E00123184681
S214002E201037BD4680BD00BF24400E40FF03C107DB
S214002E3000400E4080B582B000AF13460246FA71DD
S214002E400A46BA717B71FB79022B15D1BB79002B30
S214002E5007D00C4B4FF48062C3F8A820094BBA7910
S214002E605A667B79002B07D0FA79BB79104619464B
S214002E70FFF796FF034600E0012318460837BD46D5
S214002E8080BD00BF00400E4080B487B000AFF86041
S214002E90B9607A60FB6803F10473DA00BB68134418
S214002EA09B007B617B697A681A601C37BD465DF8BB
S214002EB0047B704780B582B000AF0346FB71FB7998
S214002EC0034800211A46FFF7DFFF0837BD4680BDDE
S214002ED00CE0014080B582B000AF78600F4B7A6896
S214002EE0527902F03F025A600C4B7A68127811460B
S214002EF07A685278520011437A68D2789200114369
S214002F007A68127952010A431A607B689B781846E1
S214002F10FFF7D0FF0837BD4680BD00BF00E0014088
S214002F2080B487B000AFF860B9607A60FB6803F1E0
S214002F300473DA00BB6813449B007B617B697A6884
S214002F401A601C37BD465DF8047B704780B400AF3E
S214002F50034B4AF6E8529A60BD465DF8047B70471C
S214002F6000300E4080B584B000AF0346FB71FB799D
S214002F70002B12D00D4BDA6C0D4B1A600B4BDB6C32
S214002F8023F47F43FB60FB6843F4EE43FB60074B90
S214002F90FA68DA6400F0ECF805E0044B044A1268BC
S214002FA0DA6400F0E5F81037BD4680BD00300E400C
S214002FB01402002080B400AF0D4B1B78012B03D009
S214002FC00B4B1B78022B0FD10A4B1B6C03F0030331
S214002FD0012B06D100BF084B1B6803F48033002B7F
S214002FE0F9D0034B03221A70BD465DF8047B704788
S214002FF00502002000300E407C300E4080B584B0C4
S21400300000AF294B9B6923F4403343F40033BB6085
S214003010254B9B6943F440337B60FFF797FF224BB9
S2140030209B6903F00103002B0DD11F4B1B6C03F0B3
S21400303003033B603B68012B02D03B68022B02D1A6
S214003040002000F00BF9184B9B6903F00103002BDE
S21400305010D072B6154B4AF6E8521A60144B144A52
S214003060126842F080021A60124B124A126842F44A
S21400307080721A600120FFF775FFFFF79BFF0023A1
S214003080FB6008E0084BBA689A61074B7A689A6159
S214003090FB680133FB60FB68032BF3DD024BBA6869
S2140030A09A611037BD4680BD00300E4090310E400C
S2140030B098310E4088300E4080B400AF074BD3F8EE
S2140030C09020074B1A60054BD3F894309AB2054B04
S2140030D01A80BD465DF8047B704700BF00400E4076
S2140030E0080200200C02002080B483B000AF786095
S2140030F00C37BD465DF8047B704700BF80B485B0D2
S21400310000AF7860194B9B69FB60FB6823F03F03B8
S214003110FB607B681B78002B01D0042200E00022B5
S2140031207B685B78002B01D0022300E000231A4363
S2140031307B689B78002B01D0082300E000231A430D
S2140031407B68DB78002B01D0012300E000231A43C4
S2140031507B681B791343FA681343FB60034BFA68DA
S2140031609A611437BD465DF8047B704700300E4008
S21400317080B48BB000AF01237B627B6A1B053B6289
S214003180334BDB6C03F470631B0AFB61314B1B880B
S21400319003F128022F4B1B882833D90F0B445B10F2
S2140031A013441946FB695A1C13469B001344B1FB93
S2140031B0F3F3013BBB61BB697B6107233B613A6963
S2140031C07B699A4238BF1346BB61BB691B06BB616D
S2140031D01F4B1F4AD26C22F0EE61B8693A6A02436E
S2140031E00A43DA641C4B1B881BB2002B2BDB1A4BE2
S2140031F01B88FB81FB8903F12802FB892833D90F42
S2140032000B445B1013441A46FB6901335900FB69F3
S21400321001335B080B44B2FBF3F3BB60BB687B6017
S21400322007233B603A687B689A4238BF1346BB6008
S214003230BB681B01BB60064B054A126D22F070018D
S214003240BA680A431A652C37BD465DF8047B70479A
S21400325000300E400E0200201002002080B584B020
S21400326000AF0346FB71194B1B6C03F00303FB60B6
S214003270FB68DBB2FA799A4200D123E000BF134B19
S2140032809B6F03F00103002BF9D1FB79002B0CBFD9
S21400329000230123DBB20E480D211A46FFF740FE3D
S2140032A0FB68DBB2002B05D1FB79012B02D1094B61
S2140032B002221A70054B054A126C22F00301FA79B5
S2140032C00A431A641037BD4680BD00BF00300E406A
S2140032D054300E400502002080B483B000AF0D4B82
S2140032E002229A6300BF0B4B9B6F03F00103002B77
S2140032F0F9D1084B03221A64064B1B6C032B14BF30
S21400330000230123FB71FB7918460C37BD465DF898
S214003310047B704700300E4080B487B000AFF86082
S214003320B9607A60FB6803F10473DA00BB68134483
S2140033309B007B617B697A681A601C37BD465DF826
S214003340047B704780B485B000AF786039607B68D6
S21400335003F1C063FB60FB683A681A601437BD4629
S2140033605DF8047B704700BF80B485B000AF78601E
S21400337039607B6803F18063FB60FB683A681A601B
S2140033801437BD465DF8047B704700BF80B584B037
S21400339000AFF860B9607A60F868B968FFF7E4FFD4
S2140033A0F8687968FFF7CEFF1037BD4680BD00BFCE
S2140033B080B483B000AF0346FB71FB79002B08D0C6
S2140033C0094B094A926922F0300242F010029A61D3
S2140033D005E0054B044A926922F030029A610C37E8
S2140033E0BD465DF8047B704700300E4080B483B065
S2140033F000AF7860044B7A68C3F824240C37BD46C7
S2140034005DF8047B704700BF00A0004080B582B026
S21400341000AF03463960FB71FB79002B0DD0FB79BA
S214003420012B0AD0FB79022B07D0FB79032B04D0A3
S214003430FB79042B01D0FB79052BFA7913465B0048
S21400344013441B010C3303F1804303F52043184655
S21400345039680022FFF760FF0837BD4680BD00BF11
S21400346080B582B000AF03463960FB71FB79002B54
S2140034700DD0FB79012B0AD0FB79022B07D0FB7904
S214003480032B04D0FB79042B01D0FB79052BFA79AA
S21400349013465B0013441B010C3303F1804303F512
S2140034A02043184639680122FFF736FF0837BD4625
S2140034B080BD00BF80B586B000AFB9607A600246B6
S2140034C0FA73BB73FB7B002B0DD0FB7B012B0AD062
S2140034D0FB7B022B07D0FB7B032B04D0FB7B042B50
S2140034E001D0FB7B052B7B68072B0ED87B689B00E7
S2140034F00F229A40F97B7B689B0001FA03F32C4865
S21400350011461A46FFF742FF10E07B68083B7B61D6
S2140035107B699B000F229A40F97B7B699B0001FA2E
S21400352003F3244811461A46FFF730FF7B68072B43
S21400353010D87B689B0003229A40BB6803F0030107
S2140035407B689B0001FA03F31B4811461A46FFF7F7
S2140035501DFF0FE07B699B0003229A40BB6803F0C7
S21400356003017B699B0001FA03F3144811461A46CF
S214003570FFF70CFFBB7B124879681A46FFF7CCFEB4
S21400358097F820300F4879681A46FFF7C5FE0E4BAD
S2140035907A68012101FA02F2C3F8242497F824304D
S2140035A00A4879681A46FFF7B7FE1837BD4680BD49
S2140035B000A4004004A4004008A400400CA400405E
S2140035C010A4004014A4004000A0004028A400401E
S2140035D090B585B000AFB9607B600346FB731346B9
S2140035E0BB73FB7B002B0DD0FB7B012B0AD0FB7B38
S2140035F0022B07D0FB7B032B04D0FB7B042B01D0D4
S214003600FB7B052BBB7B002B0DD07B68002B05D0EE
S214003610FB7B1846B968FFF723FF04E0FB7B1846E0
S214003620B968FFF7F3FEBB68072B1DD82B48FA7B5B
S2140036302A4CF97B0B465B000B441B01234459685C
S214003640BB689B000F2404FA03F3DB431940BC7BE2
S214003650BB689B0004FA03F3194313465B0013444C
S2140036601B010344596024E01C48FA7B1B4CF97B81
S2140036700B465B000B441B01234408331968BB68E8
S21400368003F18043083B9B000F2404FA03F3DB435B
S2140036901940BC7BBB6803F18043083B9B0004FADF
S2140036A003F3194313465B0013441B01034408331A
S2140036B01960BB7B002B0DD17B68002B05D0FB7BF4
S2140036C01846B968FFF7CCFE04E0FB7B1846B968DD
S2140036D0FFF79CFE1437BD4690BD00BF00A000401B
S2140036E080B582B000AF78603960124B114AD2F8CC
S2140036F018147A68D2430A40C3F818240D4B0D4AB2
S214003700D2F8181478683A6802400A43C3F81824B6
S214003710084B084AD2F82C147A680A43C3F82C24BB
S2140037200120FFF745FE7868FFF760FE0837BD46C4
S21400373080BD00BF00A0004080B487B000AFF86036
S214003740B9607A60FB6803F10473DA00BB6813445F
S2140037509B007B617B697A681A601C37BD465DF802
S214003760047B704780B485B000AF786039607B68B2
S21400377003F1C063FB60FB683A681A601437BD4605
S2140037805DF8047B704700BF80B485B000AF7860FA
S21400379039607B6803F18063FB60FB683A681A60F7
S2140037A01437BD465DF8047B704700BF80B584B013
S2140037B000AFF860B9607A60F868B968FFF7E4FFB0
S2140037C0F8687968FFF7CEFF1037BD4680BD00BFAA
S2140037D080B588B000AFF860B9607A60FB707B682F
S2140037E0002B00D15EE0FB681B6823F44072FB6888
S2140037F01A60FA68FB781B0210464FF440711A46AE
S214003800FFF7D4FFBB68002B03D12848FEF75AFD0C
S214003810B8604FF0FF33BB61FB681B6803F0020320
S214003820002B11D0FB78012B07D0022B08D0002BE1
S21400383000D019E01E4BBB6105E01E4BBB6102E0E9
S2140038401D4BBB6100BF0FE0FB78012B06D0022B9F
S21400385007D0002B08D1164BBB6105E0174BBB61A8
S21400386002E0174BBB6100BFFB78164AD35C7B6156
S2140038707B68DB00BA68D21A7B69796801FB03F3C0
S214003880B2FBF3F3013BFB61FB681B6803F002032A
S214003890002B04D0FB69002B01D10123FB61FA69E0
S2140038A0FB681A612037BD4680BD00BF4041050059
S2140038B080841E00404B4C00809FD50040548900F9
S2140038C0002D31010034010080B582B000AF786071
S2140038D039607B6800221A647B68114ADA637A686A
S2140038E03B685B78002B01D0002300E001231046E4
S2140038F001211A46FFF720FF3B6859683B689A6823
S2140039003B681B7B7868FFF763FF7A683B681B7829
S214003910104600211A46FFF70FFF0837BD4680BD48
S214003920CFFF070080B489B000AF78607A68A34BF9
S2140039309A4205D1A24BBB61BB699B687B6101E0E3
S214003940FC23F8E17B685B6B3B613B6903F4C06377
S214003950002B14D03B6903F40073002B03D0BB6923
S214003960FD225A7007E03B6903F48063002B02D007
S214003970BB69FE225A70BB6909221A70C7E1BB698F
S2140039801B78082B00F2BB8101A252F823F000BF7F
S214003990B5390000073A00008D3A0000DF3A000013
S2140039A0313B0000833B0000133C0000513C00000C
S2140039B0E33C00007B695B8803F01003002B09D012
S2140039C07B691B881B0A9BB203F0060343F0F003D7
S2140039D0FB610EE07B691B8803F0FE03FB617B69DD
S2140039E05B8803F00203002B03D0FB6943F001035E
S2140039F0FB61BB6901221A707B68FA69DA627B6830
S214003A0001225A6083E13B6903F08003002B0CD04F
S214003A107B688022DA63BB69FF225A70BB69082282
S214003A201A707B6802225A602FE03B6903F040035D
S214003A30002B2AD07B684022DA637B695B8803F020
S214003A401003002B08D0BB6902221A707B691B8802
S214003A50DAB27B68DA6218E07B695B8803F00203FF
S214003A60002B0ED0BB6907221A70BB691B797A69D6
S214003A70DB0013441B89012B07D17B6808225A60A0
S214003A8045E1BB6905221A7040E140E13B6903F05D
S214003A908003002B0CD07B688022DA63BB69FF2290
S214003AA05A70BB6908221A707B6802225A6015E0B9
S214003AB03B6903F04003002B10D07B684022DA639A
S214003AC07B695B8803F00203002B03D0BB690322EB
S214003AD01A701BE1BB6905221A7017E117E17B69B2
S214003AE05B8803F01003002B09D07B691B881B0A38
S214003AF09BB203F0060343F0F003FB6104E07B692E
S214003B001B8803F0FE03FB617B695B8803F00403FC
S214003B10002B03D0FB6943F00103FB61BB69042261
S214003B201A707B6801225A607B68FA69DA62EEE0F6
S214003B303B6903F08003002B0CD07B688022DA639D
S214003B40BB69FF225A70BB6908221A707B68022282
S214003B505A6015E03B6903F04003002B10D07B68E9
S214003B604022DA637B695B8803F00403002B03D0F2
S214003B70BB6907221A7003E0BB6905221A70C5E00C
S214003B80C5E0BB695A88BB691B797969DB000B44C1
S214003B901B899A4228D3BB6900225A80BB691B79CD
S214003BA00133DAB2BB691A717B695B8803F00403E0
S214003BB0002B07D0BB6903221A70A7E000C00040A4
S214003BC0180200207B695B8803F00103002B03D1F9
S214003BD0BB691B79012B06D9BB6908221A707B6862
S214003BE002225A6093E091E0BB691B797A69DB0098
S214003BF013445A68BB695B88591C88B2B969488007
S214003C0013441B781A467B68DA62BB6906221A7070
S214003C107DE03B6903F08003002B0CD07B6880229C
S214003C20DA63BB69FF225A70BB6908221A707B6888
S214003C3002225A600BE03B6903F04003002B06D0DB
S214003C407B684022DA63BB6905221A705EE05EE09C
S214003C503B6903F02003002B42D0BB691B797A69CD
S214003C60DB0013441B89FB607B68DB69FB72BB6966
S214003C705B881A46FB689A420ED2BB691B797A6942
S214003C80DB0013445A68BB695B88591C88B2B96963
S214003C9048801344FA7A1A70BB695B881A46FB6838
S214003CA09A420CD3FB68012B02D17B6808225A602B
S214003CB0BB6908221A707B6802225A6010E07B6893
S214003CC004225A60FB68012B0AD9BB695B881A4636
S214003CD0FB68013B9A4203D17B6808225A6016E0D3
S214003CE015E03B6903F48073002B07D07B684FF424
S214003CF08072DA63BB6909221A7008E007E0BB69C4
S214003D00FB225A70BB6909221A7000E01AE6BB69EA
S214003D101B78092B0BD17B6800221A64BB695B7881
S214003D205BB2012B05D1BB6900225A7001E001236A
S214003D3001E0BB695B785BB218462437BD465DF888
S214003D40047B704780B584B000AF786039607A68CD
S214003D50294B9A4208D1294BFB607B689B6803F08D
S214003D600103002B05D001E0FC233FE07B68202206
S214003D705A603B685B8803F00203002B03D03B6865
S214003D801B89002B09D03B685B8803F00403002BDB
S214003D9005D03B681B8A002B01D1FC2326E0FB687C
S214003DA000221A70FB6801225A70FB6800225A80B3
S214003DB0FB6800221A71FB683A689A607B68C0222A
S214003DC05A607B685B6B03F02003002B01D07B6896
S214003DD0DB697B680A4ADA637B681B6C43F4FC6227
S214003DE07B681A647868FFF79DFD03465BB2184649
S214003DF01037BD4680BD00BF00C00040180200203E
S214003E00CFFF070080B483B000AF786039607B686E
S214003E101B6C03F00103002B00D006E000BF7B689C
S214003E205A6C3B681340002BF9D10C37BD465DF841
S214003E30047B704780B586B000AFF860B9607A60E2
S214003E40BB68002B0BD1FA68124B9A4206D1124B74
S214003E507B617869FEF736FAB86000E016E0BB686A
S214003E605A017B68B2FBF3F33B613B69203B3B6145
S214003E703B69DB003B613A69084B13403B61F868DD
S214003E800421FFF7BFFFFB683A69DA601837BD46C2
S214003E9080BD00BF00A0044070071600F8FF0100B8
S214003EA080B584B000AF78600B46FB70FB78DB43D0
S214003EB0FB60FB6803F00503FB60FB685B00FB60D0
S214003EC0FB78FA681343FB6078680221FFF79AFFD5
S214003ED07B68FA685A601037BD4680BD80B483B0F0
S214003EE000AF78600B46FB70FB78002B08D000BF55
S214003EF07B685B6C002BFBD17B6801221A6402E0B6
S214003F007B6800221A640C37BD465DF8047B704758
S214003F1080B582B000AF7860396078680221FFF71C
S214003F2071FF7B680A225A6078680121FFF7D6FF86
S214003F307B681B6823F01C023B681B7B1A433B68AC
S214003F405B7B1A433B689B7B1A437B681A603B6823
S214003F505A683B689B68786811461A46FFF76AFFFE
S214003F603B681B781A467B685A6078680021FFF722
S214003F70B5FF0837BD4680BD80B483B000AF78601B
S214003F8000BF7B689B6803F02003002BF9D07B689A
S214003F90DB69DBB218460C37BD465DF8047B70471C
S214003FA080B582B000AF78600B46FB707868012160
S214003FB0FFF728FFFB78002B06D07B681B6843F4CE
S214003FC000527B681A6005E07B681B6823F4005289
S214003FD07B681A600837BD4680BD00BF80B582B0DA
S214003FE000AF78600B46FB7078680121FFF70AFF88
S214003FF0FB78002B06D07B681B6843F480527B68F6
S2140040001A6005E07B681B6823F480527B681A60A0
S2140040100837BD4680BD00BF80B400AF034B4AF6EC
S214004020E8629A63BD465DF8047B70470020044052
S21400403080B487B000AFF860B9607A60FB6803F1BF
S2140040400473DA00BB6813449B007B617B697A6863
S2140040501A601C37BD465DF8047B704780B483B099
S21400406000AF7860396013493B681B781A463B6896
S2140040705B789B001A433B689B789B011A433B681E
S214004080DB781B011A433B681B79DB021A433B684B
S2140040905B791B031A433B689B795B041A437B6876
S2140040A004331B010B441A600C37BD465DF8047BD5
S2140040B0704700BF0020044080B582B000AF0346C2
S2140040C0FB71FB79034800211A46FFF7B1FF08375A
S2140040D0BD4680BD0020044080B483B000AF786049
S2140040E0144B7A68127811467A6852789200114317
S2140040F07A689278120111437A68D2785201114395
S2140041007A681279120211437A68527912031143BF
S2140041107A689279D20311437A68D27912041143ED
S2140041207A68127A52040A431A600C37BD465DF864
S214004130047B70470020044080B582B000AFFFF7D4
S2140041406BFF214B00221A601F4B00225A601E4B49
S21400415000229A601C4B00221A611B4B00225A61F7
S214004160194B00225A62184B40F2FF721A6200F096
S2140041702DF8154B0022DA6300237B601EE0124AFE
S2140041807B6804331B01134400221A600E4A7B68C6
S21400419004331B01134400225A600B4A7B681B0140
S2140041A01344483300221A60074A7B681B011344F5
S2140041B0483300225A607B6801337B607B68022BA1
S2140041C0DDDD0837BD4680BD0020044080B400AF6A
S2140041D000BF064B1B6B03F02003002BF9D1034BEB
S2140041E00122DA62BD465DF8047B70470020044079
S2140041F080B485B000AF7860194B5B69DBB203F022
S2140042000F03DBB29B00FB73154B1B6903F0C00367
S2140042109B09DAB2FB7B1343FB737B68FA7B9A70CD
S2140042200F4B1B69DBB203F03F03DAB27B685A70B0
S2140042300B4B9B69DBB223F00F03FB73084BDB6968
S21400424003F0F0031B09DAB2FB7B1343FB737B68B6
S214004250FA7B1A701437BD465DF8047B704700BFC2
S214004260D0FF0FE080B485B000AF786039607B681F
S21400427003F1C063FB60FB683A681A601437BD46FA
S2140042805DF8047B704700BF80B485B000AF7860EF
S21400429039607B6803F18063FB60FB683A681A60EC
S2140042A01437BD465DF8047B704700BF80B584B008
S2140042B000AFF860B9607A60F868B968FFF7E4FFA5
S2140042C0F8687968FFF7CEFF1037BD4680BD00BF9F
S2140042D02DE9B04F86B000AFF860B9607A60BB6871
S2140042E0002B03D12348FDF7EDFFB860BB681A46E4
S2140042F04FF000034FEAC31B4BEA526B4FEAC21A59
S2140043007B681A464FF00003504659460CF0BEFA3A
S21400431002460B46B2F5807243F1FF33C7E9042329
S214004320D7E90423803243F10003140A44EA036405
S2140043301D0A4FEA052949EA14694FEA0428C7E925
S2140043400489D7E904010C4A4FF0000302EA000290
S21400435003EA0103C7E90423FB6803F114023B697F
S214004360104605491A46FFF7A1FF1837BD46BDE8B7
S214004370B08F00BF40410500F8FF7F0080B485B0D5
S21400438000AF78600B46FB707A680D4B9A4203D0FC
S2140043907A680C4B9A4200D100BFFB78DB43FB6087
S2140043A0FB6803F00503FB60FB685A007B68DA6075
S2140043B0FA787B68DA601437BD465DF8047B704790
S2140043C0000001400004014080B582B000AF786074
S2140043D039607A68364B9A4203D07A68354B9A42EF
S2140043E000D100BF786800F067F87B681A683B6801
S2140043F01B8A43F001039BB219463B689B7B002B4C
S21400440002D04FF4806300E000230B431A437B681E
S2140044101A607B681A683B681B7D002B02D04FF041
S214004420005300E000231A437B681A603B689B7CBD
S214004430002B07D03B68DB7C63F07F03DBB21A46B9
S2140044407B689A653B681B7B43F480527B685A60A6
S2140044503B685A683B689B68786811461A46FFF7BF
S21400446037FF3B685B7B002B02D07B681022DA604C
S2140044703B689B7D1B0703F0E0423B68DB7D1B052A
S21400448003F4E0031A437B681A663B685B7D002BE7
S21400449005D07B681B6843F480327B681A603B68F3
S2140044A01B781A467B68DA600837BD4680BD00BFB9
S2140044B0000001400004014080B483B000AF786083
S2140044C07A681F4B9A4203D07A681E4B9A4200D1F4
S2140044D000BF7B6840F6AA62DA607B6800221A603A
S2140044E07B6841F205025A607B6800229A607B680E
S2140044F000225A617B680022DA647B68124A9A645A
S2140045007B6800225A677B6800229A677B680022D5
S214004510DA677A680A4B9A4202D17B6800221A65EB
S2140045207B6800229A657A68064B9A4202D17B68BD
S2140045300022DA650C37BD465DF8047B704700BF85
S2140045400000014000040140F9FF010080B483B080
S21400455000AF786000BF7B681B6903F08003002B08
S214004560F9D07B68DB69DBB218460C37BD465DF8D0
S214004570047B704780B483B000AF78600B46FB7056
S21400458000BF7B681B6903F04003002BF9D0FA7864
S2140045907B685A630C37BD465DF8047B704700BFE6
S2140045A080B586B000AF0AF0ABF87861494B1B784F
S2140045B0022B03D0484BDB6A984701E001F0EEF887
S2140045C0464B1B78002B35D0454B1B684548194693
S2140045D00AF07CF8434809F075FE3E4B1B78022B28
S2140045E008D0414B1B68414819460AF06FF83F480F
S2140045F009F068FE374B1B78022B03D03C4B1B7828
S214004600002B2BD012233B743A4B1A7807F1100379
S2140046101046194603F060FD0346FB60FA68324B0D
S2140046201B681344344819460AF050F8324809F01B
S21400463049FE13E0314B00225A70314B04225A7067
S214004640304B1B78002B04D12E4A137843F001031D
S21400465013702C4A137843F010031370294B1B7801
S214004660C3F3C003DBB2012B07D1254B1B78002B0D
S21400467003D1254B01221A7002E0234B00221A7048
S214004680224B1A78224B1A70204B1B783B71214B19
S2140046901B787B717B69BB60164B1A783B1D1046F6
S2140046A0194603F02FFD1C4B7A691A60104B1B78D5
S2140046B083F00103DBB2002B08D0104B00225A70A7
S2140046C0164B1B780133DAB2144B1A701837BD46F6
S2140046D080BD00BF58020020A433010069040020FA
S2140046E004060020DC05002008060020F005002057
S2140046F07004002024020020340600206C060020EF
S21400470080060020580A002086050020540A002053
S214004710850500206A0400207C050020780500201E
S21400472080B500AF0E4B1B6843F040020C4B1A607E
S2140047300C4B1B78002B01D001F07EF80A4A137848
S21400474043F002031370084A137843F01003137003
S2140047500648012109F0BAFF044809F0B3FD80BD00
S2140047608C05002070040020580A002090050020C8
S21400477080B59CB004AFF86079813A81FB71002364
S21400478087F85F30002387F8493000237B640023D6
S21400479087F84330FF2387F84230002387F84130FC
S2140047A000237B610023FB6300237B8700233B877A
S2140047B00023FB860023BB6500237B65974B3B6588
S2140047C0974BFB64002387F84B30002387F84A306A
S2140047D0944B00221A71944B3A89DA81FA79924BFB
S2140047E01A74924B1A78904B5A748F4B0022DA70D8
S2140047F08D4B00229A708C4B00225A718A4B0022F5
S2140048009A60894B00221A73874B00225A73864B94
S21400481000229A74844B00225A61834B00221A703D
S214004820834BDB6A9847834809F092FE97F8493035
S2140048305A1C87F84920FA6813441B7887F82C30EE
S21400484097F82C30C3F34213DBB2013B062B00F281
S214004850DC8301A252F823F0754800000B500000DC
S214004860694A00000B500000694A00000B50000027
S214004870C94F0000704B1B78002B05D06A4B0122F5
S2140048805A70FFF74DFFD2E3FB68591C7B89013B4A
S2140048909AB26A4B1B68084611461A46684B03F0E4
S2140048A085FB97F82C20674B1A707B89043B99B2DE
S2140048B0624B1A6807F11403624803F045FB7B89D4
S2140048C0043B604AD35CFA6B1343FB637B89033B70
S2140048D05C4AD35C1B02FA6B1343FB637B89023B87
S2140048E0584AD35C1B04FA6B1343FB637B89013B7A
S2140048F0544AD35C1B06FA6B1343FB637B69FA6B63
S2140049009A4240F086804D4B1A684F4B1B884449AC
S214004910009110464A491A46404B03F071FB494B3A
S2140049201B791A46494B1A60464B5B791A02474B6D
S2140049301B681A43454B1A60424B9B791A04434B3B
S2140049401B681A43414B1A603E4BDB791A46404BB4
S2140049501A603C4B1B7A1A023D4B1B681A433C4BB1
S2140049601A60384B5B7A1A04394B1B681A43384B6B
S2140049701A60344B9B7A1A06354B1B681A43344B25
S2140049801A60304BDB7A1B09DBB203F00703DAB29E
S214004990304B83F821202B4BDB7A03F00F03DAB27F
S2140049A02C4B83F82820274B1B7B03F00F02294B48
S2140049B01A61284B1B69002B02D1264B01221A6173
S2140049C0244B1B694FF47A7202FB03F2214B1A61E7
S2140049D0204B1B6903F57A721E4B5A611E4B3B62D5
S2140049E07B89DBB2113BDBB287F824301B4B1A788D
S2140049F007F120031046194603F0C2FB184B0022AD
S214004A005A700D4B01221A70164B5A78114B5A7079
S214004A1001E3134B07225A70FDE200BF3402002068
S214004A20440200206C060020540600208C0600205D
S214004A30A4330100F00500206A04002030020020A4
S214004A406103002060030020940A0020980A0020DA
S214004A50500A00209C0A00206D030020240200203B
S214004A60800600205C0A00209C4B93F82D30BB7714
S214004A709B4B1B79DBB27B7709233B77994B1B78E3
S214004A80002B01D00A233B77974B1A7807F11C03BB
S214004A901046194603F020FB0346BB617B890D3B9D
S214004AA09BB29BB21BB223EAE3739BB21AB2BB69FA
S214004AB09A4205D98A4B01225A70FFF731FEB6E2B8
S214004AC097F849305A1C87F84920FA6813441B782F
S214004AD07B6497F849305A1C87F84920FA681344D3
S214004AE01B781B027A6C13437B6497F849305A1C78
S214004AF087F84920FA6813441B781B047A6C134322
S214004B007B6497F849305A1C87F84920FA681344A2
S214004B101B781B067A6C13437B64744B1B687A6C99
S214004B209A4225D0724B1B687B6514E07B6D1A6831
S214004B307B6C9A420CD1012387F84B307B6D043393
S214004B403B657B6D1433FB647B6D5B6ABB6505E080
S214004B507B6D9B6A7B657B6D002BE7D197F84B30AE
S214004B60002B0FD15E4B0B225A70FFF7D9FD5EE289
S214004B70002387F84B305F4B3B655F4BFB645F4B16
S214004B801B68BB6597F849305A1C87F84920FA68B5
S214004B9013441B7887F8283097F849305A1C87F852
S214004BA04920FA6813441B787B8797F849305A1CCB
S214004BB087F84920FA6813441B781B029AB27B8F49
S214004BC013439BB27B8797F82830C3F30303DBB20B
S214004BD0083387F843307B89043BFA6813441B7814
S214004BE0FA6B1343FB637B89033BFA6813441B7819
S214004BF01B02FA6B1343FB637B89023BFA68134480
S214004C001B781B04FA6B1343FB637B89013BFA6832
S214004C1013441B781B06FA6B1343FB63BB6D3B8781
S214004C207A8F3B8FD31AFB86FB8E1BB2002B1BDBC7
S214004C30FB8EBA6D1344BB657B89043B9BB2012295
S214004C400092BA6D019207F114020292F8681946B2
S214004C503A6D7B6C03F05AF87B69FA6B9A4223D163
S214004C60012387F84A301FE0FB8E1AB2BB6D13444F
S214004C7003F580333B637B89043B9BB201220092A1
S214004C803A6B019207F114020292F86819463A6DDF
S214004C907B6C03F03BF87B69FA6B9A4204D10123E4
S214004CA087F84A303B6BBB6511233B770E4B1A786F
S214004CB007F11C031046194603F00EFA0346BB61C3
S214004CC0FA8EBB699A421BD3054B0A225A70044BD4
S214004CD0BA6D5A61FFF724FDA9E100BF9C0A0020C7
S214004CE0540600205A02002024020020500A002009
S214004CF054020020340200204402002064040020F5
S214004D0097F84A30002B00F04181A34B00225A70DE
S214004D10A14B97F84B209A7097F82830C3F30013EE
S214004D20DBB21A469C4B5A719B4B00229A609A4BF8
S214004D3000221A73984BBA6D5A61984B00225A702B
S214004D40974B00221A60974B00221A7097F84B3048
S214004D50012B18D1904B02221A707B6D5A6ABB6DDC
S214004D609A420CD17B6D5B6A002B08D08A4B0822D6
S214004D705A70894BBA6D5A61FFF7D2FC57E17B6DCA
S214004D80BA6D5A6234E097F82C30C3F34213DBB2A4
S214004D90052B12D1844B01221A707F4B01221A7008
S214004DA0824B1A68BB6D9A421FD1804B1B68002B42
S214004DB01BD0012387F85F3017E07B4B00221A7068
S214004DC0754B00221A70794B1A68BB6D9A420CD14B
S214004DD0764B1B68002B08D06F4B08225A706E4B20
S214004DE0BA6D5A61FFF79CFC21E1704BBA6D1A60F0
S214004DF06A4B1B78012B0AD197F82830C3F340136F
S214004E00DBB2012B06D16A4B00221A7002E0684B17
S214004E1000221A707B891A1F97F84330D31A002B8A
S214004E2075DD97F843305A1C87F84320FA68134418
S214004E301B7887F842307B89DAB297F84330D31A6A
S214004E40DBB2043B87F84130534B97F84220DA70C8
S214004E5097F84230002B25D197F82830C3F3030388
S214004E60DBB2002B1AD197F84330FA681A4497F849
S214004E7041309BB201210091B96D01914D490291DB
S214004E80104619463A6D7B6C03F046F8FB7997F8A6
S214004E9041204848002100F0E3FE46E0012387F861
S214004EA05F3042E097F82830C3F30303DBB2002BF1
S214004EB008DD97F84330013BDAB2FB79F868082141
S214004EC000F0CEFE97F84330FA681A4497F841305F
S214004ED09BB201210091B96D0191364902911046AD
S214004EE01946FA6C7B6C03F017F897F85F3083F07E
S214004EF00103DBB2002B18D0274B2E4A9A60264BB4
S214004F0097F841201A73244B01225A730DE097F844
S214004F102830C3F30303DBB2002B06DDFB7997F8DA
S214004F204320F868082100F09BFE97F85F3083F076
S214004F300103DBB2002B1CD097F82830C3F34013D4
S214004F40DBB2012B09D1154B01221A71124B01223B
S214004F509A74194809F0FCFA0BE0104B00221A71FB
S214004F60164B1A78164B1B789A4202D9124809F04B
S214004F70EFFA144A137843F002031370114A1378B9
S214004F8097F85F1061F38203137044E0024B0C2223
S214004F905A70FFF7C5FB4AE0540600206C06002056
S214004FA06C040020740400207104002064040020B7
S214004FB07304002060030020340600201500002043
S214004FC014000020580A002097F84930FA681A445E
S214004FD07B89184811461A46FCF754FC164B0322E8
S214004FE01A70154B00225A70134B124A9A607B892E
S214004FF0DAB297F84930D31ADAB20F4B1A730F4A5F
S214005000137843F00203137005E00B4B01225A702D
S214005010FFF786FB00BF094A137843F010031370AE
S2140050200748012109F052FB054809F04BF96037A3
S214005030BD4680BD6003002054060020580A0020AC
S2140050409005002080B500AF0A4B1B78022B03D0DA
S214005050094BDB6A984701E000F0A0FB074B0222F1
S2140050605A70074B02225A70064A137843F0100310
S214005070137080BD58020020A43301006C06002087
S21400508080060020580A002080B500AF1B4B1B7816
S214005090022B03D01A4BDB6A984701E000F07EFB38
S2140050A0184B1B78002B19D1174B1B78002B02D0FE
S2140050B0164B05225A70164B05225A70154B1B6864
S2140050C0184609F025FB0246134B1B689A4214D378
S2140050D0124A137843F0100313700EE00A4B1B7845
S2140050E0002B02D0094B06225A70094B06225A7032
S2140050F00A4A137843F01003137080BD580200204C
S214005100A43301008C060020700400206C060020EA
S214005110800600207C05002008060020580A002093
S21400512080B500AF1D4B1B78022B03D01C4BDB6AEF
S214005130984701E000F032FB1A4B1B78002B19D180
S214005140194B1B78002B02D0184B03225A70184BB1
S21400515003225A70174B1B68184609F0D9FA024604
S214005160154B1B689A4218D3144A137843F0100361
S214005170137012E00C4B1B78002B02D00B4B042252
S2140051805A700B4B04225A70044B1B78022B04D027
S2140051900A4A137843F01003137080BD58020020AB
S2140051A0A43301008C060020700400206C0600204A
S2140051B0800600207C05002008060020580A0020F3
S2140051C080B584B000AF0023FB73A44809F0C0F993
S2140051D0A34B1B78C3F30013DBB2012B40F0B08166
S2140051E0A04B1B6803F04003002B0BD09D4B1B68A5
S2140051F023F040029B4B1A609A4B1B6823F0010277
S214005200984B1A60964B1B78C3F3C003DBB2012B96
S21400521006D0934B1B78C3F30003DBB2012B1CD1E3
S214005220914B5B78022B03D0904B5B78022B14D10A
S2140052308C4B1B6823F001028A4B1A608C4B0022B1
S2140052401A708C4B1A78884B5A71874B00221A7149
S214005250854B00229A600123FB73874B1B7883F0F3
S2140052600103DBB2002B00F08480FB7B83F001039C
S214005270DBB2002B7DD07A4B1B78C3F3C003DBB2C6
S214005280012B06D0764B1B78C3F30003DBB2012B51
S2140052906FD1734B1B78C3F3C003DBB2012B2ED147
S2140052A0724B1B78002B2AD1744B1A786F4B9A726C
S2140052B06E4B5B78002B0CD1714B00221A60714B41
S2140052C000221A70674B1B6823F00102654B1A60B8
S2140052D014E06A4B1A786C4B1B789A4206D3614BE3
S2140052E01B6823F001025F4B1A6007E05C4A1378E4
S2140052F06FF30413137000F0A7F93AE039E0634B3C
S21400530093F820205F4B1B789A4206D9544B1B78A3
S214005310C3F34003DBB2012B24D1514B1B78C3F3FC
S2140053204003DBB2002B07D1514B00221A70584BBA
S2140053301B685A1C564B1A60524B00221A70554B6B
S2140053401B7883F00103DBB2002B04D04C4B1B68A8
S2140053505A1C4B4B1A60434B1B6823F00102414B0F
S2140053601A6006E03E4A13786FF30413137000F0D9
S2140053706BF93B4B1B78C3F34003DBB2012B25D103
S214005380394B1B79002B05D13A4B1A78424B1B78C8
S2140053909A421BD9414B00221A70374B00221A70D2
S2140053A03C4B1B7883F00103DBB2002B04D0344B5C
S2140053B01B685A1C324B1A602E4B1A782A4B5A71AD
S2140053C0284B1B6823F00102264B1A60334B1B78D0
S2140053D0002B00F0B580234B1B6803F01003002B56
S2140053E040F0AE802D4B00221A70224B1A782A4BC2
S2140053F01B789A427FD21F4B1B78082B7BD81D4BFD
S2140054001B780133DAB21B4B1A701A4B1B7803F069
S2140054100103DBB2002B16D020233B721B4B93F804
S2140054202C30BB72194B5B787B721D4B1A7807F1D8
S21400543008031046194602F04FFE03467B607B6861
S214005440DAB2124B5A7000F0BDFE0346002B29D18B
S214005450034A13786FF3041313704BE09005002093
S214005460580A00208C0500206C06002080060020CC
S2140054707304002015000020700400205006002051
S2140054806004002078050020510600209C0A0020B9
S2140054906C04002068040020140000204806002049
S2140054A024020020594B09225A70594B00221A70C8
S2140054B0584B1B6823F00102564B1A60564B0022CD
S2140054C01A70524B00221A71544B1A784F4B5A716D
S2140054D0534B5B78DAB24D4B9A70524B1B7883F085
S2140054E00103DBB2002B05D04F4B1B685A1C4E4BFA
S2140054F01A6025E024E04D4B1B781846012102F087
S21400550013FE444B1B6823F00102424B1A60404BCB
S21400551000221A70404B00221A703C4B00221A716F
S2140055203E4B1A78394B5A713E4B1B7883F0010379
S214005530DBB2002B04D03C4B1B685A1C3A4B1A605B
S214005540344B1B6803F00203002B05D0314B1B685D
S21400555023F002022F4B1A602E4B1B68002B27D11C
S214005560334B1B78C3F30003DBB2012B09D1314B5D
S2140055701B681B68254898472D4A13786FF300036D
S21400558013702B4B1B78C3F3C003DBB2012B09D17E
S214005590284B1B689B6828489847254A13786FF362
S2140055A0C3031370224A13786FF30413137007E0D3
S2140055B022484FF47A7109F089F8204808F082FEF4
S2140055C01B4B1B78C3F34003DBB2012B1BD11C4BD8
S2140055D01B78022B01D100F0E1F8154B1B78C3F3C2
S2140055E08003DBB2002B04D1124B1B685B681548A6
S2140055F098470F4A13786FF3820313700C4A137898
S2140056006FF3410313701037BD4680BD6C06002053
S214005610730400208C050020700400201500002074
S2140056209C0A002068040020600400202402002059
S214005630580A0020A40500208006002090050020BF
S214005640580200205406002080B586B002AF2248DB
S21400565008F07EFF214B1B6823F010021F4B1A60D8
S2140056601F4B1B78C3F3C003DBB2012B2FD11D4B9E
S2140056701B78002B2BD100F0CDFE1B4B1B78013383
S2140056809BB2BB80194B1A783B1D1046194602F098
S21400569069FE03461A46164B5A7000233B733B7B43
S2140056A06FF347133B7300233B72124B1A783B7A17
S2140056B062F3C7133B7207F10C0207F108030021DF
S2140056C00091104619460022002300F039FF00F032
S2140056D079FD1037BD4680BDC80500208C0500202A
S2140056E0580A0020800600205006002024020020D1
S2140056F09C0A00206B04002080B500AF1D4808F00F
S21400570027FF1D4B00221A701C4B1A781C4B1A7070
S2140057101C4B93F82130DAB2194BDA70194B93F818
S2140057202D20174B1A74184B1A78154B5A74144BB5
S21400573000229A74104B1B78002B0CBF0023012309
S214005740DAB20F4BDA74114B1B78022B02D1104BD6
S2140057501B6B98470F4B1B78184609490E4A02F0F8
S21400576069FD074B9A7C074BDB681046194600F02C
S2140057708BF880BDDC0500208C060020540A002033
S2140057800C0600209C0A00205A0200205802002026
S214005790A4330100240200205806002080B500AF84
S2140057A01C4808F0D5FE1C4B1A781C4B1A701C4B74
S2140057B05A6A1A4B5A601A4B93F82D20174B1A74D4
S2140057C0184B1A78154B5A74144B0122DA74164B80
S2140057D01B78022B03D0114B00229A7402E00F4B69
S2140057E001229A74114B1B7818460C49104A02F095
S2140057F021FD0346002B0CD0084B9A7C084BDB6837
S2140058001046194600F040F8044BDB7C1A46094B5C
S2140058101A7080BDF0050020540A002020060020E3
S2140058209C0A00205A020020580200202402002071
S214005830580600208C06002080B500AF0C4808F003
S21400584087FE0C4B1B78002B08D00B4B01221A70DE
S2140058500A4B1B6823F00402084B1A60084B1B789F
S214005860022B04D1074A137843F01003137080BD4F
S2140058703406002070040020480600208C05002016
S21400588058020020580A002080B582B000AF0346B8
S2140058903960FB71FB7983F00103DBB2002B04D087
S2140058A0054B5B6B3868984703E0034B5B6B002047
S2140058B098470837BD4680BDA433010080B586B042
